:100000000C9472000C9493000C9493000C94930045
:100010000C9493000C94C8020C9493000C949300DD
:100020000C9493000C9493000C9493000C94930004
:100030000C9493000C9493000C9493000C949300F4
:100040000C9493000C94D8050C9493000C9493009A
:100050000C9493000C9493000C9493000C949300D4
:100060000C9493000C940D010C9493000C94930049
:100070000C9493000C9493000C9493000C949300B4
:100080000C9493000C9493000C9493000C949300A4
:100090000C9493000C9493000C9493000C94930094
:1000A0000C9493000C9493000C9493000C94930084
:1000B0000C9493000C9493000C9493000C94930074
:1000C0000C9493000C9493000C9493000C94930064
:1000D0000C9493000C9493000C9493000C94930054
:1000E0000C94930011241FBECFEFD1E2DEBFCDBF31
:1000F00000E00CBF12E0A0E0B2E0E2E6F5E200E0D2
:100100000BBF02C007900D92AE36B107D9F71DE0C4
:10011000AEE6B2E001C01D92AA37B107E1F70E9436
:10012000300A0C94AF120C94000087B1807F87B91D
:10013000AAE7B0E08C9187608C93ECE7F0E08081D7
:10014000806480838081806280838C9180688C93BE
:100150008C9180648C93089590917C00282F277057
:10016000907F292B20937C0090917B008870977F53
:10017000982B90937B0080917A00806480937A0022
:1001800080917A0086FDFCCF809179000895982FA8
:10019000F8948091C00085FFFCCF9093C6007894BE
:1001A0000895FC018436910524F4E059FD4F8081C7
:1001B000089580E00895FC019081992361F03196C3
:1001C000F8948091C00085FFFCCF9093C60078948E
:1001D00090819923A1F708950E94DB0080E090E0D0
:1001E000089510926F0210926E021092D402109233
:1001F000C50087E68093C40088E98093C1008EE043
:100200008093C200089580916E0290916F020895CC
:1002100010926F0210926E0208951F920F920FB605
:100220000F920BB60F9211242F933F935F936F930E
:100230007F938F939F93AF93BF93EF93FF9380919F
:10024000C00087FFFCCFE0916E02F0916F028091B9
:10025000C600E059FD4F808380916E0290916F023D
:10026000019664E670E00E94C50F90936F02809340
:100270006E0281E08093D402FF91EF91BF91AF9124
:100280009F918F917F916F915F913F912F910F90EF
:100290000BBE0F900FBE0F901F90189584B1807FFA
:1002A00084B984B1876084B9289A80E58CBD81E0E7
:1002B0008DBD28980895DC01442399F020E030E0BA
:1002C000FD01E20FF31F80818EBD0DB407FEFDCF4F
:1002D0008EB5FB01E20FF31F80832F5F3F4F241782
:1002E00078F30895482F662361F09C01F90180811D
:1002F0008EBD0DB407FEFDCF31968E2F841B861761
:10030000B0F308958EBD0DB407FEFDCF8EB50895F0
:1003100080910002909101020097E1F020E080FDC1
:100320002F5F969587950097D1F780E190E0821B2B
:10033000910924E630E0AC01429FC001439F900D3B
:10034000529F900D1124929582958F7089279F70EE
:100350008927089584E608950F931F9302E011E022
:10036000F80180818F7B80838FEF0E948201F801EA
:100370009081906490831F910F910895CF92DF92A6
:10038000EF92FF920F931F937B01C42E02E011E0C6
:10039000F80190819F7B90838F7180620E9482011F
:1003A000D82EC7016C2D0E947201F80180818064F3
:1003B00080838D2D1F910F91FF90EF90DF90CF9054
:1003C0000895FC01808180930F0281818093100247
:1003D00082818093110283818093120284818093B1
:1003E000130280E1BF0145E00E94BE010895EF9233
:1003F000FF921F93CF93DF937B01EA01122F90911D
:1004000002019F7B909302010E948201112339F027
:10041000209781F0C701BE01412F0E945B018091AE
:100420000201806480930201DF91CF911F91FF90C0
:10043000EF900895C701612F0E947201F0CF81EE05
:1004400060E070E040E050E020E00E94F70182EEC2
:1004500060E070E040E050E020E00E94F701089585
:100460000F931F93182F092F1092D502809102012C
:100470008F7D809302010E94AC0190E08E7090709D
:1004800095958795282FFC01EC5FFD4F8081813287
:1004900068F020E030E080910201806280930201E8
:1004A0001092D502C9011F910F9108952730B9F01C
:1004B000208181E6612F702F412F502F0E94F7017C
:1004C0000E94AC0190E08E70907095958795873072
:1004D00019F424E030E0DFCF23E030E0DCCF22E08D
:1004E00030E0D9CFEF92FF920F931F93582FF62E43
:1004F000E72E042F442351F0862F972F9C01F901FA
:100500009FEF91938E2F8F198017D8F3809102015E
:100510008F7B80930201852F8F710E948201182F9B
:1005200080E090E06F2D7E2D402F0E945B01809136
:100530000201806480930201812F1F910F91FF902F
:10054000EF9008950F931F93DF93CF930F92CDB742
:10055000DEB780E08E010F5F1F4FB80141E00E94BF
:100560007202898180FD0EC08160898380E0B801BC
:1005700041E00E94BE0184E091E0FC013197F1F777
:100580000197F1F70F90CF91DF911F910F9108958F
:100590001F920F920FB60F920BB60F9211242F934A
:1005A0003F934F935F936F937F938F939F93AF93FB
:1005B000BF93EF93FF93DF93CF930F92CDB7DEB747
:1005C000809102018F7E80930201809102018F7DD4
:1005D000809302010E94AC01898390E086FD6FC088
:1005E000898185FF4BC01092D50280910402882337
:1005F00009F06CC00E94A202809100029091010259
:10060000880F991F9093010280930002809100024D
:10061000909101028160909301028093000281E039
:1006200090E0909303028093020280E7898387E041
:10063000BE016F5F7F4F41E00E94BE0180910201C9
:1006400080618093020180910201806280930201A7
:100650000F90CF91DF91FF91EF91BF91AF919F915B
:100660008F917F916F915F914F913F912F910F905B
:100670000BBE0F900FBE0F901F90189584FFD5CF23
:1006800081EE60E070E040E050E020E00E94F70181
:100690001092D502809104028823F9F40E94A202EC
:1006A0008091000290910102880F991F909301029E
:1006B000809300021092030210920202B6CF8E7055
:1006C0009070959587950E94A40F8ACF8AE06AE082
:1006D00072E045E00E94BE018DCF8AE06AE072E0E0
:1006E00045E00E94BE01DACFCF92DF92EF92FF92F7
:1006F0000F931F93DF93CF930F92CDB7DEB77C019B
:100700006B0181E08093D502809102018F7D8093FF
:10071000020180E08E010F5F1F4FB80141E00E948F
:100720007202898180FD2DC08AE06FE072E045E0B1
:100730000E94BE018091020188608093020180EADC
:10074000B70140E050E020E20E94F70180910201F1
:10075000806280930201CD2891F48091D502882394
:10076000E1F780910202909103020F90CF91DF9107
:100770001F910F91FF90EF90DF90CF90089581E04F
:10078000F4CF8E7F898380E0B80141E00E94BE01F2
:1007900084E091E0FC013197F1F70197F1F7C4CFC4
:1007A000CF92DF92EF92FF920F931F93DF93CF933D
:1007B0000F92CDB7DEB77C018B016430710520F458
:1007C00082E0E816F10450F00F90CF91DF911F9175
:1007D0000F91FF90EF90DF90CF90089586E06E012B
:1007E0000894C11CD11CB60141E00E947202602F26
:1007F000660F898186606823EF2841F4677F6983EB
:1008000086E0B60141E00E94BE01DECF68606983E8
:10081000F7CFAF92BF92CF92DF92EF92FF920F93FA
:100820001F93DF93CF930F92CDB7DEB78C01FB01FF
:100830005A018630910508F046C0009709F44FC070
:10084000982F965F0130110509F472C0A1E1CA2EFC
:10085000C80E41E0892FBF010E94BE0181E07E01E8
:100860000894E11CF11CB70141E00E94720281E092
:1008700090E0002E02C0880F991F0A94E2F7D82E4C
:1008800089818D29898381E0B70141E00E94BE0101
:10089000AB28C9F519828C2DB70141E00E94BE0139
:1008A00089810C5F1D4FF801808382E0B70141E030
:1008B0000E947202D09489818D21898382E0B701E0
:1008C00041E00E94BE010F90CF91DF911F910F91E7
:1008D000FF90EF90DF90CF90BF90AF900895808110
:1008E00080930A02818180930B02828180930C02A3
:1008F000838180930D02848180930E0245E09AE00B
:1009000081E1C82EA7CF80E289838C2DB70141E019
:100910000E94BE0189810C5F1D4FF801808382E037
:10092000B70141E00E94720289818D298983C6CF77
:10093000B1E1CB2EC80E45E08DCFDF92EF92FF9252
:100940000F931F93DF93CF930F92CDB7DEB7109223
:10095000D502E1E0F1E080818861808322E0E22E2F
:1009600021E0F22ED7018C918F7E8C938C91877F22
:100970008C938C918F7D8C93808180628083808129
:10098000806480836C98EAE6F0E0808182608083F6
:1009900080818E7F8083EC9AE49A80EE9BEA0197B7
:1009A000F1F70E944E0183E089838E010F5F1F4F94
:1009B000B80141E00E94BE0185E1898384E0B8016D
:1009C00041E00E94BE0190E7D92ED98285E0B801AE
:1009D00041E00E94BE0189E0898386E0B80141E0E0
:1009E0000E94BE018FE0898380E0B80141E00E944F
:1009F000BE01D98287E0B80141E00E94BE0181EECC
:100A000060E070E040E050E020E00E94F70182EEFC
:100A100060E070E040E050E020E00E94F70180E4F8
:100A20009FE10197F1F7F7018081806280838081E7
:100A3000806180830F90CF91DF911F910F91FF9084
:100A4000EF90DF900895FFCFFF93FCB7FF93FFB7C0
:100A5000F894FF93EF93DF93CF93BF93AF939F935C
:100A60008F937F936F935F934F933F932F931F9336
:100A70000F93FF92EF92DF92CF92BF92AF929F922D
:100A80008F927F926F925F924F923F922F921F921E
:100A90000F928DB79EB79093E4028093E302E091AA
:100AA000D802F091D902E050FF4F808191819EBF22
:100AB0008DBF0F901F902F903F904F905F906F9041
:100AC0007F908F909F90AF90BF90CF90DF90EF90EE
:100AD000FF900F911F912F913F914F915F916F91D7
:100AE0007F918F919F91AF91BF91CF91DF91EF91C6
:100AF000FF91FFBFFF91FCBFFF910895FF93FCB7EB
:100B0000FF93FFB7F894FF93EF93DF93CF93BF93D7
:100B1000AF939F938F937F936F935F934F933F9385
:100B20002F931F930F93FF92EF92DF92CF92BF927A
:100B3000AF929F928F927F926F925F924F923F926D
:100B40002F921F920F92E091D802F091D9028DB7A7
:100B50009EB7E050FF4F918380838091E302909194
:100B6000E4029EBF8DBF0F901F902F903F904F903B
:100B70005F906F907F908F909F90AF90BF90CF903D
:100B8000DF90EF90FF900F911F912F913F914F9128
:100B90005F916F917F918F919F91AF91BF91CF9115
:100BA000DF91EF91FF91FFBFFF91FCBFFF9108958F
:100BB000FF93FCB7FF93FFB7F894F068FF93EF93B0
:100BC000DF93CF93BF93AF939F938F937F936F9355
:100BD0005F934F933F932F931F930F93FF92EF9247
:100BE000DF92CF92BF92AF929F928F927F926F923D
:100BF0005F924F923F922F921F920F92E091D802F4
:100C0000F091D9028DB79EB7E050FF4F918380835A
:100C10008091E3029091E4029EBF8DBF81E090E05D
:100C200090938C0C80938B0CE8E8F0E080819181AC
:100C3000805F984D918380838091E3029091E402DC
:100C40009EBF8DBF0F901F902F903F904F905F9051
:100C50006F907F908F909F90AF90BF90CF90DF90DC
:100C6000EF90FF900F911F912F913F914F915F91C6
:100C70006F917F918F919F91AF91BF91CF91DF91B4
:100C8000EF91FF91FFBFFF91FCBFFF9108950F937C
:100C90001F93CF93DF938C01EB01DC01ED91FC916D
:100CA00011973097E1F16E817F81A0E0B0E001C043
:100CB000FC018091DE029091DF022091DE023091F2
:100CC000DF02AB01481B590B86819781821B930B76
:100CD00048175907B8F080859185DF01009741F7E3
:100CE000D8011296ED91FC911397D187C087139686
:100CF000DC93CE93129719861886DF91CF911F91BE
:100D00000F9108951097C9F01996DC93CE93189718
:100D1000F987E887DF91CF911F910F910895119680
:100D20007C936E9313967C936E9312971986188614
:100D3000DF91CF911F910F910895D801CD93DC934E
:100D4000E7CFCF93DF93C091A70CD091A80C209749
:100D500009F4DFC08091910C9091920C019709F4F5
:100D600070C08091910C9091920C8F5F9F4F09F40D
:100D70008BC08091A90C9091AA0CC817D90709F4CF
:100D8000BFC0C45FDE4F88819981CC50D140909321
:100D9000A80C8093A70CDE01A150BF4FFD01B897AE
:100DA000128280E880A313A280918D0C90918E0C0A
:100DB00094A380918D0C90918E0C85A316A288E54A
:100DC00099E097A38C93C050DF4FF983E883269670
:100DD00082E090E08993999380918F0C9091900C90
:100DE000998388838091910C9091920C2697998396
:100DF0008883C250D1408091910C9091920C8130A7
:100E0000910509F446C08230910529F1892BB1F58D
:100E10008091B70C9091B80C892B09F480C0E091B7
:100E2000B90CF091BA0CE45FFE4FD183C083D0932C
:100E3000BA0CC093B90C20E030E0C901DF91CF912A
:100E400008958091AB0C9091AC0C892B09F089CF5F
:100E500022E030E015C08091AF0C9091B00C892B4E
:100E600009F468C0E091B10CF091B20CE45FFE4F60
:100E7000D183C083D093B20CC093B10C20E030E09A
:100E8000C901DF91CF910895C0913202D091330210
:100E900082CFE091AB0CF091AC0C309771F0809167
:100EA000AD0C9091AE0CE817F90709F44EC080859F
:100EB00091859093AC0C8093AB0C8091990C9091A0
:100EC0009A0C978386838091950C9091960C9383CE
:100ED00082838091970C9091980C95838483D18321
:100EE000C083CC5FDE4FF983E88383EB9CE0BF01D6
:100EF0000E94470620E030E0C901DF91CF910895BC
:100F00001092AA0C1092A90C1092A80C1092A70C87
:100F100042CF21E030E0C901DF91CF910895D09315
:100F2000B80CC093B70CD093BA0CC093B90C20E0A6
:100F300030E0A6CFD093B00CC093AF0CD093B20CDE
:100F4000C093B10C20E030E09BCF1092AE0C109219
:100F5000AD0C1092AC0C1092AB0CAFCF0F931F9353
:100F600080918100826080938100E9EEF3E013823A
:100F70001282CF010A969187808711821082E25FE8
:100F8000FE4F8CE0E935F80791F711861086109234
:100F9000540B1092530B138212821182108223E69B
:100FA0003CE0F901178216821582148213821282A4
:100FB00011821082CF010A9691878087FC018CE014
:100FC000E138F80779F711821082118610861782AE
:100FD0001682158214821382128205EE12E010939B
:100FE000A80C0093A70C87E49AE09093AA0C809336
:100FF000A90C3093AC0C2093AB0CF093AE0CE093A7
:10100000AD0C1092B40C1092B30C1092B60C10925E
:10101000B50C1092B00C1092AF0C1092B20C109252
:10102000B10C1092B80C1092B70C1092BA0C10922E
:10103000B90C83E295E090938E0C80938D0C8FEF2A
:101040009FEF9093920C8093910C1092900C1092C1
:101050008F0C0E94A10680E59EE090938E0C8093F9
:101060008D0C1092920C1092910C1092900C109288
:101070008F0C0E94A1061093D9020093D80281E040
:1010800090E09093EC038093EB03E091B70CF09128
:10109000B80C309779F08091B90C9091BA0CE817A0
:1010A000F907E1F0E45FFE4F808191819093B80CE5
:1010B0008093B70C80916F00826080936F00809165
:1010C000840090918500805F984D90938900809373
:1010D000880082E086BB1F910F9108951092BA0C90
:1010E0001092B90C1092B80C1092B70CE3CFF89490
:1010F00080E884B980913102882309F04DC0709155
:1011000031027F5FF0E840E951E0F5B960E02AEF95
:1011100030E0CA010197F1F721503040D1F76F5FFD
:101120006436A9F715B860E02AEF30E0CA010197EC
:10113000F1F721503040D1F76F5F6832A9F777237C
:10114000F1F0E0E0F5B960E02AEF30E0CA01019784
:10115000F1F721503040D1F76F5F6A30A9F715B829
:1011600060E02AEF30E0CA010197F1F721503040EA
:10117000D1F76F5F6A30A9F7EF5FE71718F360E008
:101180002AEF30E0CA010197F1F721503040D1F742
:101190006F5F6431A9F7B9CF709131027150B2CF4E
:1011A000E091B30CF091B40C309781F1A091B50CA3
:1011B000B091B60CEA17FB0711F126813781008444
:1011C000F185E02D868197812817390779F0809184
:1011D000DE029091DF0240E02817390709F041E074
:1011E00081E04827242F30E0C901089586E08093EC
:1011F00031020E947708A091B30CB091B40C109703
:1012000029F016962D913C911797E1CF20E030E020
:10121000C90108958091D6029091D7020197B1F14A
:101220008091B70C9091B80C892B51F0E091D802C5
:10123000F091D902EE5FFE4F80819181892B71F48C
:101240000E94D008892B71F0E091D802F091D90268
:10125000EE5FFE4F80819181029724F021E030E023
:10126000C90108958091AF0C9091B00C892B71F059
:1012700020E030E0E091D802F091D902EE5FFE4F1D
:1012800080819181039754F7C901089520E030E0EF
:10129000C90108951F931FB7F89484E090E09093DC
:1012A0008C0C80938B0C0E947E051FBF1F910895AC
:1012B0001F931FB7F89483E090E090938C0C809379
:1012C0008B0C0E947E051FBF1F910895E091D802EC
:1012D000F091D902E85FFE4F8081918108951F93BC
:1012E0001FB7F89490938E0C80938D0C7093900C94
:1012F00060938F0C5093920C4093910C82E090E09D
:1013000090938C0C80938B0C0E947E0520919D0CF9
:1013100030919E0C1FBFC9011F91089540E050E01D
:101320000E946F09089542E050E00E946F090895FD
:10133000AF92BF92CF92DF92EF92FF920F931F93E3
:10134000CF93DF936C015B01EA01790141155105EF
:1013500019F02417350728F084E0809331020E94A9
:101360007708D093960CC093950C10939A0C009329
:10137000990CF092980CE092970CC601B50141E0EF
:1013800050E00E946F09DF91CF911F910F91FF9064
:10139000EF90DF90CF90BF90AF9008951F931FB74D
:1013A000F89486E090E090938C0C80938B0C0E94D4
:1013B0007E051FBF80919F0C9091A00C1F910895F6
:1013C0001F931FB7F8949093A20C8093A10C709375
:1013D000A40C6093A30C87E090E090938C0C809316
:1013E0008B0C0E947E051FBF1F9108951F931FB78E
:1013F000F8949093A20C8093A10C7093A60C609328
:10140000A50C88E090E090938C0C80938B0C0E944C
:101410007E051FBF1F91089581E090E09093D70251
:101420008093D6020895E091DE02F091DF02809170
:101430008400909185002091E0023091E102821BAE
:10144000930B60ED77E00E94B10FCF01880F991FD9
:10145000880F991F8E0F9F1F680F791FCB0108956A
:101460002F923F924F925F926F927F928F929F92B4
:10147000AF92BF92CF92DF92EF92FF920F931F93A2
:10148000CF93DF930E94AE07E0903202F0903302D8
:10149000A091D802B091D90231E0C32ED12C28E01E
:1014A000822E02E010E092E0992E89E0582EF3E0BF
:1014B0006F2E712CEBE04E2E7AE0372E6CE0B62EBC
:1014C0005DE0A52E45E0242E1AC0C130D10509F4F7
:1014D000F5C1C130D10558F0C230D10509F475C14C
:1014E000239709F444C1909231020E947708A09199
:1014F000D802B091D90210928C0C10928B0C1097DC
:1015000009F45CC2AA5FBE4F8D919C911197A650C1
:10151000B140019709F4CCC0E091B70CF091B80C40
:10152000309709F4D7C08091B90C9091BA0CE817A4
:10153000F90709F43AC2E45FFE4F80819181EC50D3
:10154000F1409093B80C8093B70CF093D902E093DC
:10155000D802E091D802F091D902EA5FFE4FD18221
:10156000C0821092D7021092D6020E942405C09128
:101570008B0CD0918C0CC430D10509F4EBC1C53073
:10158000D10508F4A2CFC630D10509F47CC1C6301C
:10159000D10508F4ACCFC730D10509F43BC1289779
:1015A00009F0A1CFC091A10CD091A20C209709F411
:1015B000EEC2A881B981109709F447C08A819B8146
:1015C0008A179B0709F4CEC0A45FBE4F8D919C91F2
:1015D0001197AC50B140998388838091A50C90916C
:1015E000A60CA65FBE4FED91FC911197918380836D
:1015F000149711961C930E9314978D919C911197AB
:10160000A250B1408130910509F4A7C08230910504
:1016100009F48FC0892B09F087C08091B70C909195
:10162000B80C892B09F4CFC1E091B90CF091BA0C38
:10163000E45FFE4FB183A083B093BA0CA093B90CC2
:10164000A881B981109709F0B9CF0E940A09892BA6
:1016500009F44DCFA091D802B091D902AA5FBE4F34
:1016600011961C930E9314978D919C911197A250F3
:10167000B1408130910509F46FC28230910509F4BF
:101680004FC2892B09F037CF8091B70C9091B80CDD
:10169000892B09F48AC2E091B90CF091BA0CE45F8D
:1016A000FE4FB183A083B093BA0CA093B90C23CFA3
:1016B000AE15BF0509F055CF8091D6029091D702A3
:1016C000892B09F04ECFE091B70CF091B80C309710
:1016D00009F029CF0E94D008892B09F407C2E091B4
:1016E000B30CF091B40C309771F08091B50C9091DF
:1016F000B60CE817F90709F46FC2808591859093BD
:10170000B40C8093B30CF093DB02E093DA02808197
:1017100091819093D9028093D8028481958190938E
:10172000DD028093DC0215CFA09231020E9477087F
:1017300040CF8091AF0C9091B00C892B09F44CC133
:10174000E091B10CF091B20CE45FFE4FB183A08345
:10175000B093B20CA093B10C2CCFB09231020E9486
:10176000770827CF1B821A821982188236CFA09160
:10177000D802B091D902EA16FB0609F4BCCEAA5FE2
:10178000BE4F11961C921E9214978D919C911197A9
:10179000A250B140019709F46EC18091A70C9091BD
:1017A000A80C892B09F483C1E091A90CF091AA0C33
:1017B000E45FFE4FB183A083B093AA0CA093A90C61
:1017C000A091D802B091D90296CE0E94A106909322
:1017D0009E0C80939D0C80919D0C90919E0C892B6A
:1017E00009F403C180919D0C90919E0C019709F41E
:1017F000C0C180919D0C90919E0C029709F077CE0C
:1018000083E0809331020E947708A091D802B091C2
:10181000D90271CEC091A10CD091A20C209709F4ED
:10182000BBC1A091D802B091D902AE5FBE4F8D91DD
:101830009C911197A250B140019709F484C1A65F11
:10184000BE4F8091A30C9091A40C11969C938E9303
:10185000AA50B14088819981892B09F493C1EA810A
:10186000FB81E45FFE4FB183A083BB83AA83A09179
:10187000D802B091D902AA5FBE4F11967C926E92A7
:10188000A650B14038CE2091E2022A3008F0EAC0DA
:10189000822F90E0880F991F880F991F880F991F3A
:1018A0008554934F9093A00C80939F0C2F5F2093AF
:1018B000E202A091D802B091D9021DCE8091DE0241
:1018C0009091DF0201969093DF028093DE02809177
:1018D0008400909185009093E1028093E002A091B2
:1018E000D802B091D902AE5FBE4F8D919C911197F5
:1018F000A250B140019709F4A0C0AE5FBE4F2D9138
:101900003C911197A250B1402230310509F0F3CD3E
:10191000FD01EA5FFE4F80819181019709F0EBCDD7
:10192000318320838091AF0C9091B00C892B09F406
:1019300045C1E091B10CF091B20CE45FFE4FB18370
:10194000A083B093B20CA093B10CA091D802B09137
:10195000D902D1CDA091D802B091D902AA5FBE4FD1
:1019600011961C930E9314978D919C911197A250F0
:10197000B1408130910509F4A3C08230910509F08E
:1019800080CE8091AF0C9091B00C892B09F416C1D8
:10199000E091B10CF091B20CE45FFE4FB183A083F3
:1019A000B093B20CA093B10CA6CD1092BA0C1092C9
:1019B000B90C1092B80C1092B70CC7CD80923102BE
:1019C0000E947708CECDB093B80CA093B70CB0931B
:1019D000BA0CA093B90CEDCDB093B00CA093AF0CA2
:1019E000B093B20CA093B10CE4CD0E940A09892BEC
:1019F00009F4F8CEA091D802B091D902AA5FBE4FE7
:101A00001196DC93CE9314978D919C911197A250CF
:101A1000B1408230910509F483C0019709F06BCD84
:101A2000AC5FBE4F6D917C9183EB9CE00E944706BA
:101A3000A091D802B091D9025ECD8091DC02909144
:101A4000DD0201979093DD028093DC02892B09F07F
:101A500054CF209231020E947708A091D802B09111
:101A6000D9024BCF509231020E947708A091D80240
:101A7000B091D90240CDAC5FBE4FED91FC91119772
:101A8000A450B140309709F488CE118210828BEABD
:101A90009CE0BF010E944706A091D802B091D902F4
:101AA0008091A70C9091A80C892B09F07DCEB09362
:101AB000A80CA093A70CB093AA0CA093A90C1BCDC3
:101AC000E091DA02F091DB028681978122813381F5
:101AD000820F931F9783868383EB9CE0BF010E9454
:101AE0004706A091D802B091D90205CDE091AF0C84
:101AF000F091B00C309709F46AC08091B10C9091CC
:101B0000B20CE817F90709F480C0E45FFE4F80814A
:101B10009181EC50F1409093B00C8093AF0C15CDB7
:101B20008091AF0C9091B00C009709F45EC0A45F57
:101B3000BE4F11969C938E93AC50B140B093B00CB5
:101B4000A093AF0CD8CC409231020E947708A091AC
:101B5000D802B091D902CFCC6091DA027091DB0249
:101B600083EB9CE00E944706A091D802B091D90275
:101B7000C2CC909231020E947708A091D802B09115
:101B8000D902B9CCB983A883BB83AA8370CE309223
:101B900031020E94770859CD309231020E947708B5
:101BA000A091D802B091D902A6CCB093B80CA09362
:101BB000B70CB093BA0CA093B90C9DCCB093B00CF9
:101BC000A093AF0CB093B20CA093B10C94CCF09254
:101BD000D902E092D802BDCC1092B60C1092B50C8E
:101BE0001092B40C1092B30C8ECDB093B20CA093A3
:101BF000B10CB093B00CA093AF0CA45FBE4F119684
:101C00001C921E92AC50B14076CC1092B20C109245
:101C1000B10C1092B00C1092AF0C97CCFFCF109279
:101C20005A0D10925B0D10925D0D10925C0D10928A
:101C30005E0D10925F0D1092610D81E08093620D38
:101C400084E08093630D21E030E03093650D2093B4
:101C5000640D1092660D1092670D1092690D82E06E
:101C600080936A0D88E080936B0D30936D0D209307
:101C70006C0D10926E0D10926F0D1092710D83E02D
:101C80008093720D8CE08093730D3093750D2093CB
:101C9000740D1092760D1092770D1092790D0895B3
:101CA0000F931F93279A269A259A249A80910A01C6
:101CB000846080930A0180910B018B7F80930B01DC
:101CC00028E833E140E951E0CA010197F1F72150DA
:101CD0003040D1F780910B01846080930B0128E89C
:101CE00033E140E951E0CA010197F1F7215030405A
:101CF000D1F70E949D0480E090E068E672E041E048
:101D000050E00E94090480E090E063E070E00E94EF
:101D1000D0030E94CE099093190D8093180D0E9454
:101D2000F1000E9495000E940F0E80E69FE061E0A6
:101D300070E044E150E02FE030E00AEF10E00E9454
:101D400098098CEA9EE060E070E00E94930980E0D0
:101D500090E01F910F910895CF92DF92EF92FF9242
:101D60000F931F93DF93CF93CDB7DEB7E4970FB6F2
:101D7000F894DEBF0FBECDBF6E010894C11CD11C0C
:101D80008E010D5F1F4F84E3E82E82E0F82E8091D4
:101D9000180D9091190DB6010E94E0092C9A8AE362
:101DA0009DE00E9430028330D1F38DB79EB70E972D
:101DB0000FB6F8949EBF0FBE8DBFEDB7FEB731963C
:101DC000ADB7BEB712961C930E931197F382E282C1
:101DD0008091450D848315828091490D86831782F9
:101DE0008091480D808711868091460D82871386E9
:101DF0008091470D848715860E94D80F8DB79EB7B6
:101E00000E960FB6F8949EBF0FBE8DBFC8010E94FC
:101E1000DB0080916D02843021F02C980E944A09E9
:101E2000B6CF8EE09EE060E070E00E948E09F5CFB4
:101E3000FF920F931F93F82E162F042F85E0F89E24
:101E4000C00111248C5E9D4F0E94E1011093100D82
:101E50000093110D1092120DF092130DAF2DB0E002
:101E6000AA0FBB1FAA0FBB1FAA0FBB1FFD01E45A7D
:101E7000F24F80818093140DA25AB24F8C918093BF
:101E8000150DADE1BDE0E8E6F2E085E001900D92D0
:101E90008150E1F7ADE1BDE0EBE0FDE08DE00190C8
:101EA0000D928150E1F78AE19DE060E070E00E94D0
:101EB000740385B1805885B91F910F91FF900895E3
:101EC000EF92FF920F931F93CF93DF93FF242D9AEE
:101ED0000F2D10E0000F111F000F111F000F111F19
:101EE000E801C65AD24F89810E94AC00E82E898150
:101EF0008F5F0E94AC00482FF801E25AF24F8081B8
:101F0000813099F49E818D819817A8F010821E82ED
:101F10008F2D6E2D20E00E94180F2D980E944A09E7
:101F2000F39483E08F1590F2D2CF8F2D6E2D20E0A9
:101F30000E94180FF2CF9F5F9E838F2D6FE74FE7B0
:101F400020E00E94180FE9CF85B190E4892785B978
:101F50008091180D9091190D61E070E00E94F609D2
:101F60000895AA1BBB1B51E107C0AA1FBB1FA617E0
:101F7000B70710F0A61BB70B881F991F5A95A9F732
:101F800080959095BC01CD01089597FB092E0726F9
:101F90000AD077FD04D0E5DF06D000201AF4709552
:101FA00061957F4F0895F6F7909581959F4F08951D
:101FB0000F931F93DF93CF93CDB7DEB72E970FB656
:101FC000F894DEBF0FBECDBF0E891F8986E08C83DB
:101FD0001A8309838FEF9FE79E838D839E01265E80
:101FE0003F4FCE010196688D798DA9010E9409109D
:101FF0002F813885020F131FF80110822E960FB61D
:10200000F894DEBF0FBECDBFCF91DF911F910F912E
:1020100008952F923F924F925F926F927F928F928C
:102020009F92AF92BF92CF92DF92EF92FF920F9367
:102030001F93DF93CF93CDB7DEB72B970FB6F894EE
:10204000DEBF0FBECDBF3C012B015A01FC01178240
:102050001682838181FD03C06FEF7FEFC6C19AE0D6
:10206000892E1E010894211C311CF3012381F201E9
:1020700023FD859123FF81912F01882309F4B2C1AB
:10208000853239F423FD859123FF81912F0185321B
:1020900029F490E0B3010E942512E7CF982FFF2486
:1020A000EE249924FFE1FF15D0F09B3269F09C32B9
:1020B00028F4903259F0933291F40EC09D3249F0D9
:1020C000903369F441E024C052E0F52A84E0F82A14
:1020D00028C098E0F92A25C0E0E1FE2A22C0F7FCDA
:1020E00029C0892F80538A3070F4F6FE05C0989C71
:1020F000902C1124980E15C0E89CE02C1124E80EB9
:10210000F0E2FF2A0EC09E3229F4F6FC6BC140E4D7
:10211000F42A07C09C3619F450E8F52A02C0983614
:1021200049F4F20123FD959123FF91912F01992309
:1021300009F0B8CF892F8554833018F0805283304E
:1021400038F444E050E0A40EB51E5FE359830FC09D
:10215000933631F0933779F0933509F056C020C0AB
:10216000F5018081898342E050E0A40EB51E610133
:1021700001E010E012C0F501C080D180F6FC03C080
:102180006FEF7FEF02C0692D70E042E050E0A40ED7
:10219000B51EC6010E941A128C015FE7F52214C019
:1021A000F501C080D180F6FC03C06FEF7FEF02C065
:1021B000692D70E042E050E0A40EB51EC6010E94F9
:1021C0000F128C0150E8F52AF3FE07C01AC080E216
:1021D00090E0B3010E942512EA948E2D90E008173A
:1021E0001907A8F30EC0F601F7FC8591F7FE81915F
:1021F0006F0190E0B3010E942512E110EA940150B2
:1022000010400115110579F7EAC0943611F099369E
:1022100069F5F7FE08C0F5012081318142815381C3
:1022200084E090E00AC0F501808191819C014427FF
:1022300037FD4095542F82E090E0A80EB91E9FE62E
:10224000F92257FF09C050954095309521953F4F91
:102250004F4F5F4FE0E8FE2ACA01B901A1012AE011
:1022600030E00E945112D82ED21840C0953729F480
:102270001F2D1F7E2AE030E01DC01F2D197F9F36C5
:1022800061F0903720F4983509F0ACC00FC090375A
:1022900039F0983709F0A6C004C028E030E00AC041
:1022A000106114FD146020E130E004C014FD1660DC
:1022B00020E132E017FF08C0F50160817181828161
:1022C000938144E050E008C0F50180819181BC0118
:1022D00080E090E042E050E0A40EB51EA1010E9413
:1022E0005112D82ED2188FE7F82EF122F6FE0BC02D
:1022F0005EEFF522D91438F4F4FE07C0F2FC05C0F5
:102300008FEEF82202C01D2D01C0192DF4FE0DC064
:10231000FE01ED0DF11D8081803319F499EEF92253
:1023200008C01F5FF2FE05C003C08F2D867809F03C
:102330001F5F0F2DF3FC14C0F0FE0FC01E1510F030
:102340009D2C0BC09D2C9E0C911A1E2D06C080E268
:1023500090E0B3010E9425121F5F1E15C0F304C058
:102360001E1510F4E11A01C0EE2404FF0FC080E333
:1023700090E0B3010E94251202FF1DC001FD03C0C1
:1023800088E790E00EC088E590E00BC0802F86784B
:1023900091F001FF02C08BE201C080E2F7FC8DE208
:1023A00090E0B3010E94251206C080E390E0B301E3
:1023B0000E9425129A94D914C0F3DA94F101ED0D1C
:1023C000F11D808190E0B3010E942512DD20A9F764
:1023D00006C080E290E0B3010E942512EA94EE204C
:1023E000C1F743CEF30166817781CB012B960FB6FF
:1023F000F894DEBF0FBECDBFCF91DF911F910F913B
:10240000FF90EF90DF90CF90BF90AF909F908F9014
:102410007F906F905F904F903F902F900895FC01B8
:102420000590615070400110D8F7809590958E0FFF
:102430009F1F0895FC016150704001900110D8F772
:10244000809590958E0F9F1F08950F931F93CF93A4
:10245000DF938C01EB018B8181FF1BC082FF0DC0DC
:102460002E813F818C819D812817390764F4E88192
:10247000F9810193F983E88306C0E885F985802F07
:102480001995892B31F48E819F8101969F838E83CC
:1024900002C00FEF1FEFC801DF91CF911F910F9185
:1024A0000895FA01AA27283051F1203181F1E894EA
:1024B0006F936E7F6E5F7F4F8F4F9F4FAF4FB1E037
:1024C0003ED0B4E03CD0670F781F891F9A1FA11D32
:1024D000680F791F8A1F911DA11D6A0F711D811D33
:1024E000911DA11D20D009F468943F912AE0269FF8
:1024F00011243019305D3193DEF6CF010895462F57
:102500004770405D4193B3E00FD0C9F7F6CF462F37
:102510004F70405D4A3318F0495D31FD40524193A0
:1025200002D0A9F7EACFB4E0A6959795879577955D
:102530006795BA95C9F700976105710508959B01E4
:10254000AC010A2E06945795479537952795BA956D
:10255000C9F7620F731F841F951FA01D0895F8947B
:02256000FFCFAB
:10256200FF000100202000000000E7E7E7E7E7E7BF
:10257200E7E7E7E74A4A4A4A4A4B4B4B4B4B4C4C3C
:102582004C4C4C4D4D4D4D4D686A6C6EFFFFFFFF3C
:10259200FF01550B66726F6D3A2025642C20656E23
:1025A200656D793A2025642C206869743A20256487
:1025B2002C207465616D3A2025642C20737461743B
:0E25C200653A2025640A0D00FFFFFFFFFF01B0
:00000001FF
