:100000000C9472000C9493000C9493000C94930045
:100010000C9493000C9446030C9493000C9493005E
:100020000C9493000C9493000C9493000C94930004
:100030000C9493000C9493000C9493000C949300F4
:100040000C9493000C949A060C9493000C949300D7
:100050000C9493000C9493000C9493000C949300D4
:100060000C9493000C948B010C9493000C949300CB
:100070000C9493000C9493000C9493000C949300B4
:100080000C9493000C9493000C9493000C949300A4
:100090000C94E2000C9493000C9493000C94930045
:1000A0000C9493000C9493000C9493000C94930084
:1000B0000C9493000C9493000C9493000C94930074
:1000C0000C9493000C9493000C9493000C94930064
:1000D0000C9493000C9493000C9493000C94930054
:1000E0000C94930011241FBECFEFD1E2DEBFCDBF31
:1000F00000E00CBF12E0A0E0B2E0EEEAF8E200E0BF
:100100000BBF02C007900D92A237B107D9F71DE0CF
:10011000A2E7B2E001C01D92AF39B107E1F70E943A
:10012000F20A0C9455140C940000982F8091C8008A
:1001300085FFFCCF9093CE0008959C014FB7F894B3
:10014000809165008E7F809365002130310569F1D3
:1001500021303105B0F483E390E09093CD0080939B
:10016000CC0080E48093C80088E08093C90086E0DA
:100170008093CA008091C8008D7F8093C8004FBFD4
:1001800008952230310519F02330310539F080E12E
:1001900090E09093CD008093CC00E3CF88E090E096
:1001A0009093CD008093CC00DCCF89E190E09093D8
:1001B000CD008093CC00D5CF80919202089510920B
:1001C000920208951F920F920FB60F920BB60F92E4
:1001D00011248F939F93EF93FF93809192029091BC
:1001E000CE00E2E7F2E0E80FF11D908380919202E9
:1001F00090E001968F71907080939202FF91EF9141
:100200009F918F910F900BBE0F900FBE0F901F907C
:100210001895FC018032910524F4EE58FD4F808141
:10022000089580E0089587B1807F87B9AAE7B0E09C
:100230008C9187608C93ECE7F0E080818064808310
:100240008081806280838C9180688C938C918064A3
:100250008C93089590917C00282F2770907F292BF4
:1002600020937C0090917B008870977F982B9093CF
:100270007B0080917A00806480937A0080917A007C
:1002800086FDFCCF809179000895982FF894809195
:10029000C00085FFFCCF9093C60078940895FC01C0
:1002A0008436910524F4EB56FD4F8081089580E05B
:1002B0000895FC019081992361F03196F894809122
:1002C000C00085FFFCCF9093C6007894908199235D
:1002D000A1F708950E94590180E090E008951092DE
:1002E0009402109293021092F9021092C50087E6D0
:1002F0008093C40088E98093C1008EE08093C2009F
:10030000089580919302909194020895109294021E
:100310001092930208951F920F920FB60F920BB690
:100320000F9211242F933F935F936F937F938F933B
:100330009F93AF93BF93EF93FF938091C00087FF8C
:10034000FCCFE0919302F09194028091C600EB56AD
:10035000FD4F80838091930290919402019664E610
:1003600070E00E946B11909394028093930281E05D
:100370008093F902FF91EF91BF91AF919F918F917F
:100380007F916F915F913F912F910F900BBE0F90D6
:100390000FBE0F901F90189584B1807F84B984B1EF
:1003A000876084B9289A80E58CBD81E08DBD28984E
:1003B0000895DC01442399F020E030E0FD01E20FD4
:1003C000F31F80818EBD0DB407FEFDCF8EB5FB01FE
:1003D000E20FF31F80832F5F3F4F241778F30895B8
:1003E000482F662361F09C01F90180818EBD0DB418
:1003F00007FEFDCF31968E2F841B8617B0F308952C
:100400008EBD0DB407FEFDCF8EB50895809100021C
:10041000909101020097E1F020E080FD2F5F96951A
:1004200087950097D1F780E190E0821B910924E63F
:1004300030E0AC01429FC001439F900D529F900D50
:100440001124929582958F7089279F70892708952E
:1004500084E608950F931F9302E011E0F801808174
:100460008F7B80838FEF0E940002F801908190645F
:1004700090831F910F910895CF92DF92EF92FF9298
:100480000F931F937B01C42E02E011E0F8019081CD
:100490009F7B90838F7180620E940002D82EC701DB
:1004A0006C2D0E94F001F8018081806480838D2D85
:1004B0001F910F91FF90EF90DF90CF900895FC0176
:1004C000808180930F0281818093100282818093CA
:1004D000110283818093120284818093130280E150
:1004E000BF0145E00E943C020895EF92FF921F93E6
:1004F000CF93DF937B01EA01122F909102019F7B42
:10050000909302010E940002112339F0209781F09C
:10051000C701BE01412F0E94D90180910201806470
:1005200080930201DF91CF911F91FF90EF9008958A
:10053000C701612F0E94F001F0CF81EE60E070E012
:1005400040E050E020E00E94750282EE60E070E042
:1005500040E050E020E00E94750208950F931F9341
:10056000182F092F1092FA02809102018F7D80933B
:1005700002010E942A0290E08E70907095958795F6
:10058000282FFC01EC5FFD4F8081813268F020E074
:1005900030E0809102018062809302011092FA02A1
:1005A000C9011F910F9108952730B9F0208181E68C
:1005B000612F702F412F502F0E9475020E942A0236
:1005C00090E08E70907095958795873019F424E0AF
:1005D00030E0DFCF23E030E0DCCF22E030E0D9CFE5
:1005E000EF92FF920F931F93582FF62EE72E042FB2
:1005F000442351F0862F972F9C01F9019FEF91938F
:100600008E2F8F198017D8F3809102018F7B8093F2
:100610000201852F8F710E940002182F80E090E068
:100620006F2D7E2D402F0E94D901809102018064A0
:1006300080930201812F1F910F91FF90EF900895F9
:100640000F931F93DF93CF930F92CDB7DEB780E068
:100650008E010F5F1F4FB80141E00E94F0028981B7
:1006600080FD0EC08160898380E0B80141E00E9476
:100670003C0284E091E0FC013197F1F70197F1F73A
:100680000F90CF91DF911F910F9108951F920F92BC
:100690000FB60F920BB60F9211242F933F934F93E7
:1006A0005F936F937F938F939F93AF93BF93EF93DA
:1006B000FF93DF93CF930F92CDB7DEB78091020106
:1006C0008F7E80930201809102018F7D80930201D1
:1006D0000E942A02898390E086FD6FC0898185FF90
:1006E0004BC01092FA0280910402882309F06CC07A
:1006F0000E9420038091000290910102880F991FAF
:100700009093010280930002809100029091010277
:100710008160909301028093000281E090E09093C9
:1007200003028093020280E7898387E0BE016F5F46
:100730007F4F41E00E943C028091020180618093E2
:100740000201809102018062809302010F90CF919B
:10075000DF91FF91EF91BF91AF919F918F917F9129
:100760006F915F914F913F912F910F900BBE0F9022
:100770000FBE0F901F90189584FFD5CF81EE60E0DB
:1007800070E040E050E020E00E9475021092FA0212
:10079000809104028823F9F40E94200380910002D2
:1007A00090910102880F991F90930102809300029B
:1007B0001092030210920202B6CF8E70907095953F
:1007C00087950E944A118ACF8AE06AE072E045E08C
:1007D0000E943C028DCF8AE06AE072E045E00E9410
:1007E0003C02DACFCF92DF92EF92FF920F931F93EA
:1007F000DF93CF930F92CDB7DEB77C016B0181E021
:100800008093FA02809102018F7D8093020180E043
:100810008E010F5F1F4FB80141E00E94F0028981F5
:1008200080FD2DC08AE06FE072E045E00E943C024E
:100830008091020188608093020180EAB70140E064
:1008400050E020E20E947502809102018062809354
:100850000201CD2891F48091FA028823E1F780917A
:100860000202909103020F90CF91DF911F910F919F
:10087000FF90EF90DF90CF90089581E0F4CF8E7FCE
:10088000898380E0B80141E00E943C0284E091E06D
:10089000FC013197F1F70197F1F7C4CFCF92DF92C6
:1008A000EF92FF920F931F93DF93CF930F92CDB7E9
:1008B000DEB77C018B016430710520F482E0E8161C
:1008C000F10450F00F90CF91DF911F910F91FF90A5
:1008D000EF90DF90CF90089586E06E010894C11CE0
:1008E000D11CB60141E00E94F002602F660F8981A1
:1008F00086606823EF2841F4677F698386E0B6014C
:1009000041E00E943C02DECF68606983F7CFAF927E
:10091000BF92CF92DF92EF92FF920F931F93DF93DC
:10092000CF930F92CDB7DEB78C01FB015A01863011
:10093000910508F046C0009709F44FC0982F965FC4
:100940000130110509F472C0A1E1CA2EC80E41E0C0
:10095000892FBF010E943C0281E07E010894E11CC6
:10096000F11CB70141E00E94F00281E090E0002E0E
:1009700002C0880F991F0A94E2F7D82E89818D2929
:10098000898381E0B70141E00E943C02AB28C9F5B0
:1009900019828C2DB70141E00E943C0289810C5FD5
:1009A0001D4FF801808382E0B70141E00E94F00210
:1009B000D09489818D21898382E0B70141E00E9432
:1009C0003C020F90CF91DF911F910F91FF90EF901C
:1009D000DF90CF90BF90AF900895808180930A02FE
:1009E000818180930B02828180930C0283818093AA
:1009F0000D02848180930E0245E09AE081E1C82EC9
:100A0000A7CF80E289838C2DB70141E00E943C0290
:100A100089810C5F1D4FF801808382E0B70141E0BE
:100A20000E94F00289818D298983C6CFB1E1CB2E46
:100A3000C80E45E08DCFDF92EF92FF920F931F9388
:100A4000DF93CF930F92CDB7DEB71092FA02E1E0B9
:100A5000F1E080818861808322E0E22E21E0F22EA5
:100A6000D7018C918F7E8C938C91877F8C938C9106
:100A70008F7D8C938081806280838081806480837D
:100A80006C98EAE6F0E080818260808380818E7FCE
:100A90008083EC9AE49A80EE9BEA0197F1F70E943A
:100AA000CC0183E089838E010F5F1F4FB80141E0C5
:100AB0000E943C0285E1898384E0B80141E00E9404
:100AC0003C0290E7D92ED98285E0B80141E00E942E
:100AD0003C0289E0898386E0B80141E00E943C0243
:100AE0008FE0898380E0B80141E00E943C02D98216
:100AF00087E0B80141E00E943C0281EE60E070E0D6
:100B000040E050E020E00E94750282EE60E070E07C
:100B100040E050E020E00E94750280E49FE10197F0
:100B2000F1F7F7018081806280838081806180831A
:100B30000F90CF91DF911F910F91FF90EF90DF9079
:100B40000895982FECE2F2E08081891749F0319600
:100B500082E0E033F807C1F720E030E0C9010895F2
:100B600021E030E0C9010895EF92FF920F931F93A7
:100B7000CF93DF937C01FC019081892F80588230D4
:100B8000E8F09338D9F09438C9F09E38B9F0892F3D
:100B90000E949500F7018181882381F08701C0E0E0
:100BA000D0E0F80182810E94950021960F5F1F4FCF
:100BB000F701818190E0C817D9079CF3DF91CF91AD
:100BC0001F910F91FF90EF900895FFCFFF93FCB717
:100BD000FF93FFB7F894FF93EF93DF93CF93BF9307
:100BE000AF939F938F937F936F935F934F933F93B5
:100BF0002F931F930F93FF92EF92DF92CF92BF92AA
:100C0000AF929F928F927F926F925F924F923F929C
:100C10002F921F920F928DB79EB7909309038093E6
:100C20000803E091FD02F091FE02E050FF4F808149
:100C300091819EBF8DBF0F901F902F903F904F903E
:100C40005F906F907F908F909F90AF90BF90CF906C
:100C5000DF90EF90FF900F911F912F913F914F9157
:100C60005F916F917F918F919F91AF91BF91CF9144
:100C7000DF91EF91FF91FFBFFF91FCBFFF910895BE
:100C8000FF93FCB7FF93FFB7F894FF93EF93DF93C5
:100C9000CF93BF93AF939F938F937F936F935F9304
:100CA0004F933F932F931F930F93FF92EF92DF92F7
:100CB000CF92BF92AF929F928F927F926F925F92EC
:100CC0004F923F922F921F920F92E091FD02F0916E
:100CD000FE028DB79EB7E050FF4F918380838091D5
:100CE0000803909109039EBF8DBF0F901F902F9016
:100CF0003F904F905F906F907F908F909F90AF90BC
:100D0000BF90CF90DF90EF90FF900F911F912F91A8
:100D10003F914F915F916F917F918F919F91AF9193
:100D2000BF91CF91DF91EF91FF91FFBFFF91FCBF8A
:100D3000FF910895FF93FCB7FF93FFB7F894F06815
:100D4000FF93EF93DF93CF93BF93AF939F938F93D3
:100D50007F936F935F934F933F932F931F930F93C3
:100D6000FF92EF92DF92CF92BF92AF929F928F92BB
:100D70007F926F925F924F923F922F921F920F92AB
:100D8000E091FD02F091FE028DB79EB7E050FF4F5B
:100D90009183808380910803909109039EBF8DBF4A
:100DA00081E090E09093B10C8093B00CE8E8F0E023
:100DB00080819181805F984D918380838091080329
:100DC000909109039EBF8DBF0F901F902F903F9071
:100DD0004F905F906F907F908F909F90AF90BF905B
:100DE000CF90DF90EF90FF900F911F912F913F9147
:100DF0004F915F916F917F918F919F91AF91BF9133
:100E0000CF91DF91EF91FF91FFBFFF91FCBFFF9169
:100E100008950F931F93CF93DF938C01EB01DC01B7
:100E2000ED91FC9111973097E1F16E817F81A0E007
:100E3000B0E001C0FC018091030390910403209174
:100E4000030330910403AB01481B590B8681978142
:100E5000821B930B48175907B8F080859185DF01F5
:100E6000009741F7D8011296ED91FC911397D18725
:100E7000C0871396DC93CE93129719861886DF915C
:100E8000CF911F910F9108951097C9F01996DC9397
:100E9000CE931897F987E887DF91CF911F910F9133
:100EA000089511967C936E9313967C936E9312978C
:100EB00019861886DF91CF911F910F910895D8015F
:100EC000CD93DC93E7CFCF93DF93C091CC0CD0913F
:100ED000CD0C209709F4DFC08091B60C9091B70C2F
:100EE000019709F470C08091B60C9091B70C8F5F98
:100EF0009F4F09F48BC08091CE0C9091CF0CC817F6
:100F0000D90709F4BFC0C45FDE4F88819981CC50F6
:100F1000D1409093CD0C8093CC0CDE01A150BF4FFB
:100F2000FD01B897128280E880A313A28091B20CD1
:100F30009091B30C94A38091B20C9091B30C85A3C3
:100F400016A28AE19AE097A38C93C050DF4FF983F1
:100F5000E883269682E090E0899399938091B40C7F
:100F60009091B50C998388838091B60C9091B70CC1
:100F7000269799838883C250D1408091B60C909176
:100F8000B70C8130910509F446C08230910529F1F2
:100F9000892BB1F58091DC0C9091DD0C892B09F443
:100FA00080C0E091DE0CF091DF0CE45FFE4FD18356
:100FB000C083D093DF0CC093DE0C20E030E0C90189
:100FC000DF91CF9108958091D00C9091D10C892B15
:100FD00009F089CF22E030E015C08091D40C9091C7
:100FE000D50C892B09F468C0E091D60CF091D70C90
:100FF000E45FFE4FD183C083D093D70CC093D60C4F
:1010000020E030E0C901DF91CF910895C091360210
:10101000D091370282CFE091D00CF091D10C309773
:1010200071F08091D20C9091D30CE817F90709F474
:101030004EC0808591859093D10C8093D00C809187
:10104000BE0C9091BF0C978386838091BA0C9091CF
:10105000BB0C938382838091BC0C9091BD0C9583D3
:101060008483D183C083CC5FDE4FF983E88388ED2E
:101070009CE0BF010E94090720E030E0C901DF9138
:10108000CF9108951092CF0C1092CE0C1092CD0CEF
:101090001092CC0C42CF21E030E0C901DF91CF911A
:1010A0000895D093DD0CC093DC0CD093DF0CC0937B
:1010B000DE0C20E030E0A6CFD093D50CC093D40C4A
:1010C000D093D70CC093D60C20E030E09BCF109289
:1010D000D30C1092D20C1092D10C1092D00CAFCF36
:1010E0000F931F9380918100826080938100EEE0D6
:1010F000F4E013821282CF010A96918780871182D1
:101100001082E25FFE4F8CE0EE37F80791F7118610
:1011100010861092790B1092780B13821282118232
:10112000108228E83CE0F9011782168215821482A9
:101130001382128211821082CF010A9691878087D2
:10114000FC018CE0E63AF80779F7118210821186EB
:1011500010861782168215821482138212820AE088
:1011600013E01093CD0C0093CC0C8CE69AE0909396
:10117000CF0C8093CE0C3093D10C2093D00CF093F5
:10118000D30CE093D20C1092D90C1092D80C109280
:10119000DB0C1092DA0C1092D50C1092D40C109239
:1011A000D70C1092D60C1092DD0C1092DC0C109221
:1011B000DF0C1092DE0C85EE95E09093B30C8093DB
:1011C000B20C8FEF9FEF9093B70C8093B60C1092F8
:1011D000B50C1092B40C0E94630785E29FE09093D7
:1011E000B30C8093B20C1092B70C1092B60C109204
:1011F000B50C1092B40C0E9463071093FE0200938A
:10120000FD0281E090E09093110480931004E0913E
:10121000DC0CF091DD0C309779F08091DE0C909130
:10122000DF0CE817F907E1F0E45FFE4F8081918160
:101230009093DD0C8093DC0C80916F008260809332
:101240006F008091840090918500805F984D90930D
:1012500089008093880082E086BB1F910F910895DA
:101260001092DF0C1092DE0C1092DD0C1092DC0C50
:10127000E3CFF89480E884B980913502882309F09F
:101280004DC0709135027F5FF0E840E951E0F5B95B
:1012900060E02AEF30E0CA010197F1F721503040B9
:1012A000D1F76F5F6436A9F715B860E02AEF30E038
:1012B000CA010197F1F721503040D1F76F5F6832D2
:1012C000A9F77723F1F0E0E0F5B960E02AEF30E02C
:1012D000CA010197F1F721503040D1F76F5F6A30B2
:1012E000A9F715B860E02AEF30E0CA010197F1F7DD
:1012F00021503040D1F76F5F6A30A9F7EF5FE717F1
:1013000018F360E02AEF30E0CA010197F1F72150AD
:101310003040D1F76F5F6431A9F7B9CF70913502D2
:101320007150B2CFE091D80CF091D90C309781F187
:10133000A091DA0CB091DB0CEA17FB0711F12681C2
:1013400037810084F185E02D868197812817390740
:1013500079F0809103039091040340E02817390746
:1013600009F041E081E04827242F30E0C9010895C9
:1013700086E0809335020E943909A091D80CB09183
:10138000D90C109729F016962D913C911797E1CF23
:1013900020E030E0C90108958091FB029091FC02A9
:1013A0000197B1F18091DC0C9091DD0C892B51F00B
:1013B000E091FD02F091FE02EE5FFE4F808191818F
:1013C000892B71F40E949209892B71F0E091FD0242
:1013D000F091FE02EE5FFE4F80819181029724F032
:1013E00021E030E0C90108958091D40C9091D50C92
:1013F000892B71F020E030E0E091FD02F091FE02D7
:10140000EE5FFE4F80819181039754F7C9010895E3
:1014100020E030E0C90108951F931FB7F89484E0DD
:1014200090E09093B10C8093B00C0E9440061FBFD7
:101430001F9108951F931FB7F89483E090E0909355
:10144000B10C8093B00C0E9440061FBF1F910895FD
:10145000E091FD02F091FE02E85FFE4F80819181F4
:1014600008951F931FB7F8949093B30C8093B20C18
:101470007093B50C6093B40C5093B70C4093B60CBA
:1014800082E090E09093B10C8093B00C0E944006F3
:101490002091C20C3091C30C1FBFC9011F91089548
:1014A00040E050E00E94310A089542E050E00E947E
:1014B000310A0895AF92BF92CF92DF92EF92FF92DE
:1014C0000F931F93CF93DF936C015B01EA017901C6
:1014D0004115510519F02417350728F084E0809351
:1014E00035020E943909D093BB0CC093BA0C1093FB
:1014F000BF0C0093BE0CF092BD0CE092BC0CC60178
:10150000B50141E050E00E94310ADF91CF911F9177
:101510000F91FF90EF90DF90CF90BF90AF90089524
:101520001F931FB7F89486E090E09093B10C8093DE
:10153000B00C0E9440061FBF8091C40C9091C50C56
:101540001F9108951F931FB7F8949093C70C809331
:10155000C60C7093C90C6093C80C87E090E0909320
:10156000B10C8093B00C0E9440061FBF1F910895DC
:101570001F931FB7F8949093C70C8093C60C709379
:10158000CB0C6093CA0C88E090E09093B10C8093F0
:10159000B00C0E9440061FBF1F91089581E090E0AB
:1015A0009093FC028093FB020895E0910303F09175
:1015B000040380918400909185002091050330916F
:1015C0000603821B930B60ED77E00E945711CF0159
:1015D000880F991F880F991F8E0F9F1F680F791F03
:1015E000CB0108952F923F924F925F926F927F921C
:1015F0008F929F92AF92BF92CF92DF92EF92FF9223
:101600000F931F93CF93DF930E947008E0903602F0
:10161000F0903702A091FD02B091FE0231E0C32E9E
:10162000D12C28E0822E02E010E092E0992E89E091
:10163000582EF3E06F2E712CEBE04E2E7AE0372E11
:101640006CE0B62E5DE0A52E45E0242E1AC0C13018
:10165000D10509F4F5C1C130D10558F0C230D1052A
:1016600009F475C1239709F444C1909235020E9490
:101670003909A091FD02B091FE021092B10C1092B6
:10168000B00C109709F45CC2AA5FBE4F8D919C917B
:101690001197A650B140019709F4CCC0E091DC0C41
:1016A000F091DD0C309709F4D7C08091DE0C909159
:1016B000DF0CE817F90709F43AC2E45FFE4F8081B6
:1016C0009181EC50F1409093DD0C8093DC0CF09311
:1016D000FE02E093FD02E091FD02F091FE02EA5F5E
:1016E000FE4FD182C0821092FC021092FB020E9437
:1016F000E605C091B00CD091B10CC430D10509F40D
:10170000EBC1C530D10508F4A2CFC630D10509F42C
:101710007CC1C630D10508F4ACCFC730D10509F47F
:101720003BC1289709F0A1CFC091C60CD091C70C3E
:10173000209709F4EEC2A881B981109709F447C037
:101740008A819B818A179B0709F4CEC0A45FBE4F94
:101750008D919C911197AC50B14099838883809171
:10176000CA0C9091CB0CA65FBE4FED91FC911197E6
:1017700091838083149711961C930E9314978D91E7
:101780009C911197A250B1408130910509F4A7C0F6
:101790008230910509F48FC0892B09F087C08091B0
:1017A000DC0C9091DD0C892B09F4CFC1E091DE0CAB
:1017B000F091DF0CE45FFE4FB183A083B093DF0CA8
:1017C000A093DE0CA881B981109709F0B9CF0E94CF
:1017D000CC09892B09F44DCFA091FD02B091FE02F6
:1017E000AA5FBE4F11961C930E9314978D919C91F6
:1017F0001197A250B1408130910509F46FC2823037
:10180000910509F44FC2892B09F037CF8091DC0C88
:101810009091DD0C892B09F48AC2E091DE0CF091E5
:10182000DF0CE45FFE4FB183A083B093DF0CA09385
:10183000DE0C23CFAE15BF0509F055CF8091FB021A
:101840009091FC02892B09F04ECFE091DC0CF091D5
:10185000DD0C309709F029CF0E949209892B09F4F9
:1018600007C2E091D80CF091D90C309771F08091BB
:10187000DA0C9091DB0CE817F90709F46FC2808548
:1018800091859093D90C8093D80CF0930003E0934A
:10189000FF02808191819093FE028093FD028481FA
:1018A0009581909302038093010315CFA092350296
:1018B0000E94390940CF8091D40C9091D50C892B8E
:1018C00009F44CC1E091D60CF091D70CE45FFE4FC7
:1018D000B183A083B093D70CA093D60C2CCFB09239
:1018E00035020E94390927CF1B821A821982188279
:1018F00036CFA091FD02B091FE02EA16FB0609F474
:10190000BCCEAA5FBE4F11961C921E9214978D9169
:101910009C911197A250B140019709F46EC180913A
:10192000CC0C9091CD0C892B09F483C1E091CE0CA5
:10193000F091CF0CE45FFE4FB183A083B093CF0C46
:10194000A093CE0CA091FD02B091FE0296CE0E9413
:1019500063079093C30C8093C20C8091C20C90914A
:10196000C30C892B09F403C18091C20C9091C30C64
:10197000019709F4C0C18091C20C9091C30C0297E9
:1019800009F077CE83E0809335020E943909A09157
:10199000FD02B091FE0271CEC091C60CD091C70C71
:1019A000209709F4BBC1A091FD02B091FE02AE5F89
:1019B000BE4F8D919C911197A250B140019709F4AF
:1019C00084C1A65FBE4F8091C80C9091C90C11963E
:1019D0009C938E93AA50B14088819981892B09F4F8
:1019E00093C1EA81FB81E45FFE4FB183A083BB8397
:1019F000AA83A091FD02B091FE02AA5FBE4F11968C
:101A00007C926E92A650B14038CE209107032A30C6
:101A100008F0EAC0822F90E0880F991F880F991F65
:101A2000880F991F8052934F9093C50C8093C40CDC
:101A30002F5F20930703A091FD02B091FE021DCEFF
:101A40008091030390910403019690930403809383
:101A50000303809184009091850090930603809306
:101A60000503A091FD02B091FE02AE5FBE4F8D91C5
:101A70009C911197A250B140019709F4A0C0AE5FAC
:101A8000BE4F2D913C911197A250B14022303105AB
:101A900009F0F3CDFD01EA5FFE4F8081918101974E
:101AA00009F0EBCD318320838091D40C9091D50C3B
:101AB000892B09F445C1E091D60CF091D70CE45F75
:101AC000FE4FB183A083B093D70CA093D60CA09106
:101AD000FD02B091FE02D1CDA091FD02B091FE02B7
:101AE000AA5FBE4F11961C930E9314978D919C91F3
:101AF0001197A250B1408130910509F4A3C0823002
:101B0000910509F080CE8091D40C9091D50C892B51
:101B100009F416C1E091D60CF091D70CE45FFE4FAA
:101B2000B183A083B093D70CA093D60CA6CD10920E
:101B3000DF0C1092DE0C1092DD0C1092DC0CC7CD85
:101B4000809235020E943909CECDB093DD0CA0936E
:101B5000DC0CB093DF0CA093DE0CEDCDB093D50C74
:101B6000A093D40CB093D70CA093D60CE4CD0E94D4
:101B7000CC09892B09F4F8CEA091FD02B091FE02A8
:101B8000AA5FBE4F1196DC93CE9314978D919C91D2
:101B90001197A250B1408230910509F483C001979A
:101BA00009F06BCDAC5FBE4F6D917C9188ED9CE0F0
:101BB0000E940907A091FD02B091FE025ECD8091C6
:101BC0000103909102030197909302038093010314
:101BD000892B09F054CF209235020E943909A09137
:101BE000FD02B091FE024BCF509235020E9439099E
:101BF000A091FD02B091FE0240CDAC5FBE4FED91D1
:101C0000FC911197A450B140309709F488CE11820D
:101C1000108280ED9CE0BF010E940907A091FD02A7
:101C2000B091FE028091CC0C9091CD0C892B09F0E3
:101C30007DCEB093CD0CA093CC0CB093CF0CA093E1
:101C4000CE0C1BCDE091FF02F091000386819781BD
:101C500022813381820F931F9783868388ED9CE0D6
:101C6000BF010E940907A091FD02B091FE0205CDBF
:101C7000E091D40CF091D50C309709F46AC08091B2
:101C8000D60C9091D70CE817F90709F480C0E45FEF
:101C9000FE4F80819181EC50F1409093D50C809360
:101CA000D40C15CD8091D40C9091D50C009709F4EB
:101CB0005EC0A45FBE4F11969C938E93AC50B14012
:101CC000B093D50CA093D40CD8CC409235020E948E
:101CD0003909A091FD02B091FE02CFCC6091FF02C4
:101CE0007091000388ED9CE00E940907A091FD021D
:101CF000B091FE02C2CC909235020E943909A091A7
:101D0000FD02B091FE02B9CCB983A883BB83AA833C
:101D100070CE309235020E94390959CD3092350289
:101D20000E943909A091FD02B091FE02A6CCB093A9
:101D3000DD0CA093DC0CB093DF0CA093DE0C9DCCEB
:101D4000B093D50CA093D40CB093D70CA093D60C21
:101D500094CCF092FE02E092FD02BDCC1092DB0C1E
:101D60001092DA0C1092D90C1092D80C8ECDB09340
:101D7000D70CA093D60CB093D50CA093D40CA45F31
:101D8000BE4F11961C921E92AC50B14076CC109270
:101D9000D70C1092D60C1092D50C1092D40C97CC74
:101DA000FFCF8B3469F08C3428F08C3459F08D34AB
:101DB00029F008958A34E9F780E0089583E00895D2
:101DC00081E0089582E0089510927F0D1092800DB9
:101DD0001092820D1092810D1092830D1092840D3D
:101DE0001092860D81E08093870D84E08093880DAA
:101DF00021E030E030938A0D2093890D10928B0DF5
:101E000010928C0D10928E0D82E080938F0D88E0E1
:101E10008093900D3093920D2093910D1092930D1D
:101E20001092940D1092960D83E08093970D8CE0A4
:101E30008093980D30939A0D2093990D10929B0DDD
:101E400010929C0D10929E0D08950F931F93279A48
:101E5000269A259A249A80910A01846080930A0127
:101E600080910B018B7F80930B0128E833E140E9DF
:101E700051E0CA010197F1F721503040D1F780912C
:101E80000B01846080930B0128E833E140E951E0C5
:101E9000CA010197F1F721503040D1F70E941B058C
:101EA00080E090E06CE672E041E050E00E94870440
:101EB00080E090E063E070E00E944E040E94900A8F
:101EC00090933E0D80933D0D0E946F010E9413017F
:101ED0000E94E40E83EF90E161E070E044E150E0A5
:101EE0002FE030E00AEF10E00E945A0A81E89FE0FC
:101EF00060E070E00E94550A80E090E01F910F9131
:101F000008956F927F928F929F92AF92BF92CF92DD
:101F1000DF92FF920F931F93DF93CF93CDB7DEB77E
:101F2000C154D0400FB6F894DEBF0FBECDBF5E01E6
:101F30000894A11CB11CB0E16B2E712C6C0E7D1E9F
:101F4000A8E3CA2EA2E0DA2EF3E08F2E912C8C0E9D
:101F50009D1E80913D0D90913E0DB5010E94A20AFB
:101F60002C9A8FE59DE00E94AE028330D1F32DB70D
:101F70003EB72E5030400FB6F8943EBF0FBE2DBF77
:101F8000EDB7FEB73196ADB7BEB712967C926E92A2
:101F90001197D382C28280916A0D848315828091C9
:101FA0006E0D8683178280916D0D808711868091DA
:101FB0006B0D8287138680916C0D848715860E9435
:101FC0007E11D401E2E6FDE08DE001900D9281509A
:101FD000E1F78B850F85EDB7FEB73E960FB6F89407
:101FE000FEBF0FBEEDBFFE84F1E0FF1649F09091F9
:101FF0007102943009F440C02C980E940C0AA9CFB9
:102000000E94D10E182F802F0E94D10E982F212FC1
:1020100030E0B901660F771F660F771FFB01EE0FE7
:10202000FF1FEF57F24F0190F081E02DE130F105F5
:1020300089F1309741F5482F50E0FA01EE0FFF1F6C
:10204000EE0FFF1FEE0FFF1FEF57F24F80819181C0
:10205000019709F470C090917102FA01EE0FFF1F11
:10206000EE0FFF1FEE0FFF1FE158F24F87818F5FCA
:102070008783943009F0C0CF80ED9EE060E070E08F
:102080000E94500AB9CF319751F1492F50E09091F9
:102090007102E3CFD901AA0FBB1FAA0FBB1FAA0F62
:1020A000BB1FAD57B24F8C91882369F7492F50E081
:1020B000CA018C01FA01EE0FFF1FEE0FFF1FEE0F9A
:1020C000FF1FEF57F24F80819181892B21F4FC9201
:1020D00090917102C2CFA80190917102BECF492F99
:1020E00050E0CA018C01D901AA0FBB1FAA0FBB1F68
:1020F000AA0FBB1FAD57B24F8C91813061F7FA0127
:10210000EE0FFF1FEE0FFF1FEE0FFF1FEF57F24FF7
:1021100080819181892B09F09ECF660F771F6F57C1
:10212000724FFB01118210821C92909171029F5F8D
:102130009093710292CF220F331F220F331F220F71
:10214000331FF901ED57F24FF082F901E158F24FD8
:1021500085818A5F858316827ECFFF920F931F93BE
:10216000F82E162F042F85E0F89EC00111248C5EF6
:102170009D4F0E945F021093350D0093360DF09233
:10218000380DAF2DB0E0AA0FBB1FAA0FBB1FAA0FBF
:10219000BB1FFD01EF57F24F80818093390DAD5782
:1021A000B24F8C9180933A0DA2E4BDE0ECE6F2E0F0
:1021B00085E001900D928150E1F7A2E4BDE0E0E3FB
:1021C000FDE08DE001900D928150E1F78FE39DE0FD
:1021D00060E070E00E94F20385B1805885B91F91DC
:1021E0000F91FF900895EF92FF920F931F93CF935B
:1021F000DF93FF242D9A0F2D10E0E801CC0FDD1F97
:10220000CC0FDD1FCC0FDD1FC158D24F89810E943A
:102210002A01E82E89818F5F0E942A01482FF80148
:10222000EE0FFF1FEE0FFF1FEE0FFF1FEF57F24FD6
:1022300080819181892B61F4F801EE0FFF1FEE0F71
:10224000FF1FEE0FFF1FED57F24F8081813069F0C5
:102250008F2D6E2D20E00E94AD102D980E940C0A4B
:10226000F39483E08F1528F2C5CF9E818D81981756
:1022700040F010821E828F2D6E2D20E00E94AD1046
:10228000ECCF9F5F9E838F2D6FE74FE720E00E948A
:10229000AD10E3CF85B190E4892785B980913D0DDC
:1022A00090913E0D61E070E00E94B80A0895AA1B6B
:1022B000BB1B51E107C0AA1FBB1FA617B70710F031
:1022C000A61BB70B881F991F5A95A9F78095909563
:1022D000BC01CD01089597FB092E07260AD077FD92
:1022E00004D0E5DF06D000201AF4709561957F4F89
:1022F0000895F6F7909581959F4F08950F931F933A
:10230000DF93CF93CDB7DEB72E970FB6F894DEBF2D
:102310000FBECDBF0E891F8986E08C831A83098387
:102320008FEF9FE79E838D839E01265E3F4FCE01F8
:102330000196688D798DA9010E94AF112F81388592
:10234000020F131FF80110822E960FB6F894DEBF0D
:102350000FBECDBFCF91DF911F910F9108952F92A6
:102360003F924F925F926F927F928F929F92AF9225
:10237000BF92CF92DF92EF92FF920F931F93DF9362
:10238000CF93CDB7DEB72B970FB6F894DEBF0FBE55
:10239000CDBF3C012B015A01FC01178216828381BB
:1023A00081FD03C06FEF7FEFC6C19AE0892E1E0149
:1023B0000894211C311CF3012381F20123FD859136
:1023C00023FF81912F01882309F4B2C1853239F4AA
:1023D00023FD859123FF81912F01853229F490E01F
:1023E000B3010E94CB13E7CF982FFF24EE2499244A
:1023F000FFE1FF15D0F09B3269F09C3228F4903257
:1024000059F0933291F40EC09D3249F0903369F443
:1024100041E024C052E0F52A84E0F82A28C098E080
:10242000F92A25C0E0E1FE2A22C0F7FC29C0892F45
:1024300080538A3070F4F6FE05C0989C902C1124CD
:10244000980E15C0E89CE02C1124E80EF0E2FF2A5B
:102450000EC09E3229F4F6FC6BC140E4F42A07C09A
:102460009C3619F450E8F52A02C0983649F4F20176
:1024700023FD959123FF91912F01992309F0B8CF66
:10248000892F8554833018F08052833038F444E02B
:1024900050E0A40EB51E5FE359830FC0933631F0B0
:1024A000933779F0933509F056C020C0F50180814B
:1024B000898342E050E0A40EB51E610101E010E006
:1024C00012C0F501C080D180F6FC03C06FEF7FEF32
:1024D00002C0692D70E042E050E0A40EB51EC601B6
:1024E0000E94C0138C015FE7F52214C0F501C08083
:1024F000D180F6FC03C06FEF7FEF02C0692D70E062
:1025000042E050E0A40EB51EC6010E94B5138C0136
:1025100050E8F52AF3FE07C01AC080E290E0B3014C
:102520000E94CB13EA948E2D90E008171907A8F3A8
:102530000EC0F601F7FC8591F7FE81916F0190E0E6
:10254000B3010E94CB13E110EA9401501040011531
:10255000110579F7EAC0943611F0993669F5F7FE5E
:1025600008C0F501208131814281538184E090E0EF
:102570000AC0F501808191819C01442737FD409577
:10258000542F82E090E0A80EB91E9FE6F92257FF73
:1025900009C050954095309521953F4F4F4F5F4F63
:1025A000E0E8FE2ACA01B901A1012AE030E00E9458
:1025B000F713D82ED21840C0953729F41F2D1F7E4F
:1025C0002AE030E01DC01F2D197F9F3661F0903743
:1025D00020F4983509F0ACC00FC0903739F0983727
:1025E00009F0A6C004C028E030E00AC0106114FD64
:1025F000146020E130E004C014FD166020E132E0F8
:1026000017FF08C0F501608171818281938144E0E8
:1026100050E008C0F50180819181BC0180E090E02C
:1026200042E050E0A40EB51EA1010E94F713D82E7F
:10263000D2188FE7F82EF122F6FE0BC05EEFF522DE
:10264000D91438F4F4FE07C0F2FC05C08FEEF8226E
:1026500002C01D2D01C0192DF4FE0DC0FE01ED0DAF
:10266000F11D8081803319F499EEF92208C01F5FB3
:10267000F2FE05C003C08F2D867809F01F5F0F2D75
:10268000F3FC14C0F0FE0FC01E1510F09D2C0BC003
:102690009D2C9E0C911A1E2D06C080E290E0B30185
:1026A0000E94CB131F5F1E15C0F304C01E1510F44B
:1026B000E11A01C0EE2404FF0FC080E390E0B301F3
:1026C0000E94CB1302FF1DC001FD03C088E790E00C
:1026D0000EC088E590E00BC0802F867891F001FF56
:1026E00002C08BE201C080E2F7FC8DE290E0B30112
:1026F0000E94CB1306C080E390E0B3010E94CB138D
:102700009A94D914C0F3DA94F101ED0DF11D808192
:1027100090E0B3010E94CB13DD20A9F706C080E250
:1027200090E0B3010E94CB13EA94EE20C1F743CEB0
:10273000F30166817781CB012B960FB6F894DEBF4B
:102740000FBECDBFCF91DF911F910F91FF90EF9002
:10275000DF90CF90BF90AF909F908F907F906F90C1
:102760005F904F903F902F900895FC01059061502D
:1027700070400110D8F7809590958E0F9F1F089597
:10278000FC016150704001900110D8F78095909540
:102790008E0F9F1F08950F931F93CF93DF938C018C
:1027A000EB018B8181FF1BC082FF0DC02E813F8119
:1027B0008C819D812817390764F4E881F9810193A0
:1027C000F983E88306C0E885F985802F1995892B60
:1027D00031F48E819F8101969F838E8302C00FEF1B
:1027E0001FEFC801DF91CF911F910F910895FA015A
:1027F000AA27283051F1203181F1E8946F936E7F40
:102800006E5F7F4F8F4F9F4FAF4FB1E03ED0B4E030
:102810003CD0670F781F891F9A1FA11D680F791F71
:102820008A1F911DA11D6A0F711D811D911DA11D82
:1028300020D009F468943F912AE0269F1124301992
:10284000305D3193DEF6CF010895462F4770405D2D
:102850004193B3E00FD0C9F7F6CF462F4F70405DDC
:102860004A3318F0495D31FD4052419302D0A9F737
:10287000EACFB4E0A6959795879577956795BA9531
:10288000C9F700976105710508959B01AC010A2EF7
:1028900006945795479537952795BA95C9F7620FCE
:0E28A000731F841F951FA01D0895F894FFCF8D
:1028AE00FF000100202000000000E7E7E7E7E7E770
:1028BE00E7E7E7E74A4A4A4A4A4B4B4B4B4B4C4CED
:1028CE004C4C4C4D4D4D4D4D686A6C6E4A4B4C4DBB
:1028DE00FFFFFFFFFF017A0B66726F6D3A202564D2
:1028EE002C20656E656D793A2025642C20686974FC
:1028FE003A2025642C207465616D3A2025642C20C5
:10290E0073746174653A2025640A0D00FFFFFFFFA2
:02291E00FF01B7
:00000001FF
