:100000000C9472000C9493000C9493000C94930045
:100010000C9493000C94C8020C9493000C949300DD
:100020000C9493000C9493000C9493000C94930004
:100030000C9493000C9493000C9493000C949300F4
:100040000C9493000C94D8050C9493000C9493009A
:100050000C9493000C9493000C9493000C949300D4
:100060000C9493000C940D010C9493000C94930049
:100070000C9493000C9493000C9493000C949300B4
:100080000C9493000C9493000C9493000C949300A4
:100090000C9493000C9493000C9493000C94930094
:1000A0000C9493000C9493000C9493000C94930084
:1000B0000C9493000C9493000C9493000C94930074
:1000C0000C9493000C9493000C9493000C94930064
:1000D0000C9493000C9493000C9493000C94930054
:1000E0000C94930011241FBECFEFD1E2DEBFCDBF31
:1000F00000E00CBF12E0A0E0B2E0E6ECF4E200E0C9
:100100000BBF02C007900D92AC34B107D9F71DE0C8
:10011000ACE4B2E001C01D92AC34B107E1F70E943B
:10012000300A0C9461120C94000087B1807F87B96B
:10013000AAE7B0E08C9187608C93ECE7F0E08081D7
:10014000806480838081806280838C9180688C93BE
:100150008C9180648C93089590917C00282F277057
:10016000907F292B20937C0090917B008870977F53
:10017000982B90937B0080917A00806480937A0022
:1001800080917A0086FDFCCF809179000895982FA8
:10019000F8948091C00085FFFCCF9093C6007894BE
:1001A0000895FC018436910524F4E25BFD4F8081C3
:1001B000089580E00895FC019081992361F03196C3
:1001C000F8948091C00085FFFCCF9093C60078948E
:1001D00090819923A1F708950E94DB0080E090E0D0
:1001E000089510924D0210924C021092B202109299
:1001F000C50087E68093C40088E98093C1008EE043
:100200008093C200089580914C0290914D02089510
:1002100010924D0210924C0208951F920F920FB649
:100220000F920BB60F9211242F933F935F936F930E
:100230007F938F939F93AF93BF93EF93FF9380919F
:10024000C00087FFFCCFE0914C02F0914D028091FD
:10025000C600E25BFD4F808380914C0290914D027D
:10026000019664E670E00E94770F90934D028093B0
:100270004C0281E08093B202FF91EF91BF91AF9168
:100280009F918F917F916F915F913F912F910F90EF
:100290000BBE0F900FBE0F901F90189584B1807FFA
:1002A00084B984B1876084B9289A80E58CBD81E0E7
:1002B0008DBD28980895DC01442399F020E030E0BA
:1002C000FD01E20FF31F80818EBD0DB407FEFDCF4F
:1002D0008EB5FB01E20FF31F80832F5F3F4F241782
:1002E00078F30895482F662361F09C01F90180811D
:1002F0008EBD0DB407FEFDCF31968E2F841B861761
:10030000B0F308958EBD0DB407FEFDCF8EB50895F0
:1003100080910002909101020097E1F020E080FDC1
:100320002F5F969587950097D1F780E190E0821B2B
:10033000910924E630E0AC01429FC001439F900D3B
:10034000529F900D1124929582958F7089279F70EE
:100350008927089584E608950F931F9302E011E022
:10036000F80180818F7B80838FEF0E948201F801EA
:100370009081906490831F910F910895CF92DF92A6
:10038000EF92FF920F931F937B01C42E02E011E0C6
:10039000F80190819F7B90838F7180620E9482011F
:1003A000D82EC7016C2D0E947201F80180818064F3
:1003B00080838D2D1F910F91FF90EF90DF90CF9054
:1003C0000895FC01808180930F0281818093100247
:1003D00082818093110283818093120284818093B1
:1003E000130280E1BF0145E00E94BE010895EF9233
:1003F000FF921F93CF93DF937B01EA01122F90911D
:1004000002019F7B909302010E948201112339F027
:10041000209781F0C701BE01412F0E945B018091AE
:100420000201806480930201DF91CF911F91FF90C0
:10043000EF900895C701612F0E947201F0CF81EE05
:1004400060E070E040E050E020E00E94F70182EEC2
:1004500060E070E040E050E020E00E94F701089585
:100460000F931F93182F092F1092B302809102014E
:100470008F7D809302010E94AC0190E08E7090709D
:1004800095958795282FFC01EC5FFD4F8081813287
:1004900068F020E030E080910201806280930201E8
:1004A0001092B302C9011F910F9108952730B9F03E
:1004B000208181E6612F702F412F502F0E94F7017C
:1004C0000E94AC0190E08E70907095958795873072
:1004D00019F424E030E0DFCF23E030E0DCCF22E08D
:1004E00030E0D9CFEF92FF920F931F93582FF62E43
:1004F000E72E042F442351F0862F972F9C01F901FA
:100500009FEF91938E2F8F198017D8F3809102015E
:100510008F7B80930201852F8F710E948201182F9B
:1005200080E090E06F2D7E2D402F0E945B01809136
:100530000201806480930201812F1F910F91FF902F
:10054000EF9008950F931F93DF93CF930F92CDB742
:10055000DEB780E08E010F5F1F4FB80141E00E94BF
:100560007202898180FD0EC08160898380E0B801BC
:1005700041E00E94BE0184E091E0FC013197F1F777
:100580000197F1F70F90CF91DF911F910F9108958F
:100590001F920F920FB60F920BB60F9211242F934A
:1005A0003F934F935F936F937F938F939F93AF93FB
:1005B000BF93EF93FF93DF93CF930F92CDB7DEB747
:1005C000809102018F7E80930201809102018F7DD4
:1005D000809302010E94AC01898390E086FD6FC088
:1005E000898185FF4BC01092B30280910402882359
:1005F00009F06CC00E94A202809100029091010259
:10060000880F991F9093010280930002809100024D
:10061000909101028160909301028093000281E039
:1006200090E0909303028093020280E7898387E041
:10063000BE016F5F7F4F41E00E94BE0180910201C9
:1006400080618093020180910201806280930201A7
:100650000F90CF91DF91FF91EF91BF91AF919F915B
:100660008F917F916F915F914F913F912F910F905B
:100670000BBE0F900FBE0F901F90189584FFD5CF23
:1006800081EE60E070E040E050E020E00E94F70181
:100690001092B302809104028823F9F40E94A2020E
:1006A0008091000290910102880F991F909301029E
:1006B000809300021092030210920202B6CF8E7055
:1006C0009070959587950E94560F8ACF8AE06AE0D0
:1006D00072E045E00E94BE018DCF8AE06AE072E0E0
:1006E00045E00E94BE01DACFCF92DF92EF92FF92F7
:1006F0000F931F93DF93CF930F92CDB7DEB77C019B
:100700006B0181E08093B302809102018F7D809321
:10071000020180E08E010F5F1F4FB80141E00E948F
:100720007202898180FD2DC08AE06FE072E045E0B1
:100730000E94BE018091020188608093020180EADC
:10074000B70140E050E020E20E94F70180910201F1
:10075000806280930201CD2891F48091B3028823B6
:10076000E1F780910202909103020F90CF91DF9107
:100770001F910F91FF90EF90DF90CF90089581E04F
:10078000F4CF8E7F898380E0B80141E00E94BE01F2
:1007900084E091E0FC013197F1F70197F1F7C4CFC4
:1007A000CF92DF92EF92FF920F931F93DF93CF933D
:1007B0000F92CDB7DEB77C018B016430710520F458
:1007C00082E0E816F10450F00F90CF91DF911F9175
:1007D0000F91FF90EF90DF90CF90089586E06E012B
:1007E0000894C11CD11CB60141E00E947202602F26
:1007F000660F898186606823EF2841F4677F6983EB
:1008000086E0B60141E00E94BE01DECF68606983E8
:10081000F7CFAF92BF92CF92DF92EF92FF920F93FA
:100820001F93DF93CF930F92CDB7DEB78C01FB01FF
:100830005A018630910508F046C0009709F44FC070
:10084000982F965F0130110509F472C0A1E1CA2EFC
:10085000C80E41E0892FBF010E94BE0181E07E01E8
:100860000894E11CF11CB70141E00E94720281E092
:1008700090E0002E02C0880F991F0A94E2F7D82E4C
:1008800089818D29898381E0B70141E00E94BE0101
:10089000AB28C9F519828C2DB70141E00E94BE0139
:1008A00089810C5F1D4FF801808382E0B70141E030
:1008B0000E947202D09489818D21898382E0B701E0
:1008C00041E00E94BE010F90CF91DF911F910F91E7
:1008D000FF90EF90DF90CF90BF90AF900895808110
:1008E00080930A02818180930B02828180930C02A3
:1008F000838180930D02848180930E0245E09AE00B
:1009000081E1C82EA7CF80E289838C2DB70141E019
:100910000E94BE0189810C5F1D4FF801808382E037
:10092000B70141E00E94720289818D298983C6CF77
:10093000B1E1CB2EC80E45E08DCFDF92EF92FF9252
:100940000F931F93DF93CF930F92CDB7DEB7109223
:10095000B302E1E0F1E080818861808322E0E22E51
:1009600021E0F22ED7018C918F7E8C938C91877F22
:100970008C938C918F7D8C93808180628083808129
:10098000806480836C98EAE6F0E0808182608083F6
:1009900080818E7F8083EC9AE49A80EE9BEA0197B7
:1009A000F1F70E944E0183E089838E010F5F1F4F94
:1009B000B80141E00E94BE0185E1898384E0B8016D
:1009C00041E00E94BE0190E7D92ED98285E0B801AE
:1009D00041E00E94BE0189E0898386E0B80141E0E0
:1009E0000E94BE018FE0898380E0B80141E00E944F
:1009F000BE01D98287E0B80141E00E94BE0181EECC
:100A000060E070E040E050E020E00E94F70182EEFC
:100A100060E070E040E050E020E00E94F70180E4F8
:100A20009FE10197F1F7F7018081806280838081E7
:100A3000806180830F90CF91DF911F910F91FF9084
:100A4000EF90DF900895FFCFFF93FCB7FF93FFB7C0
:100A5000F894FF93EF93DF93CF93BF93AF939F935C
:100A60008F937F936F935F934F933F932F931F9336
:100A70000F93FF92EF92DF92CF92BF92AF929F922D
:100A80008F927F926F925F924F923F922F921F921E
:100A90000F928DB79EB79093C2028093C102E091EE
:100AA000B602F091B702E050FF4F808191819EBF66
:100AB0008DBF0F901F902F903F904F905F906F9041
:100AC0007F908F909F90AF90BF90CF90DF90EF90EE
:100AD000FF900F911F912F913F914F915F916F91D7
:100AE0007F918F919F91AF91BF91CF91DF91EF91C6
:100AF000FF91FFBFFF91FCBFFF910895FF93FCB7EB
:100B0000FF93FFB7F894FF93EF93DF93CF93BF93D7
:100B1000AF939F938F937F936F935F934F933F9385
:100B20002F931F930F93FF92EF92DF92CF92BF927A
:100B3000AF929F928F927F926F925F924F923F926D
:100B40002F921F920F92E091B602F091B7028DB7EB
:100B50009EB7E050FF4F918380838091C1029091B6
:100B6000C2029EBF8DBF0F901F902F903F904F905D
:100B70005F906F907F908F909F90AF90BF90CF903D
:100B8000DF90EF90FF900F911F912F913F914F9128
:100B90005F916F917F918F919F91AF91BF91CF9115
:100BA000DF91EF91FF91FFBFFF91FCBFFF9108958F
:100BB000FF93FCB7FF93FFB7F894F068FF93EF93B0
:100BC000DF93CF93BF93AF939F938F937F936F9355
:100BD0005F934F933F932F931F930F93FF92EF9247
:100BE000DF92CF92BF92AF929F928F927F926F923D
:100BF0005F924F923F922F921F920F92E091B60216
:100C0000F091B7028DB79EB7E050FF4F918380837C
:100C10008091C1029091C2029EBF8DBF81E090E0A1
:100C200090936A0C8093690CE8E8F0E080819181F0
:100C3000805F984D918380838091C1029091C20220
:100C40009EBF8DBF0F901F902F903F904F905F9051
:100C50006F907F908F909F90AF90BF90CF90DF90DC
:100C6000EF90FF900F911F912F913F914F915F91C6
:100C70006F917F918F919F91AF91BF91CF91DF91B4
:100C8000EF91FF91FFBFFF91FCBFFF9108950F937C
:100C90001F93CF93DF938C01EB01DC01ED91FC916D
:100CA00011973097E1F16E817F81A0E0B0E001C043
:100CB000FC018091BC029091BD022091BC02309158
:100CC000BD02AB01481B590B86819781821B930B98
:100CD00048175907B8F080859185DF01009741F7E3
:100CE000D8011296ED91FC911397D187C087139686
:100CF000DC93CE93129719861886DF91CF911F91BE
:100D00000F9108951097C9F01996DC93CE93189718
:100D1000F987E887DF91CF911F910F910895119680
:100D20007C936E9313967C936E9312971986188614
:100D3000DF91CF911F910F910895D801CD93DC934E
:100D4000E7CFCF93DF93C091850CD091860C20978D
:100D500009F4DFC080916F0C9091700C019709F439
:100D600070C080916F0C9091700C8F5F9F4F09F451
:100D70008BC08091870C9091880CC817D90709F413
:100D8000BFC0C45FDE4F88819981CC50D140909321
:100D9000860C8093850CDE01A150BF4FFD01B897F2
:100DA000128280E880A313A280916B0C90916C0C4E
:100DB00094A380916B0C90916C0C85A316A288E58E
:100DC00099E097A38C93C050DF4FF983E883269670
:100DD00082E090E08993999380916D0C90916E0CD4
:100DE0009983888380916F0C9091700C26979983DA
:100DF0008883C250D14080916F0C9091700C8130EB
:100E0000910509F446C08230910529F1892BB1F58D
:100E10008091950C9091960C892B09F480C0E091FB
:100E2000970CF091980CE45FFE4FD183C083D09370
:100E3000980CC093970C20E030E0C901DF91CF916E
:100E400008958091890C90918A0C892B09F089CFA3
:100E500022E030E015C080918D0C90918E0C892B92
:100E600009F468C0E0918F0CF091900CE45FFE4FA4
:100E7000D183C083D093900CC0938F0C20E030E0DE
:100E8000C901DF91CF910895C0913202D091330210
:100E900082CFE091890CF0918A0C309771F08091AB
:100EA0008B0C90918C0CE817F90709F44EC08085E3
:100EB000918590938A0C8093890C8091770C909106
:100EC000780C978386838091730C9091740C938334
:100ED00082838091750C9091760C95838483D18365
:100EE000C083CC5FDE4FF983E88381E99CE0BF01DA
:100EF0000E94470620E030E0C901DF91CF910895BC
:100F00001092880C1092870C1092860C1092850C0F
:100F100042CF21E030E0C901DF91CF910895D09315
:100F2000960CC093950CD093980CC093970C20E02E
:100F300030E0A6CFD0938E0CC0938D0CD093900C44
:100F4000C0938F0C20E030E09BCF10928C0C10925D
:100F50008B0C10928A0C1092890CAFCF0F931F93B9
:100F600080918100826080938100E7ECF3E013823E
:100F70001282CF010A969187808711821082E25FE8
:100F8000FE4F8CE0E733F80791F711861086109238
:100F9000320B1092310B138212821182108221E4E3
:100FA0003CE0F901178216821582148213821282A4
:100FB00011821082CF010A9691878087FC018CE014
:100FC000EF35F80779F711821082118610861782A3
:100FD0001682158214821382128203EC12E010939F
:100FE000860C0093850C85E29AE09093880C8093A0
:100FF000870C30938A0C2093890CF0938C0CE0932F
:101000008B0C1092920C1092910C1092940C1092E6
:10101000930C10928E0C10928D0C1092900C1092DA
:101020008F0C1092960C1092950C1092980C1092B6
:10103000970C83E295E090936C0C80936B0C8FEF90
:101040009FEF9093700C80936F0C10926E0C109227
:101050006D0C0E94A1068FE39EE090936C0C809330
:101060006B0C1092700C10926F0C10926E0C109210
:101070006D0C0E94A1061093B7020093B60281E0A6
:1010800090E09093CA038093C903E091950CF0918E
:10109000960C309779F08091970C9091980CE81706
:1010A000F907E1F0E45FFE4F808191819093960C07
:1010B0008093950C80916F00826080936F00809187
:1010C000840090918500805F984D90938900809373
:1010D000880082E086BB1F910F9108951092980CB2
:1010E0001092970C1092960C1092950CE3CFF894F6
:1010F00080E884B980913102882309F04DC0709155
:1011000031027F5FF0E840E951E0F5B960E02AEF95
:1011100030E0CA010197F1F721503040D1F76F5FFD
:101120006436A9F715B860E02AEF30E0CA010197EC
:10113000F1F721503040D1F76F5F6832A9F777237C
:10114000F1F0E0E0F5B960E02AEF30E0CA01019784
:10115000F1F721503040D1F76F5F6A30A9F715B829
:1011600060E02AEF30E0CA010197F1F721503040EA
:10117000D1F76F5F6A30A9F7EF5FE71718F360E008
:101180002AEF30E0CA010197F1F721503040D1F742
:101190006F5F6431A9F7B9CF709131027150B2CF4E
:1011A000E091910CF091920C309781F1A091930C09
:1011B000B091940CEA17FB0711F126813781008466
:1011C000F185E02D868197812817390779F0809184
:1011D000BC029091BD0240E02817390709F041E0B8
:1011E00081E04827242F30E0C901089586E08093EC
:1011F00031020E947708A091910CB091920C109747
:1012000029F016962D913C911797E1CF20E030E020
:10121000C90108958091B4029091B5020197B1F18E
:101220008091950C9091960C892B51F0E091B6022B
:10123000F091B702EE5FFE4F80819181892B71F4AE
:101240000E94D008892B71F0E091B602F091B702AC
:10125000EE5FFE4F80819181029724F021E030E023
:10126000C901089580918D0C90918E0C892B71F09D
:1012700020E030E0E091B602F091B702EE5FFE4F61
:1012800080819181039754F7C901089520E030E0EF
:10129000C90108951F931FB7F89484E090E09093DC
:1012A0006A0C8093690C0E947E051FBF1F910895F0
:1012B0001F931FB7F89483E090E090936A0C80939B
:1012C000690C0E947E051FBF1F910895E091B60230
:1012D000F091B702E85FFE4F8081918108951F93DE
:1012E0001FB7F89490936C0C80936B0C70936E0CFA
:1012F00060936D0C5093700C40936F0C82E090E003
:1013000090936A0C8093690C0E947E0520917B0C5F
:1013100030917C0C1FBFC9011F91089540E050E03F
:101320000E946F09089542E050E00E946F090895FD
:10133000AF92BF92CF92DF92EF92FF920F931F93E3
:10134000CF93DF936C015B01EA01790141155105EF
:1013500019F02417350728F084E0809331020E94A9
:101360007708D093740CC093730C1093780C00938F
:10137000770CF092760CE092750CC601B50141E055
:1013800050E00E946F09DF91CF911F910F91FF9064
:10139000EF90DF90CF90BF90AF9008951F931FB74D
:1013A000F89486E090E090936A0C8093690C0E9418
:1013B0007E051FBF80917D0C90917E0C1F9108953A
:1013C0001F931FB7F8949093800C80937F0C7093B9
:1013D000820C6093810C87E090E090936A0C80937C
:1013E000690C0E947E051FBF1F9108951F931FB7B0
:1013F000F8949093800C80937F0C7093840C60938E
:10140000830C88E090E090936A0C8093690C0E94B2
:101410007E051FBF1F91089581E090E09093B50273
:101420008093B4020895E091BC02F091BD028091D6
:101430008400909185002091BE023091BF02821BF2
:10144000930B60ED77E00E94630FCF01880F991F27
:10145000880F991F8E0F9F1F680F791FCB0108956A
:101460002F923F924F925F926F927F928F929F92B4
:10147000AF92BF92CF92DF92EF92FF920F931F93A2
:10148000CF93DF930E94AE07E0903202F0903302D8
:10149000A091B602B091B70231E0C32ED12C28E062
:1014A000822E02E010E092E0992E89E0582EF3E0BF
:1014B0006F2E712CEBE04E2E7AE0372E6CE0B62EBC
:1014C0005DE0A52E45E0242E1AC0C130D10509F4F7
:1014D000F5C1C130D10558F0C230D10509F475C14C
:1014E000239709F444C1909231020E947708A09199
:1014F000B602B091B70210926A0C1092690C109764
:1015000009F45CC2AA5FBE4F8D919C911197A650C1
:10151000B140019709F4CCC0E091950CF091960C84
:10152000309709F4D7C08091970C9091980CE817E8
:10153000F90709F43AC2E45FFE4F80819181EC50D3
:10154000F1409093960C8093950CF093B702E09342
:10155000B602E091B602F091B702EA5FFE4FD18287
:10156000C0821092B5021092B4020E942405C0916C
:10157000690CD0916A0CC430D10509F4EBC1C530B7
:10158000D10508F4A2CFC630D10509F47CC1C6301C
:10159000D10508F4ACCFC730D10509F43BC1289779
:1015A00009F0A1CFC0917F0CD091800C209709F455
:1015B000EEC2A881B981109709F447C08A819B8146
:1015C0008A179B0709F4CEC0A45FBE4F8D919C91F2
:1015D0001197AC50B140998388838091830C90918E
:1015E000840CA65FBE4FED91FC911197918380838F
:1015F000149711961C930E9314978D919C911197AB
:10160000A250B1408130910509F4A7C08230910504
:1016100009F48FC0892B09F087C08091950C9091B7
:10162000960C892B09F4CFC1E091970CF091980C9E
:10163000E45FFE4FB183A083B093980CA093970C06
:10164000A881B981109709F0B9CF0E940A09892BA6
:1016500009F44DCFA091B602B091B702AA5FBE4F78
:1016600011961C930E9314978D919C911197A250F3
:10167000B1408130910509F46FC28230910509F4BF
:101680004FC2892B09F037CF8091950C9091960C21
:10169000892B09F48AC2E091970CF091980CE45FD1
:1016A000FE4FB183A083B093980CA093970C23CFE7
:1016B000AE15BF0509F055CF8091B4029091B502E7
:1016C000892B09F04ECFE091950CF091960C309754
:1016D00009F029CF0E94D008892B09F407C2E091B4
:1016E000910CF091920C309771F08091930C909145
:1016F000940CE817F90709F46FC2808591859093DF
:10170000920C8093910CF093B902E093B80280811F
:1017100091819093B7028093B602848195819093D2
:10172000BB028093BA0215CFA09231020E947708C3
:1017300040CF80918D0C90918E0C892B09F44CC177
:10174000E0918F0CF091900CE45FFE4FB183A08389
:10175000B093900CA0938F0C2CCFB09231020E94CA
:10176000770827CF1B821A821982188236CFA09160
:10177000B602B091B702EA16FB0609F4BCCEAA5F26
:10178000BE4F11961C921E9214978D919C911197A9
:10179000A250B140019709F46EC18091850C9091DF
:1017A000860C892B09F483C1E091870CF091880C99
:1017B000E45FFE4FB183A083B093880CA093870CA5
:1017C000A091B602B091B70296CE0E94A106909366
:1017D0007C0C80937B0C80917B0C90917C0C892BF2
:1017E00009F403C180917B0C90917C0C019709F462
:1017F000C0C180917B0C90917C0C029709F077CE50
:1018000083E0809331020E947708A091B602B091E4
:10181000B70271CEC0917F0CD091800C209709F453
:10182000BBC1A091B602B091B702AE5FBE4F8D9121
:101830009C911197A250B140019709F484C1A65F11
:10184000BE4F8091810C9091820C11969C938E9347
:10185000AA50B14088819981892B09F493C1EA810A
:10186000FB81E45FFE4FB183A083BB83AA83A09179
:10187000B602B091B702AA5FBE4F11967C926E92EB
:10188000A650B14038CE2091C0022A3008F0EAC0FC
:10189000822F90E0880F991F880F991F880F991F3A
:1018A0008756934F90937E0C80937D0C2F5F2093EF
:1018B000C002A091B602B091B7021DCE8091BC02C9
:1018C0009091BD0201969093BD028093BC028091DD
:1018D0008400909185009093BF028093BE02A091F6
:1018E000B602B091B702AE5FBE4F8D919C91119739
:1018F000A250B140019709F4A0C0AE5FBE4F2D9138
:101900003C911197A250B1402230310509F0F3CD3E
:10191000FD01EA5FFE4F80819181019709F0EBCDD7
:101920003183208380918D0C90918E0C892B09F44A
:1019300045C1E0918F0CF091900CE45FFE4FB183B4
:10194000A083B093900CA0938F0CA091B602B0919D
:10195000B702D1CDA091B602B091B702AA5FBE4F37
:1019600011961C930E9314978D919C911197A250F0
:10197000B1408130910509F4A3C08230910509F08E
:1019800080CE80918D0C90918E0C892B09F416C11C
:10199000E0918F0CF091900CE45FFE4FB183A08337
:1019A000B093900CA0938F0CA6CD1092980C10922F
:1019B000970C1092960C1092950CC7CD8092310224
:1019C0000E947708CECDB093960CA093950CB0935F
:1019D000980CA093970CEDCDB0938E0CA0938D0C2A
:1019E000B093900CA0938F0CE4CD0E940A09892B30
:1019F00009F4F8CEA091B602B091B702AA5FBE4F2B
:101A00001196DC93CE9314978D919C911197A250CF
:101A1000B1408230910509F483C0019709F06BCD84
:101A2000AC5FBE4F6D917C9181E99CE00E944706BE
:101A3000A091B602B091B7025ECD8091BA029091AA
:101A4000BB0201979093BB028093BA02892B09F0E5
:101A500054CF209231020E947708A091B602B09133
:101A6000B7024BCF509231020E947708A091B60284
:101A7000B091B70240CDAC5FBE4FED91FC91119794
:101A8000A450B140309709F488CE1182108289E8C1
:101A90009CE0BF010E944706A091B602B091B70238
:101AA0008091850C9091860C892B09F07DCEB093A6
:101AB000860CA093850CB093880CA093870C1BCD4B
:101AC000E091B802F091B902868197812281338139
:101AD000820F931F9783868381E99CE0BF010E9458
:101AE0004706A091B602B091B70205CDE0918D0CEA
:101AF000F0918E0C309709F46AC080918F0C909110
:101B0000900CE817F90709F480C0E45FFE4F80816C
:101B10009181EC50F14090938E0C80938D0C15CDFB
:101B200080918D0C90918E0C009709F45EC0A45F9B
:101B3000BE4F11969C938E93AC50B140B0938E0CD7
:101B4000A0938D0CD8CC409231020E947708A091CE
:101B5000B602B091B702CFCC6091B8027091B902D1
:101B600081E99CE00E944706A091B602B091B702BD
:101B7000C2CC909231020E947708A091B602B09137
:101B8000B702B9CCB983A883BB83AA8370CE309245
:101B900031020E94770859CD309231020E947708B5
:101BA000A091B602B091B702A6CCB093960CA093C8
:101BB000950CB093980CA093970C9DCCB0938E0C81
:101BC000A0938D0CB093900CA0938F0C94CCF092BA
:101BD000B702E092B602BDCC1092940C1092930C16
:101BE0001092920C1092910C8ECDB093900CA09309
:101BF0008F0CB0938E0CA0938D0CA45FBE4F1196EA
:101C00001C921E92AC50B14076CC1092900C109267
:101C10008F0C10928E0C10928D0C97CC1092380D68
:101C20001092390D10923B0D10923A0D10923C0D0E
:101C300081E080933D0D84E080933E0D21E030E013
:101C40003093400D20933F0D1092410D82E0809320
:101C5000420D88E08093430D3093450D2093440D51
:101C60001092460D83E08093470D8CE08093480DE1
:101C700030934A0D2093490D10924B0D08950F9308
:101C80001F93279A269A259A249A80910A018460A4
:101C900080930A0180910B018B7F80930B0128E8D0
:101CA00033E140E951E0CA010197F1F7215030409A
:101CB000D1F780910B01846080930B0128E833E118
:101CC00040E951E0CA010197F1F721503040D1F7C6
:101CD0000E949D0480E090E067E472E041E050E003
:101CE0000E94090480E090E063E070E00E94D0036D
:101CF0000E94CE099093F70C8093F60C0E94F1009D
:101D00000E9495000E940E0E8DE29FE061E070E05F
:101D100044E150E02FE030E00AEF10E00E94980923
:101D20008BE99EE060E070E00E94930980E090E023
:101D30001F910F910895CF92DF92EF92FF920F9330
:101D40001F93DF93CF93CDB7DEB7E4970FB6F89428
:101D5000DEBF0FBECDBF6E010894C11CD11C8E0129
:101D60000D5F1F4F84E3E82E82E0F82E8091F60C81
:101D70009091F70CB6010E94E0092C9A88E19DE051
:101D80000E9430028330D1F300D000D0EDB7FEB70F
:101D90003196ADB7BEB712961C930E931197F3828E
:101DA000E2828091230D848315820E948A0F8DB771
:101DB0009EB706960FB6F8949EBF0FBE8DBFC801A2
:101DC0000E94DB002C980E944A09D0CFEF92FF922C
:101DD0000F931F93082FF62EE42E85E0089FC00175
:101DE00011248C5E9D4F0E94E101F092EE0CE09276
:101DF000EF0C1092F00C0093F10C10E0F801EE0FD4
:101E0000FF1FEE0FFF1FE00FF11FE85CF24F828112
:101E10008093F20C84818093F30CABEFBCE0E7E499
:101E2000F2E085E001900D928150E1F7ABEFBCE06C
:101E3000E9EEFCE08DE001900D928150E1F788EF32
:101E40009CE060E070E00E94740385B1805885B921
:101E50001F910F91FF90EF900895EF92FF920F93D3
:101E60001F93EE242D9A8E2D90E08C01000F111FF0
:101E7000000F111F080F191F085C124FF801818114
:101E80000E94AC00F82EF80181818F5F0E94AC00A7
:101E9000482F8E2D6F2D20E00E94E60E2D980E9477
:101EA0004A09E394F1E0FE15E0F2DCCF85B190E45D
:101EB000892785B98091F60C9091F70C61E070E06C
:101EC0000E94F6090895AA1BBB1B51E107C0AA1F77
:101ED000BB1FA617B70710F0A61BB70B881F991FCB
:101EE0005A95A9F780959095BC01CD01089597FB6F
:101EF000092E07260AD077FD04D0E5DF06D00020A2
:101F00001AF4709561957F4F0895F6F79095819535
:101F10009F4F08950F931F93DF93CF93CDB7DEB7F5
:101F20002E970FB6F894DEBF0FBECDBF0E891F8966
:101F300086E08C831A8309838FEF9FE79E838D83CE
:101F40009E01265E3F4FCE010196688D798DA901D5
:101F50000E94BB0F2F813885020F131FF8011082DA
:101F60002E960FB6F894DEBF0FBECDBFCF91DF9196
:101F70001F910F9108952F923F924F925F926F920F
:101F80007F928F929F92AF92BF92CF92DF92EF9209
:101F9000FF920F931F93DF93CF93CDB7DEB72B97AD
:101FA0000FB6F894DEBF0FBECDBF3C012B015A0126
:101FB000FC0117821682838181FD03C06FEF7FEFE2
:101FC000C6C19AE0892E1E010894211C311CF30120
:101FD0002381F20123FD859123FF81912F01882325
:101FE00009F4B2C1853239F423FD859123FF819133
:101FF0002F01853229F490E0B3010E94D711E7CF79
:10200000982FFF24EE249924FFE1FF15D0F09B3296
:1020100069F09C3228F4903259F0933291F40EC05A
:102020009D3249F0903369F441E024C052E0F52A32
:1020300084E0F82A28C098E0F92A25C0E0E1FE2AC9
:1020400022C0F7FC29C0892F80538A3070F4F6FE35
:1020500005C0989C902C1124980E15C0E89CE02C8B
:102060001124E80EF0E2FF2A0EC09E3229F4F6FC9D
:102070006BC140E4F42A07C09C3619F450E8F52AF5
:1020800002C0983649F4F20123FD959123FF919106
:102090002F01992309F0B8CF892F8554833018F088
:1020A0008052833038F444E050E0A40EB51E5FE364
:1020B00059830FC0933631F0933779F0933509F097
:1020C00056C020C0F5018081898342E050E0A40E13
:1020D000B51E610101E010E012C0F501C080D180A1
:1020E000F6FC03C06FEF7FEF02C0692D70E042E0A5
:1020F00050E0A40EB51EC6010E94CC118C015FE712
:10210000F52214C0F501C080D180F6FC03C06FEF4A
:102110007FEF02C0692D70E042E050E0A40EB51ED2
:10212000C6010E94C1118C0150E8F52AF3FE07C0D8
:102130001AC080E290E0B3010E94D711EA948E2D7C
:1021400090E008171907A8F30EC0F601F7FC859177
:10215000F7FE81916F0190E0B3010E94D711E11069
:10216000EA94015010400115110579F7EAC0943640
:1021700011F0993669F5F7FE08C0F501208131812B
:102180004281538184E090E00AC0F5018081918111
:102190009C01442737FD4095542F82E090E0A80E23
:1021A000B91E9FE6F92257FF09C05095409530951A
:1021B00021953F4F4F4F5F4FE0E8FE2ACA01B9011A
:1021C000A1012AE030E00E940312D82ED21840C0AC
:1021D000953729F41F2D1F7E2AE030E01DC01F2DEA
:1021E000197F9F3661F0903720F4983509F0ACC024
:1021F0000FC0903739F0983709F0A6C004C028E026
:1022000030E00AC0106114FD146020E130E004C029
:1022100014FD166020E132E017FF08C0F50160816F
:1022200071818281938144E050E008C0F501808192
:102230009181BC0180E090E042E050E0A40EB51E28
:10224000A1010E940312D82ED2188FE7F82EF12296
:10225000F6FE0BC05EEFF522D91438F4F4FE07C089
:10226000F2FC05C08FEEF82202C01D2D01C0192D11
:10227000F4FE0DC0FE01ED0DF11D8081803319F4D7
:1022800099EEF92208C01F5FF2FE05C003C08F2D32
:10229000867809F01F5F0F2DF3FC14C0F0FE0FC00D
:1022A0001E1510F09D2C0BC09D2C9E0C911A1E2DFE
:1022B00006C080E290E0B3010E94D7111F5F1E1597
:1022C000C0F304C01E1510F4E11A01C0EE2404FF8F
:1022D0000FC080E390E0B3010E94D71102FF1DC040
:1022E00001FD03C088E790E00EC088E590E00BC0D8
:1022F000802F867891F001FF02C08BE201C080E25E
:10230000F7FC8DE290E0B3010E94D71106C080E394
:1023100090E0B3010E94D7119A94D914C0F3DA94D3
:10232000F101ED0DF11D808190E0B3010E94D71104
:10233000DD20A9F706C080E290E0B3010E94D7112A
:10234000EA94EE20C1F743CEF30166817781CB0199
:102350002B960FB6F894DEBF0FBECDBFCF91DF91A5
:102360001F910F91FF90EF90DF90CF90BF90AF90B3
:102370009F908F907F906F905F904F903F902F90A5
:102380000895FC010590615070400110D8F78095C8
:1023900090958E0F9F1F0895FC0161507040019031
:1023A0000110D8F7809590958E0F9F1F08950F9379
:1023B0001F93CF93DF938C01EB018B8181FF1BC0B7
:1023C00082FF0DC02E813F818C819D8128173907A6
:1023D00064F4E881F9810193F983E88306C0E88514
:1023E000F985802F1995892B31F48E819F81019673
:1023F0009F838E8302C00FEF1FEFC801DF91CF9143
:102400001F910F910895FA01AA27283051F1203128
:1024100081F1E8946F936E7F6E5F7F4F8F4F9F4F78
:10242000AF4FB1E03ED0B4E03CD0670F781F891FBA
:102430009A1FA11D680F791F8A1F911DA11D6A0F88
:10244000711D811D911DA11D20D009F468943F913B
:102450002AE0269F11243019305D3193DEF6CF013A
:102460000895462F4770405D4193B3E00FD0C9F700
:10247000F6CF462F4F70405D4A3318F0495D31FD6D
:102480004052419302D0A9F7EACFB4E0A6959795C0
:10249000879577956795BA95C9F700976105710596
:1024A00008959B01AC010A2E0694579547953795E0
:1024B0002795BA95C9F7620F731F841F951FA01D3A
:0624C0000895F894FFCF1F
:1024C600FF000100202000000000E7E7E7E7E7E75C
:1024D600E7E7E7E74A4A4A4A4A4B4B4B4B4B4C4CD9
:1024E6004C4C4C4D4D4D4D4D686A6C6EFFFFFFFFD9
:1024F600FF01330B7061636B65742066726F6D3A12
:0C250600202564200A0D00FFFFFFFFFFEE
:00000001FF
