:100000000C9472000C9493000C9493000C94930045
:100010000C9493000C9441020C9493000C94930064
:100020000C9493000C9493000C9493000C94930004
:100030000C9493000C9493000C9493000C949300F4
:100040000C9493000C944F050C9493000C94930023
:100050000C9493000C9493000C9493000C949300D4
:100060000C9493000C9493000C9493000C949300C4
:100070000C9493000C9493000C9493000C949300B4
:100080000C9493000C9493000C9493000C949300A4
:100090000C9493000C9493000C9493000C94930094
:1000A0000C9493000C9493000C9493000C94930084
:1000B0000C9493000C9493000C9493000C94930074
:1000C0000C9493000C9493000C9493000C94930064
:1000D0000C9493000C9493000C9493000C94930054
:1000E0000C94930011241FBECFEFD1E2DEBFCDBF31
:1000F00000E00CBF12E0A0E0B2E0E4E3FBE100E0CE
:100100000BBF02C007900D92A433B107D9F71EE0D0
:10011000A4E3B2E001C01D92AD38B107E1F70E943F
:10012000A20C0C94980D0C94000087B1807F87B9C5
:10013000AAE7B0E08C9187608C93ECE7F0E08081D7
:10014000806480838081806280838C9180688C93BE
:100150008C9180648C93089590917C00282F277057
:10016000907F292B20937C0090917B008870977F53
:10017000982B90937B0080917A00806480937A0022
:1001800080917A0086FDFCCF80917900089584B13A
:10019000807F84B984B1876084B9289A80E58CBD5A
:1001A00081E08DBD28980895DC01442399F020E07A
:1001B00030E0FD01E20FF31F80818EBD0DB407FE1C
:1001C000FDCF8EB5FB01E20FF31F80832F5F3F4F02
:1001D000241778F30895482F662361F09C01F901F4
:1001E00080818EBD0DB407FEFDCF31968E2F841B0E
:1001F0008617B0F308958EBD0DB407FEFDCF8EB502
:10020000089580910002909101020097E1F020E0B2
:1002100080FD2F5F969587950097D1F780E190E05C
:10022000821B910924E630E0AC01429FC001439F4C
:10023000900D529F900D1124929582958F70892771
:100240009F708927089584E608950F931F9302E015
:1002500011E0F80180818F7B80838FEF0E94FB008B
:10026000F8019081906490831F910F910895CF922F
:10027000DF92EF92FF920F931F937B01C42E02E057
:1002800011E0F80190819F7B90838F7180620E94C2
:10029000FB00D82EC7016C2D0E94EB00F801808175
:1002A000806480838D2D1F910F91FF90EF90DF90E0
:1002B000CF900895FC01808180930F02818180930B
:1002C00010028281809311028381809312028481C3
:1002D0008093130280E1BF0145E00E943701089539
:1002E000EF92FF921F93CF93DF937B01EA01122FCE
:1002F000909102019F7B909302010E94FB001123C9
:1003000039F0209781F0C701BE01412F0E94D4002F
:1003100080910201806480930201DF91CF911F914F
:10032000FF90EF900895C701612F0E94EB00F0CF7E
:1003300081EE60E070E040E050E020E00E9470015B
:1003400082EE60E070E040E050E020E00E9470014A
:1003500008950F931F93182F092F10923402809144
:1003600002018F7D809302010E94250190E08E7032
:10037000907095958795282FFC01EC5FFD4F80814B
:10038000813268F020E030E0809102018062809349
:10039000020110923402C9011F910F910895273074
:1003A000B9F0208181E6612F702F412F502F0E94DC
:1003B00070010E94250190E08E7090709595879550
:1003C000873019F424E030E0DFCF23E030E0DCCFE9
:1003D00022E030E0D9CFEF92FF920F931F93582F76
:1003E000F62EE72E042F442351F0862F972F9C01E1
:1003F000F9019FEF91938E2F8F198017D8F3809179
:1004000002018F7B80930201852F8F710E94FB0078
:10041000182F80E090E06F2D7E2D402F0E94D40099
:1004200080910201806480930201812F1F910F91BE
:10043000FF90EF9008950F931F93DF93CF930F9248
:10044000CDB7DEB780E08E010F5F1F4FB80141E0EE
:100450000E94EB01898180FD0EC08160898380E06C
:10046000B80141E00E94370184E091E0FC0131973E
:10047000F1F70197F1F70F90CF91DF911F910F9155
:1004800008951F920F920FB60F920BB60F92112480
:100490002F933F934F935F936F937F938F939F938C
:1004A000AF93BF93EF93FF93DF93CF930F92CDB7AB
:1004B000DEB7809102018F7E80930201809102015C
:1004C0008F7D809302010E942501898390E086FD43
:1004D0006FC0898185FF4BC0109234028091040265
:1004E000882309F06CC00E941B0280910002909149
:1004F0000102880F991F909301028093000280915E
:1005000000029091010281609093010280930002A9
:1005100081E090E0909303028093020280E7898358
:1005200087E0BE016F5F7F4F41E00E9437018091FD
:1005300002018061809302018091020180628093B8
:1005400002010F90CF91DF91FF91EF91BF91AF9199
:100550009F918F917F916F915F914F913F912F91DB
:100560000F900BBE0F900FBE0F901F90189584FF39
:10057000D5CF81EE60E070E040E050E020E00E94E6
:10058000700110923402809104028823F9F40E94D1
:100590001B028091000290910102880F991F909395
:1005A0000102809300021092030210920202B6CF61
:1005B0008E709070959587950E94A70C8ACF8AE0DF
:1005C0006AE072E045E00E9437018DCF8AE06AE080
:1005D00072E045E00E943701DACFCF92DF92EF92CE
:1005E000FF920F931F93DF93CF930F92CDB7DEB798
:1005F0007C016B0181E080933402809102018F7D48
:100600008093020180E08E010F5F1F4FB80141E02F
:100610000E94EB01898180FD2DC08AE06FE072E0CD
:1006200045E00E94370180910201886080930201B9
:1006300080EAB70140E050E020E20E947001809122
:100640000201806280930201CD2891F480913402EE
:100650008823E1F780910202909103020F90CF91DD
:10066000DF911F910F91FF90EF90DF90CF90089551
:1006700081E0F4CF8E7F898380E0B80141E00E9461
:10068000370184E091E0FC013197F1F70197F1F730
:10069000C4CFCF92DF92EF92FF920F931F93DF931D
:1006A000CF930F92CDB7DEB77C018B01643071051B
:1006B00020F482E0E816F10450F00F90CF91DF9122
:1006C0001F910F91FF90EF90DF90CF90089586E0FB
:1006D0006E010894C11CD11CB60141E00E94EB01DF
:1006E000602F660F898186606823EF2841F4677F59
:1006F000698386E0B60141E00E943701DECF686081
:100700006983F7CFAF92BF92CF92DF92EF92FF92C1
:100710000F931F93DF93CF930F92CDB7DEB78C016A
:10072000FB015A018630910508F046C0009709F494
:100730004FC0982F965F0130110509F472C0A1E1F6
:10074000CA2EC80E41E0892FBF010E94370181E007
:100750007E010894E11CF11CB70141E00E94EB010D
:1007600081E090E0002E02C0880F991F0A94E2F702
:10077000D82E89818D29898381E0B70141E00E94CB
:100780003701AB28C9F519828C2DB70141E00E94D1
:10079000370189810C5F1D4FF801808382E0B7012A
:1007A00041E00E94EB01D09489818D21898382E010
:1007B000B70141E00E9437010F90CF91DF911F9167
:1007C0000F91FF90EF90DF90CF90BF90AF90089582
:1007D000808180930A02818180930B0282818093C1
:1007E0000C02838180930D02848180930E0245E088
:1007F0009AE081E1C82EA7CF80E289838C2DB701D2
:1008000041E00E94370189810C5F1D4FF801808310
:1008100082E0B70141E00E94EB0189818D29898343
:10082000C6CFB1E1CB2EC80E45E08DCFEF92FF923F
:100830000F931F93DF93CF930F92CDB7DEB7109234
:100840003402E1E0F1E080818861808392E0E92E6A
:1008500091E0F92ED7018C918F7E8C938C91877FBC
:100860008C938C918F7D8C9380818062808380813A
:10087000806480836C98EAE6F0E080818260808307
:1008800080818E7F8083EC9AE49A80EE9BEA0197C8
:10089000F1F70E94C70083E089838E010F5F1F4F2D
:1008A000B80141E00E94370185E1898384E0B80105
:1008B00041E00E94370188E6898385E0B80141E084
:1008C0000E94370189E0898386E0B80141E00E94F7
:1008D00037018FE0898380E0B80141E00E94370151
:1008E00080E7898387E0B80141E00E94370181EE0B
:1008F00060E070E040E050E020E00E94700182EE95
:1009000060E070E040E050E020E00E94700180E490
:100910009FE10197F1F7F7018081806280838081F8
:10092000806180830F90CF91DF911F910F91FF9095
:10093000EF900895FFCFFF93FCB7FF93FFB7F894B4
:10094000FF93EF93DF93CF93BF93AF939F938F93D7
:100950007F936F935F934F933F932F931F930F93C7
:10096000FF92EF92DF92CF92BF92AF929F928F92BF
:100970007F926F925F924F923F922F921F920F92AF
:100980008DB79EB790937B0480937A04E0913502F3
:10099000F0913602E050FF4F808191819EBF8DBF64
:1009A0000F901F902F903F904F905F906F907F908F
:1009B0008F909F90AF90BF90CF90DF90EF90FF907F
:1009C0000F911F912F913F914F915F916F917F9167
:1009D0008F919F91AF91BF91CF91DF91EF91FF9157
:1009E000FFBFFF91FCBFFF910895FF93FCB7FF93FA
:1009F000FFB7F894FF93EF93DF93CF93BF93AF9339
:100A00009F938F937F936F935F934F933F932F9316
:100A10001F930F93FF92EF92DF92CF92BF92AF920C
:100A20009F928F927F926F925F924F923F922F92FE
:100A30001F920F92E0913502F09136028DB79EB76A
:100A4000E050FF4F9183808380917A0490917B04E2
:100A50009EBF8DBF0F901F902F903F904F905F9043
:100A60006F907F908F909F90AF90BF90CF90DF90CE
:100A7000EF90FF900F911F912F913F914F915F91B8
:100A80006F917F918F919F91AF91BF91CF91DF91A6
:100A9000EF91FF91FFBFFF91FCBFFF910895FF937E
:100AA000FCB7FF93FFB7F894F068FF93EF93DF93E1
:100AB000CF93BF93AF939F938F937F936F935F93E6
:100AC0004F933F932F931F930F93FF92EF92DF92D9
:100AD000CF92BF92AF929F928F927F926F925F92CE
:100AE0004F923F922F921F920F92E0913502F09118
:100AF00036028DB79EB7E050FF4F9183808380917F
:100B00007A0490917B049EBF8DBF81E090E090932A
:100B10001F0E80931E0EE8E8F0E080819181805FD7
:100B2000984D9183808380913E0290913F0201967F
:100B300090933F0280933E028091840090918500C3
:100B4000909341028093400280917A0490917B04BB
:100B50009EBF8DBF0F901F902F903F904F905F9042
:100B60006F907F908F909F90AF90BF90CF90DF90CD
:100B7000EF90FF900F911F912F913F914F915F91B7
:100B80006F917F918F919F91AF91BF91CF91DF91A5
:100B9000EF91FF91FFBFFF91FCBFFF910895F89483
:100BA00080E884B9E0912C02EF5FF0E840E951E081
:100BB000FBB960E02AEF30E0CA010197F1F721505C
:100BC0003040D1F76F5F6436A9F715B860E02AEFBF
:100BD00030E0CA010197F1F721503040D1F76F5F43
:100BE0006832A9F7EE23F1F070E0F5B960E02AEF82
:100BF00030E0CA010197F1F721503040D1F76F5F23
:100C00006A30A9F715B860E02AEF30E0CA01019711
:100C1000F1F721503040D1F76F5F6A30A9F77F5F5D
:100C20007E1718F360E02AEF30E0CA010197F1F770
:100C300021503040D1F76F5F6431A9F7B9CFCF931E
:100C4000DF93C0912E0ED0912F0E209709F4D9C0BA
:100C50008091240E823009F46EC080913902909107
:100C60003A020196099708F078C08091240E8823F3
:100C700009F055C0CCE0DDE0DE01A150BF4FFD0121
:100C8000B897128280E880A313A28091200E9091E1
:100C9000210E94A38091200E9091210E85A316A27F
:100CA00083E49AE097A38C93C050DF4FF983E883E5
:100CB000239682E090E0899399938091220E9091FF
:100CC000230E899399938091240E88838091250E19
:100CD000259788838091260E9091270E2A968993D6
:100CE00099938091280E9091290E899399938091E0
:100CF0002A0E90912B0E99838883C051D140809108
:100D0000240E823009F467C0833009F446C0813074
:100D100051F121E030E0C901DF91CF910895FE014A
:100D2000E85FFE4F8081918190932F0E80932E0E6D
:100D300011821082A1CF2091280E3091290E80912E
:100D4000260E9091270E2817390708F486CF86E0E3
:100D500080932C020E94CF0588CF87E080932C02DD
:100D60000E94CF0582CFC85FDE4F19821882C8501B
:100D7000D1408091320E9091330E892B09F452C0EC
:100D8000E091340EF091350EE85FFE4FD183C083C1
:100D9000D093350EC093340EBCCFC85FDE4F19829E
:100DA0001882C850D1408091360E9091370E892B11
:100DB00071F1E091380EF091390EE85FFE4FD1836A
:100DC000C083D093390EC093380E21E030E0C901C2
:100DD000DF91CF9108958091390290913A02FC0100
:100DE000EE0FFF1FE659FD4FD183C083019690930C
:100DF0003A028093390221E030E0C901DF91CF91BE
:100E0000089520E030E0C901DF91CF910895D0939B
:100E1000370EC093360ED093390EC093380E21E0B2
:100E200030E079CFD093330EC093320ED093350E8D
:100E3000C093340E21E030E06ECF5F926F927F92CC
:100E40008F929F92AF92BF92CF92DF92EF92FF92DA
:100E50000F931F93CF93DF938091810082608093E3
:100E60008100EFE7F5E0AAE3BEE0118210821D9257
:100E70001D92CF010F9696838583EE5EFE4F8CE028
:100E8000ED3FF80791F7168215820CE714E01093F6
:100E90002F0E00932E0E8AEF9BE09093310E8093DD
:100EA000300E8AE994E09093210E8093200E1092E8
:100EB000240E8FE290E09093230E8093220E0E94E6
:100EC0001F0689ED9CE09093210E8093200E83E015
:100ED0008093240E0E941F06109336020093350261
:100EE00081E090E09093800580937F05E091360E3D
:100EF000F091370E309751F0E85FFE4F808191817D
:100F00009093370E8093360E1182108280916F007D
:100F1000826080936F008091840090918500805F53
:100F2000984D909389008093880082E086BBC090A2
:100F30002D02D0902E02E0903C02F0903D02A09154
:100F40003502B091360211E0A12EB12CF1E17F2ED5
:100F5000E2E08E2E912C7CE0672E6AE0562E29C0AE
:100F60008130910509F4B3C0029708F474C00E945F
:100F70001F0690932D0E80932C0E80912C0E909135
:100F80002D0E892B09F467C08091240E833009F45B
:100F9000A8C1A0913502B0913602A95FBE4F8C91D5
:100FA000A750B140813009F48CC110921F0E1092ED
:100FB0001E0EAD5FBE4F8D919C911197A350B14015
:100FC000019709F44DC02091360E3091370E21154E
:100FD000310509F4E5C0F901E85FFE4F8081918198
:100FE0009093370E8093360E118210823093360222
:100FF00020933502E0913502F0913602ED5FFE4F0D
:10100000A192B192808190E0E91692E0F90640F455
:10101000F701E658FD4F805D80830894E11CF11CC8
:101020000E949B0480911E0E90911F0E83309105AB
:10103000D9F08430910508F493CF8530910559F0AB
:101040008530910508F48FC0069709F47DC0609241
:101050002C020E94CF05A0913502B0913602A5CF97
:10106000AC15BD05E9F6AFCFA0913502B0913602BF
:10107000CA16DB0609F499CFAD5FBE4F11961C92DC
:101080001E9214968C91A750B140823009F40CC185
:10109000A85FBE4F11961C921E92A850B14080913D
:1010A0002E0E90912F0E892B09F42FC1E091300E56
:1010B000F091310EE85FFE4FB183A083B093310E03
:1010C000A093300EA0913502B09136026ECF009100
:1010D000390210913A020115110509F0B2C0A09130
:1010E0003502B0913602A95FBE4F8C91A750B14036
:1010F000813009F05ACFFD01ED5FFE4F8081918173
:10110000019709F052CF91828082A85FBE4F11965D
:101110001C921E92A850B1408091320E9091330ED5
:10112000892B09F457C1E091340EF091350EE85F38
:10113000FE4FB183A083B093350EA093340EA091DF
:101140003502B091360231CFA0913502B09136020E
:10115000A95FBE4F8C91A750B140833009F425CFD1
:1011600010923B0222CFA0913502B0913602ED01E0
:10117000CD5FDE4F88819981019709F016CFA95F75
:10118000BE4F8C91A750B140823009F418C1833012
:1011900009F4FBC0813009F4DDC09982888205CF53
:1011A0008091390290913A02009709F4BBC0CAE6D7
:1011B000D2E020E030E08C01000F111F0C0F1D1F4A
:1011C00006C0D9012296C017D107C9F09D01A88198
:1011D000B981A05FBE4F8D919C911197A051B140F4
:1011E0001816190674F3232B69F370922C020E94CF
:1011F000CF05A881B9812296C017D10739F710977A
:1012000009F490C0B0933602A0933502FD01E05F6F
:10121000FE4FA45FBE4F808191812D913C9111972B
:10122000AC50B140820F931F9183808380913B0229
:10123000882309F0DFCEA25FBE4F8C9180933B02E2
:10124000D9CE80913B02815080933B0280913B023A
:10125000882329F5A0913502B0913602109739F014
:10126000A95FBE4F8C91A750B1408230A1F0CAE671
:10127000D2E09801220F331F2C0F3D1FE991F99105
:10128000E05FFE4F80819181019791838083C21737
:10129000D307A1F728CF50922C020E94CF05A0912E
:1012A0003502B0913602E3CFAE5FBE4FEC91A25053
:1012B000B140F0E0EE0FFF1FE65CF14F11821082AB
:1012C000E7CE8091240E823009F47CC0AD5FBE4F22
:1012D0008D919C911197A350B140029709F065CE72
:1012E00014CFA0913502B0913602A95FBE4F8C9108
:1012F000A750B140833009F458CEAD5FBE4F119670
:101300009C928E92A350B14048CEB0932F0EA093E2
:101310002E0EB093310EA093300EA0913502B091F5
:10132000360243CE2091320E3091330E2115310515
:1013300009F45DC0F901E85FFE4F808191819093CF
:10134000330E8093320E1182108230933602209336
:10135000350250CEA85FBE4F11961C921E92A85027
:10136000B1408091320E9091330E892B09F444C024
:10137000E091340EF091350EE85FFE4FB183A0830B
:10138000B093350EA093340E08CFA85FBE4F1196D0
:101390001C921E92A850B1408091360E9091370E4B
:1013A000892B99F1E091380EF091390EE85FFE4FEC
:1013B000B183A083B093390EA093380EEECE109275
:1013C0003B02EBCEAD5FBE4F11969C928E92A35026
:1013D000B1409BCEB093330EA093320EB093350E36
:1013E000A093340EA0913502B0913602DECDD0929A
:1013F0003602C0923502FECDB093330EA093320E6A
:10140000B093350EA093340EC8CEB093370EA09390
:10141000360EB093390EA093380EBFCE1F931FB770
:10142000F8949093210E8093200E7093230E609376
:10143000220E4093240E2093250E82E090E090939C
:101440001F0E80931E0E0E94F50420912C0E3091E9
:101450002D0E1FBFC9011F910895DF93CF930F92E7
:10146000CDB7DEB78FB78983F89484E090E090938E
:101470001F0E80931E0E0E94F50489818FBF0F906E
:10148000CF91DF9108951F931FB7F89483E090E008
:1014900090931F0E80931E0E0E94F5041FBF1F9194
:1014A00008958FB7F8948FBFE0913502F09136021E
:1014B000EB5FFE4F8081918108958091840090912F
:1014C00085002091400230914102821B930B60ED18
:1014D00077E00E94840D20913E0230913F02C901C5
:1014E000880F991F880F991F820F931F680F791F0C
:1014F000CB0108950F931F93CF93DF93C0913702D1
:10150000D09138028E010F5F1F4F0630110528F071
:101510008DE080932C020E94CF05CC0FDD1FCC0FF5
:10152000DD1FCC0FDD1FDE01AE5BBD4F11961C929F
:101530001E92FE01EC5BFD4F11821082CA5BDD4FF3
:101540001982188217961C921E92169710933802D1
:1015500000933702CD01DF91CF911F910F91089534
:101560006F927F928F929F92AF92BF92CF92DF92B3
:10157000EF92FF920F931F93CF93DF93EC014B01F8
:101580008091370290913802892B09F4CBC02097C3
:1015900009F4C8C08A819B81892B09F4CDC0AC8134
:1015A000BD81109709F4CDC0FD01E85FFE4F808139
:1015B00091819D838C8311821082C0903502D090DE
:1015C00036020091340E1091350E4091320E50913A
:1015D000330E6091380E7091390EE090360EF09017
:1015E000370EAA24BB24F2E06F2E712C87E091E025
:1015F000C80ED91EFD01ED5FFE4F808191810397DA
:10160000C1F0DA012C813D8121153105C9F1F901C3
:10161000E85FFE4F808191819D838C8311821082CF
:10162000AD01D901FD01ED5FFE4F808191810397EE
:1016300041F7A95FBE4F8C91A750B140833009F4A8
:101640004DC08130F1F671826082A65FBE4FED9190
:10165000FC911197918280821E921E92A850B140F7
:101660004115510509F478C0085F1E4FF801B18398
:10167000A0838D01DA012C813D812115310539F6D8
:101680001093350E0093340EB093330EA093320EA8
:101690007093390E6093380EF092370EE092360E4A
:1016A0001B821A82AB2859F01FB7F89486E090E0AD
:1016B00090931F0E80931E0E0E94F5041FBFDF91B2
:1016C000CF911F910F91FF90EF90DF90CF90BF903F
:1016D000AF909F908F907F906F90089571826082FD
:1016E000A65FBE4FED91FC911197AA50B140918237
:1016F0008082F6018081833019F0E1E0AE2EB12CBA
:10170000A85FBE4F11961C921E92A850B140E114E2
:10171000F104F1F0685F7E4FFB01B183A083BD014E
:10172000DA0170CF8EE080932C020E94CF058A816F
:101730009B81892B09F033CF80E180932C020E949A
:10174000CF0510922C020E94CF051B821A82B7CFC0
:10175000BD017D01DA0156CF8D0154CF0F931F9348
:10176000CF93DF93EC018B01809137029091380287
:10177000892BA1F1209791F1A0913502B091360209
:10178000A95FBE4F8C91A750B140823089F1AD5F07
:10179000BE4F83E090E011969C938E93179611961E
:1017A0001C930E931E921E92A850B1408C819D8175
:1017B000892B41F1EE81FF81E85FFE4FB183A08369
:1017C000BF83AE838A819B8101969B838A830E941B
:1017D0002D0ADF91CF911F910F9108958EE0809394
:1017E0002C020E94CF05A0913502B0913602CFCFD6
:1017F0008FE080932C020E94CF05A0913502B0911A
:101800003602C5CFBD83AC83BF83AE83DBCFFF92EF
:101810000F931F93FFB6F8949093210E8093200EA0
:101820007093230E6093220E82E08093240E5093D7
:10183000270E4093260E3093290E2093280E1093E6
:101840002B0E00932A0E82E090E090931F0E80935F
:101850001E0E0E94F50480912C0E90912D0EFFBE5D
:101860001F910F91FF9008951F931FB7F8949093C5
:10187000210E8093200E7093230E6093220E83E03E
:101880008093240E82E090E090931F0E80931E0EB2
:101890000E94F50480912C0E90912D0E1FBF1F9178
:1018A00008951F931FB7F8949093210E8093200EF4
:1018B0007093230E6093220E81E08093240E82E0C9
:1018C00090E090931F0E80931E0E0E94F50480916D
:1018D0002C0E90912D0E1FBF1F910895E1E0F1E0B5
:1018E0001082808180648083808180628083808197
:1018F000806180838081886080830895982F109212
:10190000020180FF05C08091020180648093020182
:10191000969590FF05C0809102018062809302013C
:10192000969590FF05C0809102018061809302012D
:10193000892F869580FF05C0809102018860809381
:10194000020108950E941D0780E090E00895089527
:101950001092790E10927A0E10927C0E10927B0EDD
:1019600010927D0E81E080937E0E84E080937F0E46
:1019700021E030E03093810E2093800E1092820E91
:1019800082E08093830E88E08093840E3093860EED
:101990002093850E1092870E83E08093880E8CE052
:1019A0008093890E30938B0E20938A0E10928C0EAA
:1019B00008950F931F93279A80910A018460809362
:1019C0000A0180910B018B7F80930B0128E833E1A2
:1019D00040E951E0CA010197F1F721503040D1F7B9
:1019E00080910B01846080930B0128E833E140E98A
:1019F00051E0CA010197F1F721503040D1F70E9420
:101A0000160480E090E064E172E041E050E00E9462
:101A1000820381E090E063E070E00E9449030E944D
:101A200095000E94A80C8EE69DE061E070E044E124
:101A300050E02FE030E000E010E00E94070C80E072
:101A400090E01F910F910895DF92EF92FF920F9314
:101A50001F93082FF62EE42ED22E85E0089FC0019A
:101A600011248C5E9D4F0E945A01F092510EE0921B
:101A7000520ED092530E0093540E10E0F801EE0F68
:101A8000FF1FEE0FFF1FE00FF11FE758F14F82819C
:101A90008093550E84818093560EACE5BEE0EFE254
:101AA000F2E085E001900D928150E1F7ACE5BEE0F7
:101AB000ECE4FEE08DE001900D928150E1F789E5C4
:101AC0009EE060E070E00E94ED0285B1805885B92B
:101AD0001F910F91FF90EF90DF9008950F931F9348
:101AE00000E080E00E94AC00182F81E00E94AC0072
:101AF000482F802F612F20E00E94240D0E942D0A84
:101B00000F5F043068F7EDCFAA1BBB1B51E107C084
:101B1000AA1FBB1FA617B70710F0A61BB70B881F7D
:101B2000991F5A95A9F780959095BC01CD0108950C
:041B3000F894FFCF57
:101B3400FF000100202000000000E7E7E7E7E7E7F7
:101B4400E7E7E7E7AAAAAAAAAABBBBBBBBBBCCCC64
:101B5400CCCCCCDDDDDDDDDD686A6C6E080C0DFF00
:041B6400FFFFFFFF81
:00000001FF
