:100000000C9472000C9493000C9493000C94930045
:100010000C9493000C94C8020C9493000C949300DD
:100020000C9493000C9493000C9493000C94930004
:100030000C9493000C9493000C9493000C949300F4
:100040000C9493000C94D8050C9493000C9493009A
:100050000C9493000C9493000C9493000C949300D4
:100060000C9493000C940D010C9493000C94930049
:100070000C9493000C9493000C9493000C949300B4
:100080000C9493000C9493000C9493000C949300A4
:100090000C9493000C9493000C9493000C94930094
:1000A0000C9493000C9493000C9493000C94930084
:1000B0000C9493000C9493000C9493000C94930074
:1000C0000C9493000C9493000C9493000C94930064
:1000D0000C9493000C9493000C9493000C94930054
:1000E0000C94930011241FBECFEFD1E2DEBFCDBF31
:1000F00000E00CBF12E0A0E0B2E0E2EEF2E200E0CD
:100100000BBF02C007900D92AC34B107D9F71FE0C6
:10011000ACE4B2E001C01D92AE32B107E1F70E943B
:100120002B0D0C946F110C94000087B1807F87B960
:10013000AAE7B0E08C9187608C93ECE7F0E08081D7
:10014000806480838081806280838C9180688C93BE
:100150008C9180648C93089590917C00282F277057
:10016000907F292B20937C0090917B008870977F53
:10017000982B90937B0080917A00806480937A0022
:1001800080917A0086FDFCCF809179000895982FA8
:10019000F8948091C00085FFFCCF9093C6007894BE
:1001A0000895FC018436910524F4E25BFD4F8081C3
:1001B000089580E00895FC019081992361F03196C3
:1001C000F8948091C00085FFFCCF9093C60078948E
:1001D00090819923A1F708950E94DB0080E090E0D0
:1001E000089510924D0210924C021092B202109299
:1001F000C50087E68093C40088E98093C1008EE043
:100200008093C200089580914C0290914D02089510
:1002100010924D0210924C0208951F920F920FB649
:100220000F920BB60F9211242F933F935F936F930E
:100230007F938F939F93AF93BF93EF93FF9380919F
:10024000C00087FFFCCFE0914C02F0914D028091FD
:10025000C600E25BFD4F808380914C0290914D027D
:10026000019664E670E00E94850E90934D028093A3
:100270004C0281E08093B202FF91EF91BF91AF9168
:100280009F918F917F916F915F913F912F910F90EF
:100290000BBE0F900FBE0F901F90189584B1807FFA
:1002A00084B984B1876084B9289A80E58CBD81E0E7
:1002B0008DBD28980895DC01442399F020E030E0BA
:1002C000FD01E20FF31F80818EBD0DB407FEFDCF4F
:1002D0008EB5FB01E20FF31F80832F5F3F4F241782
:1002E00078F30895482F662361F09C01F90180811D
:1002F0008EBD0DB407FEFDCF31968E2F841B861761
:10030000B0F308958EBD0DB407FEFDCF8EB50895F0
:1003100080910002909101020097E1F020E080FDC1
:100320002F5F969587950097D1F780E190E0821B2B
:10033000910924E630E0AC01429FC001439F900D3B
:10034000529F900D1124929582958F7089279F70EE
:100350008927089584E608950F931F9302E011E022
:10036000F80180818F7B80838FEF0E948201F801EA
:100370009081906490831F910F910895CF92DF92A6
:10038000EF92FF920F931F937B01C42E02E011E0C6
:10039000F80190819F7B90838F7180620E9482011F
:1003A000D82EC7016C2D0E947201F80180818064F3
:1003B00080838D2D1F910F91FF90EF90DF90CF9054
:1003C0000895FC01808180930F0281818093100247
:1003D00082818093110283818093120284818093B1
:1003E000130280E1BF0145E00E94BE010895EF9233
:1003F000FF921F93CF93DF937B01EA01122F90911D
:1004000002019F7B909302010E948201112339F027
:10041000209781F0C701BE01412F0E945B018091AE
:100420000201806480930201DF91CF911F91FF90C0
:10043000EF900895C701612F0E947201F0CF81EE05
:1004400060E070E040E050E020E00E94F70182EEC2
:1004500060E070E040E050E020E00E94F701089585
:100460000F931F93182F092F1092B302809102014E
:100470008F7D809302010E94AC0190E08E7090709D
:1004800095958795282FFC01EC5FFD4F8081813287
:1004900068F020E030E080910201806280930201E8
:1004A0001092B302C9011F910F9108952730B9F03E
:1004B000208181E6612F702F412F502F0E94F7017C
:1004C0000E94AC0190E08E70907095958795873072
:1004D00019F424E030E0DFCF23E030E0DCCF22E08D
:1004E00030E0D9CFEF92FF920F931F93582FF62E43
:1004F000E72E042F442351F0862F972F9C01F901FA
:100500009FEF91938E2F8F198017D8F3809102015E
:100510008F7B80930201852F8F710E948201182F9B
:1005200080E090E06F2D7E2D402F0E945B01809136
:100530000201806480930201812F1F910F91FF902F
:10054000EF9008950F931F93DF93CF930F92CDB742
:10055000DEB780E08E010F5F1F4FB80141E00E94BF
:100560007202898180FD0EC08160898380E0B801BC
:1005700041E00E94BE0184E091E0FC013197F1F777
:100580000197F1F70F90CF91DF911F910F9108958F
:100590001F920F920FB60F920BB60F9211242F934A
:1005A0003F934F935F936F937F938F939F93AF93FB
:1005B000BF93EF93FF93DF93CF930F92CDB7DEB747
:1005C000809102018F7E80930201809102018F7DD4
:1005D000809302010E94AC01898390E086FD6FC088
:1005E000898185FF4BC01092B30280910402882359
:1005F00009F06CC00E94A202809100029091010259
:10060000880F991F9093010280930002809100024D
:10061000909101028160909301028093000281E039
:1006200090E0909303028093020280E7898387E041
:10063000BE016F5F7F4F41E00E94BE0180910201C9
:1006400080618093020180910201806280930201A7
:100650000F90CF91DF91FF91EF91BF91AF919F915B
:100660008F917F916F915F914F913F912F910F905B
:100670000BBE0F900FBE0F901F90189584FFD5CF23
:1006800081EE60E070E040E050E020E00E94F70181
:100690001092B302809104028823F9F40E94A2020E
:1006A0008091000290910102880F991F909301029E
:1006B000809300021092030210920202B6CF8E7055
:1006C0009070959587950E94300D8ACF8AE06AE0F8
:1006D00072E045E00E94BE018DCF8AE06AE072E0E0
:1006E00045E00E94BE01DACFCF92DF92EF92FF92F7
:1006F0000F931F93DF93CF930F92CDB7DEB77C019B
:100700006B0181E08093B302809102018F7D809321
:10071000020180E08E010F5F1F4FB80141E00E948F
:100720007202898180FD2DC08AE06FE072E045E0B1
:100730000E94BE018091020188608093020180EADC
:10074000B70140E050E020E20E94F70180910201F1
:10075000806280930201CD2891F48091B3028823B6
:10076000E1F780910202909103020F90CF91DF9107
:100770001F910F91FF90EF90DF90CF90089581E04F
:10078000F4CF8E7F898380E0B80141E00E94BE01F2
:1007900084E091E0FC013197F1F70197F1F7C4CFC4
:1007A000CF92DF92EF92FF920F931F93DF93CF933D
:1007B0000F92CDB7DEB77C018B016430710520F458
:1007C00082E0E816F10450F00F90CF91DF911F9175
:1007D0000F91FF90EF90DF90CF90089586E06E012B
:1007E0000894C11CD11CB60141E00E947202602F26
:1007F000660F898186606823EF2841F4677F6983EB
:1008000086E0B60141E00E94BE01DECF68606983E8
:10081000F7CFAF92BF92CF92DF92EF92FF920F93FA
:100820001F93DF93CF930F92CDB7DEB78C01FB01FF
:100830005A018630910508F046C0009709F44FC070
:10084000982F965F0130110509F472C0A1E1CA2EFC
:10085000C80E41E0892FBF010E94BE0181E07E01E8
:100860000894E11CF11CB70141E00E94720281E092
:1008700090E0002E02C0880F991F0A94E2F7D82E4C
:1008800089818D29898381E0B70141E00E94BE0101
:10089000AB28C9F519828C2DB70141E00E94BE0139
:1008A00089810C5F1D4FF801808382E0B70141E030
:1008B0000E947202D09489818D21898382E0B701E0
:1008C00041E00E94BE010F90CF91DF911F910F91E7
:1008D000FF90EF90DF90CF90BF90AF900895808110
:1008E00080930A02818180930B02828180930C02A3
:1008F000838180930D02848180930E0245E09AE00B
:1009000081E1C82EA7CF80E289838C2DB70141E019
:100910000E94BE0189810C5F1D4FF801808382E037
:10092000B70141E00E94720289818D298983C6CF77
:10093000B1E1CB2EC80E45E08DCFDF92EF92FF9252
:100940000F931F93DF93CF930F92CDB7DEB7109223
:10095000B302E1E0F1E080818861808322E0E22E51
:1009600021E0F22ED7018C918F7E8C938C91877F22
:100970008C938C918F7D8C93808180628083808129
:10098000806480836C98EAE6F0E0808182608083F6
:1009900080818E7F8083EC9AE49A80EE9BEA0197B7
:1009A000F1F70E944E0183E089838E010F5F1F4F94
:1009B000B80141E00E94BE0185E1898384E0B8016D
:1009C00041E00E94BE0190E7D92ED98285E0B801AE
:1009D00041E00E94BE0189E0898386E0B80141E0E0
:1009E0000E94BE018FE0898380E0B80141E00E944F
:1009F000BE01D98287E0B80141E00E94BE0181EECC
:100A000060E070E040E050E020E00E94F70182EEFC
:100A100060E070E040E050E020E00E94F70180E4F8
:100A20009FE10197F1F7F7018081806280838081E7
:100A3000806180830F90CF91DF911F910F91FF9084
:100A4000EF90DF900895FFCFFF93FCB7FF93FFB7C0
:100A5000F894FF93EF93DF93CF93BF93AF939F935C
:100A60008F937F936F935F934F933F932F931F9336
:100A70000F93FF92EF92DF92CF92BF92AF929F922D
:100A80008F927F926F925F924F923F922F921F921E
:100A90000F928DB79EB79093FA048093F904E0917A
:100AA000B402F091B502E050FF4F808191819EBF6A
:100AB0008DBF0F901F902F903F904F905F906F9041
:100AC0007F908F909F90AF90BF90CF90DF90EF90EE
:100AD000FF900F911F912F913F914F915F916F91D7
:100AE0007F918F919F91AF91BF91CF91DF91EF91C6
:100AF000FF91FFBFFF91FCBFFF910895FF93FCB7EB
:100B0000FF93FFB7F894FF93EF93DF93CF93BF93D7
:100B1000AF939F938F937F936F935F934F933F9385
:100B20002F931F930F93FF92EF92DF92CF92BF927A
:100B3000AF929F928F927F926F925F924F923F926D
:100B40002F921F920F92E091B402F091B5028DB7EF
:100B50009EB7E050FF4F918380838091F90490917C
:100B6000FA049EBF8DBF0F901F902F903F904F9023
:100B70005F906F907F908F909F90AF90BF90CF903D
:100B8000DF90EF90FF900F911F912F913F914F9128
:100B90005F916F917F918F919F91AF91BF91CF9115
:100BA000DF91EF91FF91FFBFFF91FCBFFF9108958F
:100BB000FF93FCB7FF93FFB7F894F068FF93EF93B0
:100BC000DF93CF93BF93AF939F938F937F936F9355
:100BD0005F934F933F932F931F930F93FF92EF9247
:100BE000DF92CF92BF92AF929F928F927F926F923D
:100BF0005F924F923F922F921F920F92E091B40218
:100C0000F091B5028DB79EB7E050FF4F918380837E
:100C10008091F9049091FA049EBF8DBF81E090E02D
:100C200090939E0E80939D0EE8E8F0E08081918184
:100C3000805F984D918380838091BD029091BE0228
:100C400001969093BE028093BD02809184009091A2
:100C500085009093C0028093BF028091F904909127
:100C6000FA049EBF8DBF0F901F902F903F904F9022
:100C70005F906F907F908F909F90AF90BF90CF903C
:100C8000DF90EF90FF900F911F912F913F914F9127
:100C90005F916F917F918F919F91AF91BF91CF9114
:100CA000DF91EF91FF91FFBFFF91FCBFFF9108958E
:100CB000F89480E884B9E0913102EF5FF0E840E910
:100CC00051E0FBB960E02AEF30E0CA010197F1F78B
:100CD00021503040D1F76F5F6436A9F715B860E056
:100CE0002AEF30E0CA010197F1F721503040D1F7E7
:100CF0006F5F6832A9F7EE23F1F070E0F5B960E0BC
:100D00002AEF30E0CA010197F1F721503040D1F7C6
:100D10006F5F6A30A9F715B860E02AEF30E0CA01CA
:100D20000197F1F721503040D1F76F5F6A30A9F792
:100D30007F5F7E1718F360E02AEF30E0CA01019769
:100D4000F1F721503040D1F76F5F6431A9F7B9CF87
:100D5000CF93DF93C091AD0ED091AE0E209709F4E2
:100D6000D9C08091A30E823009F46EC08091B80280
:100D70009091B9020196099708F078C08091A30E6E
:100D8000882309F055C0CBE8DDE0DE01A150BF4F5C
:100D9000FD01B897128280E880A313A280919F0E74
:100DA0009091A00E94A380919F0E9091A00E85A388
:100DB00016A28CEC9AE097A38C93C050DF4FF98376
:100DC000E883239682E090E0899399938091A10E25
:100DD0009091A20E899399938091A30E888380911C
:100DE000A40E259788838091A50E9091A60E2A9631
:100DF000899399938091A70E9091A80E89939993C6
:100E00008091A90E9091AA0E99838883C051D140F8
:100E10008091A30E823009F467C0833009F446C084
:100E2000813051F121E030E0C901DF91CF91089587
:100E3000FE01E85FFE4F808191819093AE0E80931A
:100E4000AD0E11821082A1CF2091A70E3091A80E75
:100E50008091A50E9091A60E2817390708F486CF29
:100E600086E0809331020E94580688CF87E0809305
:100E700031020E94580682CFC85FDE4F1982188265
:100E8000C850D1408091B10E9091B20E892B09F4D7
:100E900052C0E091B30EF091B40EE85FFE4FD183E3
:100EA000C083D093B40EC093B30EBCCFC85FDE4FE7
:100EB00019821882C850D1408091B50E9091B60E1B
:100EC000892B71F1E091B70EF091B80EE85FFE4FFB
:100ED000D183C083D093B80EC093B70E21E030E029
:100EE000C901DF91CF9108958091B8029091B90224
:100EF000FC01EE0FFF1FE751FD4FD183C083019628
:100F00009093B9028093B80221E030E0C901DF91EB
:100F1000CF91089520E030E0C901DF91CF9108958D
:100F2000D093B60EC093B50ED093B80EC093B70E43
:100F300021E030E079CFD093B20EC093B10ED093C0
:100F4000B40EC093B30E21E030E06ECF5F926F928B
:100F50007F928F929F92AF92BF92CF92DF92EF9249
:100F6000FF920F931F93CF93DF9380918100826054
:100F700080938100EEEFF5E0A9EBBEE011821082D4
:100F80001D921D92CF010F9696838583EE5EFE4FD4
:100F90008DE0EC37F80791F7168215820BEF14E01D
:100FA0001093AE0E0093AD0E89E79CE09093B00EC7
:100FB0008093AF0E83E295E09093A00E80939F0EF6
:100FC0001092A30E8FE290E09093A20E8093A10E58
:100FD0000E94A80686E69DE09093A00E80939F0E47
:100FE00083E08093A30E0E94A8061093B50200939D
:100FF000B40281E090E09093FF058093FE05E091BC
:10100000B50EF091B60E309751F0E85FFE4F80813B
:1010100091819093B60E8093B50E118210828091CB
:101020006F00826080936F008091840090918500B2
:10103000805F984D909389008093880082E086BB02
:10104000C0903202D0903302E090BB02F090BC021C
:10105000A091B402B091B50211E0A12EB12CF1E142
:101060007F2EE2E08E2E912C7CE0672E6AE0562ED9
:1010700029C08130910509F4B3C0029708F474C007
:101080000E94A8069093AC0E8093AB0E8091AB0E9D
:101090009091AC0E892B09F467C08091A30E833028
:1010A00009F4A8C1A091B402B091B502A95FBE4FE6
:1010B0008C91A750B140813009F48CC110929E0EE2
:1010C00010929D0EAD5FBE4F8D919C911197A350D4
:1010D000B140019709F44DC02091B50E3091B60E84
:1010E0002115310509F4E5C0F901E85FFE4F808163
:1010F00091819093B60E8093B50E11821082309339
:10110000B5022093B402E091B402F091B502ED5F14
:10111000FE4FA192B192808190E0E91692E0F9062B
:1011200040F4F701E750FD4F805D80830894E11C97
:10113000F11C0E94240580919D0E90919E0E83309B
:101140009105D9F08430910508F493CF853091054D
:1011500059F08530910508F48FC0069709F47DC0D9
:10116000609231020E945806A091B402B091B5027B
:10117000A5CFAC15BD05E9F6AFCFA091B402B091F3
:10118000B502CA16DB0609F499CFAD5FBE4F1196C2
:101190001C921E9214968C91A750B140823009F493
:1011A0000CC1A85FBE4F11961C921E92A850B14070
:1011B0008091AD0E9091AE0E892B09F42FC1E09174
:1011C000AF0EF091B00EE85FFE4FB183A083B093F5
:1011D000B00EA093AF0EA091B402B091B5026ECF45
:1011E0000091B8021091B9020115110509F0B2C0C1
:1011F000A091B402B091B502A95FBE4F8C91A750E7
:10120000B140813009F05ACFFD01ED5FFE4F808182
:101210009181019709F052CF91828082A85FBE4FE1
:1012200011961C921E92A850B1408091B10E9091DF
:10123000B20E892B09F457C1E091B30EF091B40EB0
:10124000E85FFE4FB183A083B093B40EA093B30EBA
:10125000A091B402B091B50231CFA091B402B09187
:10126000B502A95FBE4F8C91A750B140833009F4FD
:1012700025CF1092BA0222CFA091B402B091B5024C
:10128000ED01CD5FDE4F88819981019709F016CF7E
:10129000A95FBE4F8C91A750B140823009F418C1AC
:1012A000833009F4FBC0813009F4DDC09982888263
:1012B00005CF8091B8029091B902009709F4BBC0A4
:1012C000C9EED2E020E030E08C01000F111F0C0FBE
:1012D0001D1F06C0D9012296C017D107C9F09D0174
:1012E000A881B981A05FBE4F8D919C911197A051AB
:1012F000B1401816190674F3232B69F3709231026A
:101300000E945806A881B9812296C017D10739F7E3
:10131000109709F490C0B093B502A093B402FD01F8
:10132000E05FFE4FA45FBE4F808191812D913C9183
:101330001197AC50B140820F931F918380838091AD
:10134000BA02882309F0DFCEA25FBE4F8C91809352
:10135000BA02D9CE8091BA0281508093BA028091AC
:10136000BA02882329F5A091B402B091B502109772
:1013700039F0A95FBE4F8C91A750B1408230A1F0E7
:10138000C9EED2E09801220F331F2C0F3D1FE991C7
:10139000F991E05FFE4F8081918101979183808375
:1013A000C217D307A1F728CF509231020E945806E6
:1013B000A091B402B091B502E3CFAE5FBE4FEC9105
:1013C000A250B140F0E0EE0FFF1FE754F14F118241
:1013D0001082E7CE8091A30E823009F47CC0AD5F0D
:1013E000BE4F8D919C911197A350B140029709F087
:1013F00065CE14CFA091B402B091B502A95FBE4FE3
:101400008C91A750B140833009F458CEAD5FBE4FE8
:1014100011969C928E92A350B14048CEB093AE0EDE
:10142000A093AD0EB093B00EA093AF0EA091B402F6
:10143000B091B50243CE2091B10E3091B20E21157C
:10144000310509F45DC0F901E85FFE4F80819181AB
:101450009093B20E8093B10E118210823093B50238
:101460002093B40250CEA85FBE4F11961C921E92DC
:10147000A850B1408091B10E9091B20E892B09F421
:1014800044C0E091B30EF091B40EE85FFE4FB1831B
:10149000A083B093B40EA093B30E08CFA85FBE4F45
:1014A00011961C921E92A850B1408091B50E909159
:1014B000B60E892B99F1E091B70EF091B80EE85F66
:1014C000FE4FB183A083B093B80EA093B70EEECEBB
:1014D0001092BA02EBCEAD5FBE4F11969C928E92E7
:1014E000A350B1409BCEB093B20EA093B10EB09377
:1014F000B40EA093B30EA091B402B091B502DECDAC
:10150000D092B502C092B402FECDB093B20EA093B9
:10151000B10EB093B40EA093B30EC8CEB093B60E76
:10152000A093B50EB093B80EA093B70EBFCE1F9385
:101530001FB7F8949093A00E80939F0E7093A20E05
:101540006093A10E4093A30E2093A40E82E090E03E
:1015500090939E0E80939D0E0E947E052091AB0E6F
:101560003091AC0E1FBFC9011F910895DF93CF9337
:101570000F92CDB7DEB78FB78983F89484E090E0FF
:1015800090939E0E80939D0E0E947E0589818FBF51
:101590000F90CF91DF9108951F931FB7F89483E0C8
:1015A00090E090939E0E80939D0E0E947E051FBF3B
:1015B0001F9108958FB7F8948FBFE091B402F09116
:1015C000B502EB5FFE4F8081918108958091840088
:1015D000909185002091BF023091C002821B930B35
:1015E00060ED77E00E94710E2091BD023091BE0245
:1015F000C901880F991F880F991F820F931F680FC9
:10160000791FCB0108950F931F93CF93DF93C09160
:10161000B602D091B7028E010F5F1F4F0630110541
:1016200028F08DE0809331020E945806CC0FDD1F18
:10163000CC0FDD1FCC0FDD1FDE01AF53BD4F119668
:101640001C921E92FE01ED53FD4F11821082CB536E
:10165000DD4F1982188217961C921E9216971093CE
:10166000B7020093B602CD01DF91CF911F910F9188
:1016700008956F927F928F929F92AF92BF92CF9276
:10168000DF92EF92FF920F931F93CF93DF93EC01C2
:101690004B018091B6029091B702892B09F4CBC01F
:1016A000209709F4C8C08A819B81892B09F4CDC099
:1016B000AC81BD81109709F4CDC0FD01E85FFE4FFC
:1016C000808191819D838C8311821082C090B402AD
:1016D000D090B5020091B30E1091B40E4091B10EAE
:1016E0005091B20E6091B70E7091B80EE090B50EA9
:1016F000F090B60EAA24BB24F2E06F2E712C87E086
:1017000091E0C80ED91EFD01ED5FFE4F80819181F1
:101710000397C1F0DA012C813D8121153105C9F112
:10172000F901E85FFE4F808191819D838C83118256
:101730001082AD01D901FD01ED5FFE4F80819181E5
:10174000039741F7A95FBE4F8C91A750B1408330FA
:1017500009F44DC08130F1F671826082A65FBE4F00
:10176000ED91FC911197918280821E921E92A85059
:10177000B1404115510509F478C0085F1E4FF801CA
:10178000B183A0838D01DA012C813D8121153105C2
:1017900039F61093B40E0093B30EB093B20EA0932B
:1017A000B10E7093B80E6093B70EF092B60EE09241
:1017B000B50E1B821A82AB2859F01FB7F89486E049
:1017C00090E090939E0E80939D0E0E947E051FBF19
:1017D000DF91CF911F910F91FF90EF90DF90CF900D
:1017E000BF90AF909F908F907F906F90089571827F
:1017F0006082A65FBE4FED91FC911197AA50B14057
:1018000091828082F6018081833019F0E1E0AE2E72
:10181000B12CA85FBE4F11961C921E92A850B140E9
:10182000E114F104F1F0685F7E4FFB01B183A08306
:10183000BD01DA0170CF8EE0809331020E9458061C
:101840008A819B81892B09F033CF80E1809331021B
:101850000E945806109231020E9458061B821A827A
:10186000B7CFBD017D01DA0156CF8D0154CF0F9363
:101870001F93CF93DF93EC018B018091B60290917F
:10188000B702892BA1F1209791F1A091B402B091F8
:10189000B502A95FBE4F8C91A750B140823089F14B
:1018A000AD5FBE4F83E090E011969C938E931796A8
:1018B00011961C930E931E921E92A850B1408C81DB
:1018C0009D81892B41F1EE81FF81E85FFE4FB1835D
:1018D000A083BF83AE838A819B8101969B838A8389
:1018E0000E94B60ADF91CF911F910F9108958EE06B
:1018F000809331020E945806A091B402B091B502C3
:10190000CFCF8FE0809331020E945806A091B4029D
:10191000B091B502C5CFBD83AC83BF83AE83DBCFAF
:10192000FF920F931F93FFB6F8949093A00E8093AD
:101930009F0E7093A20E6093A10E82E08093A30E7F
:101940005093A60E4093A50E3093A80E2093A70E99
:101950001093AA0E0093A90E82E090E090939E0E41
:1019600080939D0E0E947E058091AB0E9091AC0EEF
:10197000FFBE1F910F91FF9008951F931FB7F8941A
:101980009093A00E80939F0E7093A20E6093A10E71
:1019900083E08093A30E82E090E090939E0E80936C
:1019A0009D0E0E947E058091AB0E9091AC0E1FBFE4
:1019B0001F9108951F931FB7F8949093A00E8093E2
:1019C0009F0E7093A20E6093A10E81E08093A30EF0
:1019D00082E090E090939E0E80939D0E0E947E0583
:1019E0008091AB0E9091AC0E1FBF1F910895E1E066
:1019F000F1E01082808180648083808180628083B6
:101A00008081806180838081886080830895982FA1
:101A10001092020180FF05C08091020180648093D2
:101A20000201969590FF05C080910201806280932B
:101A30000201969590FF05C080910201806180931C
:101A40000201892F869580FF05C080910201886080
:101A50008093020108950E94A60780E090E0089517
:101A600085B190E4892785B9089510921A0F1092D4
:101A70001B0F10921D0F10921C0F10921E0F81E071
:101A800080931F0F84E08093200F21E030E030939B
:101A9000220F2093210F1092230F82E08093240FB6
:101AA00088E08093250F3093270F2093260F109204
:101AB000280F83E08093290F8CE080932A0F3093C6
:101AC0002C0F20932B0F10922D0F08950F931F931F
:101AD000279A269A80910A01846080930A01809156
:101AE0000B018B7F80930B0128E833E140E951E043
:101AF000CA010197F1F721503040D1F780910B01D5
:101B0000846080930B0128E833E140E951E0CA0189
:101B10000197F1F721503040D1F70E949D0480E0F9
:101B200090E067E472E041E050E00E94090480E048
:101B300090E063E070E00E94D0038091D80E909115
:101B4000D90E0E94030B0E94F1000E9495000E9492
:101B5000350D88E49EE061E070E044E150E02FE064
:101B600030E000E010E00E94900C80E090E01F91D7
:101B70000F910895CF92DF92EF92FF920F931F93F0
:101B8000DF93CF93CDB7DEB7E4970FB6F894DEBFFF
:101B90000FBECDBF6E010894C11CD11C8E010D5F1C
:101BA0001F4F84E3E82E82E0F82E8091D80E9091AA
:101BB000D90EB6010E94370C8AEF9EE00E943002D7
:101BC00000D000D0EDB7FEB73196ADB7BEB71296D4
:101BD0001C930E931197F382E2828091050F848308
:101BE00015820E94980E8DB79EB706960FB6F89490
:101BF0009EBF0FBE8DBFC8010E94DB000E94B60AC7
:101C0000D4CFEF92FF920F931F93082FF62EE42E5E
:101C100085E0089FC00111248C5E9D4F0E94E10168
:101C2000F092D00EE092D10E1092D20E0093D30E0D
:101C300010E0F801EE0FFF1FEE0FFF1FE00FF11F86
:101C4000E65EF04F82818093D40E84818093D50E1E
:101C5000ADEDBEE0E7E4F2E085E001900D92815049
:101C6000E1F7ADEDBEE0EBECFEE08DE001900D9212
:101C70008150E1F78AED9EE060E070E00E9474031D
:101C800085B1805885B91F910F91FF90EF9008950D
:101C9000EF92FF920F931F93EE240E941F028E2D4E
:101CA00090E08C01000F111F000F111F080F191F6A
:101CB000065E104FF80181810E94AC00F82EF801F9
:101CC00081818F5F0E94AC00482F8E2D6F2D20E008
:101CD0000E94010E0E94B60AE394F1E0FE15E0F2C4
:101CE000DCCFAA1BBB1B51E107C0AA1FBB1FA61755
:101CF000B70710F0A61BB70B881F991F5A95A9F7B5
:101D000080959095BC01CD01089597FB092E07267B
:101D10000AD077FD04D0E5DF06D000201AF47095D4
:101D200061957F4F0895F6F7909581959F4F08959F
:101D30000F931F93DF93CF93CDB7DEB72E970FB6D8
:101D4000F894DEBF0FBECDBF0E891F8986E08C835D
:101D50001A8309838FEF9FE79E838D839E01265E02
:101D60003F4FCE010196688D798DA9010E94C90E61
:101D70002F813885020F131FF80110822E960FB69F
:101D8000F894DEBF0FBECDBFCF91DF911F910F91B1
:101D900008952F923F924F925F926F927F928F920F
:101DA0009F92AF92BF92CF92DF92EF92FF920F93EA
:101DB0001F93DF93CF93CDB7DEB72B970FB6F89471
:101DC000DEBF0FBECDBF3C012B015A01FC011782C3
:101DD0001682838181FD03C06FEF7FEFC6C19AE059
:101DE000892E1E010894211C311CF3012381F2016C
:101DF00023FD859123FF81912F01882309F4B2C12E
:101E0000853239F423FD859123FF81912F0185329D
:101E100029F490E0B3010E94E510E7CF982FFF244A
:101E2000EE249924FFE1FF15D0F09B3269F09C323B
:101E300028F4903259F0933291F40EC09D3249F05B
:101E4000903369F441E024C052E0F52A84E0F82A96
:101E500028C098E0F92A25C0E0E1FE2A22C0F7FC5C
:101E600029C0892F80538A3070F4F6FE05C0989CF3
:101E7000902C1124980E15C0E89CE02C1124E80E3B
:101E8000F0E2FF2A0EC09E3229F4F6FC6BC140E45A
:101E9000F42A07C09C3619F450E8F52A02C0983697
:101EA00049F4F20123FD959123FF91912F0199238C
:101EB00009F0B8CF892F8554833018F080528330D1
:101EC00038F444E050E0A40EB51E5FE359830FC020
:101ED000933631F0933779F0933509F056C020C02E
:101EE000F5018081898342E050E0A40EB51E6101B6
:101EF00001E010E012C0F501C080D180F6FC03C003
:101F00006FEF7FEF02C0692D70E042E050E0A40E59
:101F1000B51EC6010E94DA108C015FE7F52214C0DD
:101F2000F501C080D180F6FC03C06FEF7FEF02C0E7
:101F3000692D70E042E050E0A40EB51EC6010E947B
:101F4000CF108C0150E8F52AF3FE07C01AC080E2DA
:101F500090E0B3010E94E510EA948E2D90E00817FE
:101F60001907A8F30EC0F601F7FC8591F7FE8191E1
:101F70006F0190E0B3010E94E510E110EA94015076
:101F800010400115110579F7EAC0943611F0993621
:101F900069F5F7FE08C0F501208131814281538146
:101FA00084E090E00AC0F501808191819C01442782
:101FB00037FD4095542F82E090E0A80EB91E9FE6B1
:101FC000F92257FF09C050954095309521953F4F14
:101FD0004F4F5F4FE0E8FE2ACA01B901A1012AE094
:101FE00030E00E941111D82ED21840C0953729F444
:101FF0001F2D1F7E2AE030E01DC01F2D197F9F3648
:1020000061F0903720F4983509F0ACC00FC09037DC
:1020100039F0983709F0A6C004C028E030E00AC0C3
:10202000106114FD146020E130E004C014FD16605E
:1020300020E132E017FF08C0F501608171818281E3
:10204000938144E050E008C0F50180819181BC019A
:1020500080E090E042E050E0A40EB51EA1010E9495
:102060001111D82ED2188FE7F82EF122F6FE0BC0F0
:102070005EEFF522D91438F4F4FE07C0F2FC05C077
:102080008FEEF82202C01D2D01C0192DF4FE0DC0E7
:10209000FE01ED0DF11D8081803319F499EEF922D6
:1020A00008C01F5FF2FE05C003C08F2D867809F0BF
:1020B0001F5F0F2DF3FC14C0F0FE0FC01E1510F0B3
:1020C0009D2C0BC09D2C9E0C911A1E2D06C080E2EB
:1020D00090E0B3010E94E5101F5F1E15C0F304C01D
:1020E0001E1510F4E11A01C0EE2404FF0FC080E3B6
:1020F00090E0B3010E94E51002FF1DC001FD03C086
:1021000088E790E00EC088E590E00BC0802F8678CD
:1021100091F001FF02C08BE201C080E2F7FC8DE28A
:1021200090E0B3010E94E51006C080E390E0B301A7
:102130000E94E5109A94D914C0F3DA94F101ED0DE0
:10214000F11D808190E0B3010E94E510DD20A9F728
:1021500006C080E290E0B3010E94E510EA94EE2010
:10216000C1F743CEF30166817781CB012B960FB681
:10217000F894DEBF0FBECDBFCF91DF911F910F91BD
:10218000FF90EF90DF90CF90BF90AF909F908F9097
:102190007F906F905F904F903F902F900895FC013B
:1021A0000590615070400110D8F7809590958E0F82
:1021B0009F1F0895FC016150704001900110D8F7F5
:1021C000809590958E0F9F1F08950F931F93CF9327
:1021D000DF938C01EB018B8181FF1BC082FF0DC05F
:1021E0002E813F818C819D812817390764F4E88115
:1021F000F9810193F983E88306C0E885F985802F8A
:102200001995892B31F48E819F8101969F838E834E
:1022100002C00FEF1FEFC801DF91CF911F910F9107
:102220000895FA01AA27283051F1203181F1E8946C
:102230006F936E7F6E5F7F4F8F4F9F4FAF4FB1E0B9
:102240003ED0B4E03CD0670F781F891F9A1FA11DB4
:10225000680F791F8A1F911DA11D6A0F711D811DB5
:10226000911DA11D20D009F468943F912AE0269F7A
:1022700011243019305D3193DEF6CF010895462FD9
:102280004770405D4193B3E00FD0C9F7F6CF462FBA
:102290004F70405D4A3318F0495D31FD4052419323
:1022A00002D0A9F7EACFB4E0A695979587957795E0
:1022B0006795BA95C9F700976105710508959B0167
:1022C000AC010A2E06945795479537952795BA95F0
:1022D000C9F7620F731F841F951FA01D0895F894FE
:0222E000FFCF2E
:1022E200FF000100202000000000E7E7E7E7E7E742
:1022F200E7E7E7E74A4A4A4A4A4B4B4B4B4B4C4CBF
:102302004C4C4C4D4D4D4D4D686A6C6EFFFFFFFFBE
:10231200FF088B0D7061636B65742066726F6D3A96
:0C232200202564200A0D00FFFFFFFFFFD4
:00000001FF
