:100000000C9472000C9493000C9493000C94930045
:100010000C9493000C94C8020C9493000C949300DD
:100020000C9493000C9493000C9493000C94930004
:100030000C9493000C9493000C9493000C949300F4
:100040000C9493000C94D8050C9493000C9493009A
:100050000C9493000C9493000C9493000C949300D4
:100060000C9493000C940D010C9493000C94930049
:100070000C9493000C9493000C9493000C949300B4
:100080000C9493000C9493000C9493000C949300A4
:100090000C9493000C9493000C9493000C94930094
:1000A0000C9493000C9493000C9493000C94930084
:1000B0000C9493000C9493000C9493000C94930074
:1000C0000C9493000C9493000C9493000C94930064
:1000D0000C9493000C9493000C9493000C94930054
:1000E0000C94930011241FBECFEFD1E2DEBFCDBF31
:1000F00000E00CBF12E0A0E0B2E0EAE9FCE100E0C1
:100100000BBF02C007900D92AA33B107D9F71FE0C9
:10011000AAE3B2E001C01D92AA31B107E1F70E9443
:100120002B0D0C944B0E0C94000087B1807F87B987
:10013000AAE7B0E08C9187608C93ECE7F0E08081D7
:10014000806480838081806280838C9180688C93BE
:100150008C9180648C93089590917C00282F277057
:10016000907F292B20937C0090917B008870977F53
:10017000982B90937B0080917A00806480937A0022
:1001800080917A0086FDFCCF809179000895982FA8
:10019000F8948091C00085FFFCCF9093C6007894BE
:1001A0000895FC018436910524F4E45CFD4F8081C0
:1001B000089580E00895FC019081992361F03196C3
:1001C000F8948091C00085FFFCCF9093C60078948E
:1001D00090819923A1F708950E94DB0080E090E0D0
:1001E000089510923B0210923A021092A0021092CF
:1001F000C50087E68093C40088E98093C1008EE043
:100200008093C200089580913A0290913B02089534
:1002100010923B0210923A0208951F920F920FB66D
:100220000F920BB60F9211242F933F935F936F930E
:100230007F938F939F93AF93BF93EF93FF9380919F
:10024000C00087FFFCCFE0913A02F0913B02809121
:10025000C600E45CFD4F808380913A0290913B029E
:10026000019664E670E00E94380E90933B02809302
:100270003A0281E08093A002FF91EF91BF91AF918C
:100280009F918F917F916F915F913F912F910F90EF
:100290000BBE0F900FBE0F901F90189584B1807FFA
:1002A00084B984B1876084B9289A80E58CBD81E0E7
:1002B0008DBD28980895DC01442399F020E030E0BA
:1002C000FD01E20FF31F80818EBD0DB407FEFDCF4F
:1002D0008EB5FB01E20FF31F80832F5F3F4F241782
:1002E00078F30895482F662361F09C01F90180811D
:1002F0008EBD0DB407FEFDCF31968E2F841B861761
:10030000B0F308958EBD0DB407FEFDCF8EB50895F0
:1003100080910002909101020097E1F020E080FDC1
:100320002F5F969587950097D1F780E190E0821B2B
:10033000910924E630E0AC01429FC001439F900D3B
:10034000529F900D1124929582958F7089279F70EE
:100350008927089584E608950F931F9302E011E022
:10036000F80180818F7B80838FEF0E948201F801EA
:100370009081906490831F910F910895CF92DF92A6
:10038000EF92FF920F931F937B01C42E02E011E0C6
:10039000F80190819F7B90838F7180620E9482011F
:1003A000D82EC7016C2D0E947201F80180818064F3
:1003B00080838D2D1F910F91FF90EF90DF90CF9054
:1003C0000895FC01808180930F0281818093100247
:1003D00082818093110283818093120284818093B1
:1003E000130280E1BF0145E00E94BE010895EF9233
:1003F000FF921F93CF93DF937B01EA01122F90911D
:1004000002019F7B909302010E948201112339F027
:10041000209781F0C701BE01412F0E945B018091AE
:100420000201806480930201DF91CF911F91FF90C0
:10043000EF900895C701612F0E947201F0CF81EE05
:1004400060E070E040E050E020E00E94F70182EEC2
:1004500060E070E040E050E020E00E94F701089585
:100460000F931F93182F092F1092A1028091020160
:100470008F7D809302010E94AC0190E08E7090709D
:1004800095958795282FFC01EC5FFD4F8081813287
:1004900068F020E030E080910201806280930201E8
:1004A0001092A102C9011F910F9108952730B9F050
:1004B000208181E6612F702F412F502F0E94F7017C
:1004C0000E94AC0190E08E70907095958795873072
:1004D00019F424E030E0DFCF23E030E0DCCF22E08D
:1004E00030E0D9CFEF92FF920F931F93582FF62E43
:1004F000E72E042F442351F0862F972F9C01F901FA
:100500009FEF91938E2F8F198017D8F3809102015E
:100510008F7B80930201852F8F710E948201182F9B
:1005200080E090E06F2D7E2D402F0E945B01809136
:100530000201806480930201812F1F910F91FF902F
:10054000EF9008950F931F93DF93CF930F92CDB742
:10055000DEB780E08E010F5F1F4FB80141E00E94BF
:100560007202898180FD0EC08160898380E0B801BC
:1005700041E00E94BE0184E091E0FC013197F1F777
:100580000197F1F70F90CF91DF911F910F9108958F
:100590001F920F920FB60F920BB60F9211242F934A
:1005A0003F934F935F936F937F938F939F93AF93FB
:1005B000BF93EF93FF93DF93CF930F92CDB7DEB747
:1005C000809102018F7E80930201809102018F7DD4
:1005D000809302010E94AC01898390E086FD6FC088
:1005E000898185FF4BC01092A1028091040288236B
:1005F00009F06CC00E94A202809100029091010259
:10060000880F991F9093010280930002809100024D
:10061000909101028160909301028093000281E039
:1006200090E0909303028093020280E7898387E041
:10063000BE016F5F7F4F41E00E94BE0180910201C9
:1006400080618093020180910201806280930201A7
:100650000F90CF91DF91FF91EF91BF91AF919F915B
:100660008F917F916F915F914F913F912F910F905B
:100670000BBE0F900FBE0F901F90189584FFD5CF23
:1006800081EE60E070E040E050E020E00E94F70181
:100690001092A102809104028823F9F40E94A20220
:1006A0008091000290910102880F991F909301029E
:1006B000809300021092030210920202B6CF8E7055
:1006C0009070959587950E94300D8ACF8AE06AE0F8
:1006D00072E045E00E94BE018DCF8AE06AE072E0E0
:1006E00045E00E94BE01DACFCF92DF92EF92FF92F7
:1006F0000F931F93DF93CF930F92CDB7DEB77C019B
:100700006B0181E08093A102809102018F7D809333
:10071000020180E08E010F5F1F4FB80141E00E948F
:100720007202898180FD2DC08AE06FE072E045E0B1
:100730000E94BE018091020188608093020180EADC
:10074000B70140E050E020E20E94F70180910201F1
:10075000806280930201CD2891F48091A1028823C8
:10076000E1F780910202909103020F90CF91DF9107
:100770001F910F91FF90EF90DF90CF90089581E04F
:10078000F4CF8E7F898380E0B80141E00E94BE01F2
:1007900084E091E0FC013197F1F70197F1F7C4CFC4
:1007A000CF92DF92EF92FF920F931F93DF93CF933D
:1007B0000F92CDB7DEB77C018B016430710520F458
:1007C00082E0E816F10450F00F90CF91DF911F9175
:1007D0000F91FF90EF90DF90CF90089586E06E012B
:1007E0000894C11CD11CB60141E00E947202602F26
:1007F000660F898186606823EF2841F4677F6983EB
:1008000086E0B60141E00E94BE01DECF68606983E8
:10081000F7CFAF92BF92CF92DF92EF92FF920F93FA
:100820001F93DF93CF930F92CDB7DEB78C01FB01FF
:100830005A018630910508F046C0009709F44FC070
:10084000982F965F0130110509F472C0A1E1CA2EFC
:10085000C80E41E0892FBF010E94BE0181E07E01E8
:100860000894E11CF11CB70141E00E94720281E092
:1008700090E0002E02C0880F991F0A94E2F7D82E4C
:1008800089818D29898381E0B70141E00E94BE0101
:10089000AB28C9F519828C2DB70141E00E94BE0139
:1008A00089810C5F1D4FF801808382E0B70141E030
:1008B0000E947202D09489818D21898382E0B701E0
:1008C00041E00E94BE010F90CF91DF911F910F91E7
:1008D000FF90EF90DF90CF90BF90AF900895808110
:1008E00080930A02818180930B02828180930C02A3
:1008F000838180930D02848180930E0245E09AE00B
:1009000081E1C82EA7CF80E289838C2DB70141E019
:100910000E94BE0189810C5F1D4FF801808382E037
:10092000B70141E00E94720289818D298983C6CF77
:10093000B1E1CB2EC80E45E08DCFDF92EF92FF9252
:100940000F931F93DF93CF930F92CDB7DEB7109223
:10095000A102E1E0F1E080818861808322E0E22E63
:1009600021E0F22ED7018C918F7E8C938C91877F22
:100970008C938C918F7D8C93808180628083808129
:10098000806480836C98EAE6F0E0808182608083F6
:1009900080818E7F8083EC9AE49A80EE9BEA0197B7
:1009A000F1F70E944E0183E089838E010F5F1F4F94
:1009B000B80141E00E94BE0185E1898384E0B8016D
:1009C00041E00E94BE0190E7D92ED98285E0B801AE
:1009D00041E00E94BE0189E0898386E0B80141E0E0
:1009E0000E94BE018FE0898380E0B80141E00E944F
:1009F000BE01D98287E0B80141E00E94BE0181EECC
:100A000060E070E040E050E020E00E94F70182EEFC
:100A100060E070E040E050E020E00E94F70180E4F8
:100A20009FE10197F1F7F7018081806280838081E7
:100A3000806180830F90CF91DF911F910F91FF9084
:100A4000EF90DF900895FFCFFF93FCB7FF93FFB7C0
:100A5000F894FF93EF93DF93CF93BF93AF939F935C
:100A60008F937F936F935F934F933F932F931F9336
:100A70000F93FF92EF92DF92CF92BF92AF929F922D
:100A80008F927F926F925F924F923F922F921F921E
:100A90000F928DB79EB79093E8048093E704E0919E
:100AA000A202F091A302E050FF4F808191819EBF8E
:100AB0008DBF0F901F902F903F904F905F906F9041
:100AC0007F908F909F90AF90BF90CF90DF90EF90EE
:100AD000FF900F911F912F913F914F915F916F91D7
:100AE0007F918F919F91AF91BF91CF91DF91EF91C6
:100AF000FF91FFBFFF91FCBFFF910895FF93FCB7EB
:100B0000FF93FFB7F894FF93EF93DF93CF93BF93D7
:100B1000AF939F938F937F936F935F934F933F9385
:100B20002F931F930F93FF92EF92DF92CF92BF927A
:100B3000AF929F928F927F926F925F924F923F926D
:100B40002F921F920F92E091A202F091A3028DB713
:100B50009EB7E050FF4F918380838091E70490918E
:100B6000E8049EBF8DBF0F901F902F903F904F9035
:100B70005F906F907F908F909F90AF90BF90CF903D
:100B8000DF90EF90FF900F911F912F913F914F9128
:100B90005F916F917F918F919F91AF91BF91CF9115
:100BA000DF91EF91FF91FFBFFF91FCBFFF9108958F
:100BB000FF93FCB7FF93FFB7F894F068FF93EF93B0
:100BC000DF93CF93BF93AF939F938F937F936F9355
:100BD0005F934F933F932F931F930F93FF92EF9247
:100BE000DF92CF92BF92AF929F928F927F926F923D
:100BF0005F924F923F922F921F920F92E091A2022A
:100C0000F091A3028DB79EB7E050FF4F9183808390
:100C10008091E7049091E8049EBF8DBF81E090E051
:100C200090938C0E80938B0EE8E8F0E080819181A8
:100C3000805F984D918380838091AB029091AC024C
:100C400001969093AC028093AB02809184009091C6
:100C500085009093AE028093AD028091E70490915D
:100C6000E8049EBF8DBF0F901F902F903F904F9034
:100C70005F906F907F908F909F90AF90BF90CF903C
:100C8000DF90EF90FF900F911F912F913F914F9127
:100C90005F916F917F918F919F91AF91BF91CF9114
:100CA000DF91EF91FF91FFBFFF91FCBFFF9108958E
:100CB000F89480E884B9E0913102EF5FF0E840E910
:100CC00051E0FBB960E02AEF30E0CA010197F1F78B
:100CD00021503040D1F76F5F6436A9F715B860E056
:100CE0002AEF30E0CA010197F1F721503040D1F7E7
:100CF0006F5F6832A9F7EE23F1F070E0F5B960E0BC
:100D00002AEF30E0CA010197F1F721503040D1F7C6
:100D10006F5F6A30A9F715B860E02AEF30E0CA01CA
:100D20000197F1F721503040D1F76F5F6A30A9F792
:100D30007F5F7E1718F360E02AEF30E0CA01019769
:100D4000F1F721503040D1F76F5F6431A9F7B9CF87
:100D5000CF93DF93C0919B0ED0919C0E209709F406
:100D6000D9C08091910E823009F46EC08091A602A4
:100D70009091A7020196099708F078C08091910E92
:100D8000882309F055C0C9E7DDE0DE01A150BF4F5F
:100D9000FD01B897128280E880A313A280918D0E86
:100DA00090918E0E94A380918D0E90918E0E85A3BE
:100DB00016A28CEC9AE097A38C93C050DF4FF98376
:100DC000E883239682E090E08993999380918F0E37
:100DD0009091900E899399938091910E8883809140
:100DE000920E259788838091930E9091940E2A9667
:100DF000899399938091950E9091960E89939993EA
:100E00008091970E9091980E99838883C051D1401C
:100E10008091910E823009F467C0833009F446C096
:100E2000813051F121E030E0C901DF91CF91089587
:100E3000FE01E85FFE4F8081918190939C0E80932C
:100E40009B0E11821082A1CF2091950E3091960EAB
:100E50008091930E9091940E2817390708F486CF4D
:100E600086E0809331020E94580688CF87E0809305
:100E700031020E94580682CFC85FDE4F1982188265
:100E8000C850D14080919F0E9091A00E892B09F4FB
:100E900052C0E091A10EF091A20EE85FFE4FD18307
:100EA000C083D093A20EC093A10EBCCFC85FDE4F0B
:100EB00019821882C850D1408091A30E9091A40E3F
:100EC000892B71F1E091A50EF091A60EE85FFE4F1F
:100ED000D183C083D093A60EC093A50E21E030E04D
:100EE000C901DF91CF9108958091A6029091A70248
:100EF000FC01EE0FFF1FE952FD4FD183C083019625
:100F00009093A7028093A60221E030E0C901DF910F
:100F1000CF91089520E030E0C901DF91CF9108958D
:100F2000D093A40EC093A30ED093A60EC093A50E8B
:100F300021E030E079CFD093A00EC0939F0ED093E4
:100F4000A20EC093A10E21E030E06ECF5F926F92AF
:100F50007F928F929F92AF92BF92CF92DF92EF9249
:100F6000FF920F931F93CF93DF9380918100826054
:100F700080938100ECEEF5E0A7EABEE011821082DA
:100F80001D921D92CF010F9696838583EE5EFE4FD4
:100F90008DE0EA36F80791F71682158209EE14E023
:100FA00010939C0E00939B0E87E69CE090939E0E00
:100FB00080939D0E83E295E090938E0E80938D0E2C
:100FC0001092910E8FE290E09093900E80938F0E8E
:100FD0000E94A80686E69DE090938E0E80938D0E6B
:100FE00083E08093910E0E94A8061093A3020093C1
:100FF000A20281E090E09093ED058093EC05E091F2
:10100000A30EF091A40E309751F0E85FFE4F80815F
:1010100091819093A40E8093A30E118210828091EF
:101020006F00826080936F008091840090918500B2
:10103000805F984D909389008093880082E086BB02
:10104000C0903202D0903302E090A902F090AA0240
:10105000A091A202B091A30211E0A12EB12CF1E166
:101060007F2EE2E08E2E912C7CE0672E6AE0562ED9
:1010700029C08130910509F4B3C0029708F474C007
:101080000E94A80690939A0E8093990E8091990ED3
:1010900090919A0E892B09F467C08091910E83304C
:1010A00009F4A8C1A091A202B091A302A95FBE4F0A
:1010B0008C91A750B140813009F48CC110928C0EF4
:1010C00010928B0EAD5FBE4F8D919C911197A350E6
:1010D000B140019709F44DC02091A30E3091A40EA8
:1010E0002115310509F4E5C0F901E85FFE4F808163
:1010F00091819093A40E8093A30E1182108230935D
:10110000A3022093A202E091A202F091A302ED5F5C
:10111000FE4FA192B192808190E0E91692E0F9062B
:1011200040F4F701E951FD4F805D80830894E11C94
:10113000F11C0E94240580918B0E90918C0E8330BF
:101140009105D9F08430910508F493CF853091054D
:1011500059F08530910508F48FC0069709F47DC0D9
:10116000609231020E945806A091A202B091A3029F
:10117000A5CFAC15BD05E9F6AFCFA091A202B09105
:10118000A302CA16DB0609F499CFAD5FBE4F1196D4
:101190001C921E9214968C91A750B140823009F493
:1011A0000CC1A85FBE4F11961C921E92A850B14070
:1011B00080919B0E90919C0E892B09F42FC1E09198
:1011C0009D0EF0919E0EE85FFE4FB183A083B09319
:1011D0009E0EA0939D0EA091A202B091A3026ECF8D
:1011E0000091A6021091A7020115110509F0B2C0E5
:1011F000A091A202B091A302A95FBE4F8C91A7500B
:10120000B140813009F05ACFFD01ED5FFE4F808182
:101210009181019709F052CF91828082A85FBE4FE1
:1012200011961C921E92A850B14080919F0E9091F1
:10123000A00E892B09F457C1E091A10EF091A20EE6
:10124000E85FFE4FB183A083B093A20EA093A10EDE
:10125000A091A202B091A30231CFA091A202B091BD
:10126000A302A95FBE4F8C91A750B140833009F40F
:1012700025CF1092A80222CFA091A202B091A30282
:10128000ED01CD5FDE4F88819981019709F016CF7E
:10129000A95FBE4F8C91A750B140823009F418C1AC
:1012A000833009F4FBC0813009F4DDC09982888263
:1012B00005CF8091A6029091A702009709F4BBC0C8
:1012C000C7EDD2E020E030E08C01000F111F0C0FC1
:1012D0001D1F06C0D9012296C017D107C9F09D0174
:1012E000A881B981A05FBE4F8D919C911197A051AB
:1012F000B1401816190674F3232B69F3709231026A
:101300000E945806A881B9812296C017D10739F7E3
:10131000109709F490C0B093A302A093A202FD011C
:10132000E05FFE4FA45FBE4F808191812D913C9183
:101330001197AC50B140820F931F918380838091AD
:10134000A802882309F0DFCEA25FBE4F8C91809364
:10135000A802D9CE8091A80281508093A8028091E2
:10136000A802882329F5A091A202B091A3021097A8
:1013700039F0A95FBE4F8C91A750B1408230A1F0E7
:10138000C7EDD2E09801220F331F2C0F3D1FE991CA
:10139000F991E05FFE4F8081918101979183808375
:1013A000C217D307A1F728CF509231020E945806E6
:1013B000A091A202B091A302E3CFAE5FBE4FEC9129
:1013C000A250B140F0E0EE0FFF1FE955F14F11823E
:1013D0001082E7CE8091910E823009F47CC0AD5F1F
:1013E000BE4F8D919C911197A350B140029709F087
:1013F00065CE14CFA091A202B091A302A95FBE4F07
:101400008C91A750B140833009F458CEAD5FBE4FE8
:1014100011969C928E92A350B14048CEB0939C0EF0
:10142000A0939B0EB0939E0EA0939D0EA091A2023E
:10143000B091A30243CE20919F0E3091A00E2115B2
:10144000310509F45DC0F901E85FFE4F80819181AB
:101450009093A00E80939F0E118210823093A3026E
:101460002093A20250CEA85FBE4F11961C921E92EE
:10147000A850B14080919F0E9091A00E892B09F445
:1014800044C0E091A10EF091A20EE85FFE4FB1833F
:10149000A083B093A20EA093A10E08CFA85FBE4F69
:1014A00011961C921E92A850B1408091A30E90916B
:1014B000A40E892B99F1E091A50EF091A60EE85F9C
:1014C000FE4FB183A083B093A60EA093A50EEECEDF
:1014D0001092A802EBCEAD5FBE4F11969C928E92F9
:1014E000A350B1409BCEB093A00EA0939F0EB0939B
:1014F000A20EA093A10EA091A202B091A302DECDF4
:10150000D092A302C092A202FECDB093A00EA093EF
:101510009F0EB093A20EA093A10EC8CEB093A40EBE
:10152000A093A30EB093A60EA093A50EBFCE1F93BB
:101530001FB7F89490938E0E80938D0E7093900E3B
:1015400060938F0E4093910E2093920E82E090E074
:1015500090938C0E80938B0E0E947E052091990EA5
:1015600030919A0E1FBFC9011F910895DF93CF9349
:101570000F92CDB7DEB78FB78983F89484E090E0FF
:1015800090938C0E80938B0E0E947E0589818FBF75
:101590000F90CF91DF9108951F931FB7F89483E0C8
:1015A00090E090938C0E80938B0E0E947E051FBF5F
:1015B0001F9108958FB7F8948FBFE091A202F09128
:1015C000A302EB5FFE4F808191810895809184009A
:1015D000909185002091AD023091AE02821B930B59
:1015E00060ED77E00E94240E2091AB023091AC02B6
:1015F000C901880F991F880F991F820F931F680FC9
:10160000791FCB0108950F931F93CF93DF93C09160
:10161000A402D091A5028E010F5F1F4F0630110565
:1016200028F08DE0809331020E945806CC0FDD1F18
:10163000CC0FDD1FCC0FDD1FDE01A155BD4F119674
:101640001C921E92FE01EF54FD4F11821082CD5468
:10165000DD4F1982188217961C921E9216971093CE
:10166000A5020093A402CD01DF91CF911F910F91AC
:1016700008956F927F928F929F92AF92BF92CF9276
:10168000DF92EF92FF920F931F93CF93DF93EC01C2
:101690004B018091A4029091A502892B09F4CBC043
:1016A000209709F4C8C08A819B81892B09F4CDC099
:1016B000AC81BD81109709F4CDC0FD01E85FFE4FFC
:1016C000808191819D838C8311821082C090A202BF
:1016D000D090A3020091A10E1091A20E40919F0EF6
:1016E0005091A00E6091A50E7091A60EE090A30EF1
:1016F000F090A40EAA24BB24F2E06F2E712C87E098
:1017000091E0C80ED91EFD01ED5FFE4F80819181F1
:101710000397C1F0DA012C813D8121153105C9F112
:10172000F901E85FFE4F808191819D838C83118256
:101730001082AD01D901FD01ED5FFE4F80819181E5
:10174000039741F7A95FBE4F8C91A750B1408330FA
:1017500009F44DC08130F1F671826082A65FBE4F00
:10176000ED91FC911197918280821E921E92A85059
:10177000B1404115510509F478C0085F1E4FF801CA
:10178000B183A0838D01DA012C813D8121153105C2
:1017900039F61093A20E0093A10EB093A00EA09361
:1017A0009F0E7093A60E6093A50EF092A40EE09289
:1017B000A30E1B821A82AB2859F01FB7F89486E05B
:1017C00090E090938C0E80938B0E0E947E051FBF3D
:1017D000DF91CF911F910F91FF90EF90DF90CF900D
:1017E000BF90AF909F908F907F906F90089571827F
:1017F0006082A65FBE4FED91FC911197AA50B14057
:1018000091828082F6018081833019F0E1E0AE2E72
:10181000B12CA85FBE4F11961C921E92A850B140E9
:10182000E114F104F1F0685F7E4FFB01B183A08306
:10183000BD01DA0170CF8EE0809331020E9458061C
:101840008A819B81892B09F033CF80E1809331021B
:101850000E945806109231020E9458061B821A827A
:10186000B7CFBD017D01DA0156CF8D0154CF0F9363
:101870001F93CF93DF93EC018B018091A402909191
:10188000A502892BA1F1209791F1A091A202B0911C
:10189000A302A95FBE4F8C91A750B140823089F15D
:1018A000AD5FBE4F83E090E011969C938E931796A8
:1018B00011961C930E931E921E92A850B1408C81DB
:1018C0009D81892B41F1EE81FF81E85FFE4FB1835D
:1018D000A083BF83AE838A819B8101969B838A8389
:1018E0000E94B60ADF91CF911F910F9108958EE06B
:1018F000809331020E945806A091A202B091A302E7
:10190000CFCF8FE0809331020E945806A091A202AF
:10191000B091A302C5CFBD83AC83BF83AE83DBCFC1
:10192000FF920F931F93FFB6F89490938E0E8093BF
:101930008D0E7093900E60938F0E82E08093910EC7
:101940005093940E4093930E3093960E2093950EE1
:101950001093980E0093970E82E090E090938C0E77
:1019600080938B0E0E947E058091990E90919A0E25
:10197000FFBE1F910F91FF9008951F931FB7F8941A
:1019800090938E0E80938D0E7093900E60938F0EB9
:1019900083E08093910E82E090E090938C0E809390
:1019A0008B0E0E947E058091990E90919A0E1FBF1A
:1019B0001F9108951F931FB7F89490938E0E8093F4
:1019C0008D0E7093900E60938F0E81E08093910E38
:1019D00082E090E090938C0E80938B0E0E947E05A7
:1019E0008091990E90919A0E1FBF1F910895E1E08A
:1019F000F1E01082808180648083808180628083B6
:101A00008081806180838081886080830895982FA1
:101A10001092020180FF05C08091020180648093D2
:101A20000201969590FF05C080910201806280932B
:101A30000201969590FF05C080910201806180931C
:101A40000201892F869580FF05C080910201886080
:101A50008093020108950E94A60780E090E0089517
:101A600085B190E4892785B908951092060F1092E8
:101A7000070F1092090F1092080F10920A0F81E0C1
:101A800080930B0F84E080930C0F21E030E03093C3
:101A90000E0F20930D0F10920F0F82E08093100F06
:101AA00088E08093110F3093130F2093120F109240
:101AB000140F83E08093150F8CE08093160F309302
:101AC000180F2093170F1092190F08950F931F935B
:101AD000279A269A80910A01846080930A01809156
:101AE0000B018B7F80930B0128E833E140E951E043
:101AF000CA010197F1F721503040D1F780910B01D5
:101B0000846080930B0128E833E140E951E0CA0189
:101B10000197F1F721503040D1F70E949D0480E0F9
:101B200090E064E372E041E050E00E94090480E04C
:101B300090E063E070E00E94D0030E94F1000E94F8
:101B400095000E94350D8BEF9DE061E070E044E16F
:101B500050E02FE030E000E010E00E94900C80E0C8
:101B600090E01F910F910895EF92FF920F931F93B2
:101B7000082FF62EE42E85E0089FC00111248C5E0C
:101B80009D4F0E94E101F092BE0EE092BF0E1092B6
:101B9000C00E0093C10E10E0F801EE0FFF1FEE0F14
:101BA000FF1FE00FF11FEA5FF04F82818093C20EAA
:101BB00084818093C30EA9ECBEE0E4E3F2E085E00B
:101BC00001900D928150E1F7A9ECBEE0E9EBFEE057
:101BD0008DE001900D928150E1F786EC9EE060E08F
:101BE00070E00E94740385B1805885B91F910F91F0
:101BF000FF90EF900895EF92FF920F931F93EE24C2
:101C00000E941F028E2D90E08C01000F111F000F0B
:101C1000111F080F191F0A5F104FF80181810E94E0
:101C2000AC00F82EF80181818F5F0E94AC00482F34
:101C30008E2D6F2D20E00E94B40D0E94B60AE39411
:101C4000F1E0FE15E0F2DCCFAA1BBB1B51E107C09F
:101C5000AA1FBB1FA617B70710F0A61BB70B881F3C
:101C6000991F5A95A9F780959095BC01CD010895CB
:101C700097FB092E07260AD077FD04D0E5DF06D0B2
:101C800000201AF4709561957F4F0895F6F79095AE
:0A1C900081959F4F0895F894FFCF4F
:101C9A00FF000100202000000000E7E7E7E7E7E790
:101CAA00E7E7E7E74A4A4A4A4A4B4B4B4B4B4C4C0D
:101CBA004C4C4C4D4D4D4D4D686A6C6EFFFFFFFF0D
:0A1CCA00FF08790DFFFFFFFFFF0088
:00000001FF
