:100000000C9472000C9493000C9493000C94930045
:100010000C9493000C944E020C9493000C94930057
:100020000C9493000C9493000C9493000C94930004
:100030000C9493000C9493000C9493000C949300F4
:100040000C9493000C945C050C9493000C94930016
:100050000C9493000C9493000C9493000C949300D4
:100060000C9493000C9493000C9493000C949300C4
:100070000C9493000C9493000C9493000C949300B4
:100080000C9493000C9493000C9493000C949300A4
:100090000C9493000C9493000C9493000C94930094
:1000A0000C9493000C9493000C9493000C94930084
:1000B0000C9493000C9493000C9493000C94930074
:1000C0000C9493000C9493000C9493000C94930064
:1000D0000C9493000C9493000C9493000C94930054
:1000E0000C94930011241FBECFEFD1E2DEBFCDBF31
:1000F00000E00CBF12E0A0E0B2E0E8EAFAE100E0C4
:100100000BBF02C007900D92A033B107D9F71EE0D4
:10011000A0E3B2E001C01D92A836B107E1F70E944A
:10012000E10C0C94520D0C9400001092C50087E66F
:100130008093C40088E18093C1008EE08093C20068
:100140000895982F8091C00085FFFCCF9093C60042
:100150000895AC0161157105C1F020E030E090E236
:10016000FA01E20FF31FE0818091C00085FFFCCF10
:10017000E093C6008091C00085FFFCCF9093C6003D
:100180002F5F3F4F2617370758F38091C00085FF38
:10019000FCCF8DE08093C6008091C00085FFFCCF2E
:1001A0008AE08093C600089584B1807F84B984B1C9
:1001B000876084B9289A80E58CBD81E08DBD289840
:1001C0000895DC01442399F020E030E0FD01E20FC6
:1001D000F31F80818EBD0DB407FEFDCF8EB5FB01F0
:1001E000E20FF31F80832F5F3F4F241778F30895AA
:1001F000482F662361F09C01F90180818EBD0DB40A
:1002000007FEFDCF31968E2F841B8617B0F308951D
:100210008EBD0DB407FEFDCF8EB5089580911802F6
:10022000909119020097E1F020E080FD2F5F9695F4
:1002300087950097D1F780E190E0821B910924E631
:1002400030E0AC01429FC001439F900D529F900D42
:100250001124929582958F7089279F708927089520
:1002600084E608950F931F9302E011E0F801808166
:100270008F7B80838FEF0E940801F801908190644A
:1002800090831F910F910895CF92DF92EF92FF928A
:100290000F931F937B01C42E02E011E0F8019081BF
:1002A0009F7B90838F7180620E940801D82EC701C6
:1002B0006C2D0E94F800F8018081806480838D2D70
:1002C0001F910F91FF90EF90DF90CF900895FC0168
:1002D000808180932702818180932802828180938C
:1002E0002902838180932A02848180932B0280E1FA
:1002F000BF0145E00E9444010895EF92FF921F93D1
:10030000CF93DF937B01EA01122F909102019F7B33
:10031000909302010E940801112339F0209781F087
:10032000C701BE01412F0E94E1008091020180645B
:1003300080930201DF91CF911F91FF90EF9008957C
:10034000C701612F0E94F800F0CF81EE60E070E0FD
:1003500040E050E020E00E947D0182EE60E070E02D
:1003600040E050E020E00E947D0108950F931F932C
:10037000182F092F10923002809102018F7D8093F7
:1003800002010E94320190E08E70907095958795E1
:10039000282FFC01E45EFD4F8081813268F020E06F
:1003A00030E080910201806280930201109230025D
:1003B000C9011F910F9108952730B9F0208181E67E
:1003C000612F702F412F502F0E947D010E9432011A
:1003D00090E08E70907095958795873019F424E0A1
:1003E00030E0DFCF23E030E0DCCF22E030E0D9CFD7
:1003F000EF92FF920F931F93582FF62EE72E042FA4
:10040000442351F0862F972F9C01F9019FEF919380
:100410008E2F8F198017D8F3809102018F7B8093E4
:100420000201852F8F710E940801182F80E090E053
:100430006F2D7E2D402F0E94E1008091020180648B
:1004400080930201812F1F910F91FF90EF900895EB
:100450000F931F93DF93CF930F92CDB7DEB780E05A
:100460008E010F5F1F4FB80141E00E94F8018981A2
:1004700080FD0EC08160898380E0B80141E00E9468
:10048000440184E091E0FC013197F1F70197F1F725
:100490000F90CF91DF911F910F9108951F920F92AE
:1004A0000FB60F920BB60F9211242F933F934F93D9
:1004B0005F936F937F938F939F93AF93BF93EF93CC
:1004C000FF93DF93CF930F92CDB7DEB780910201F8
:1004D0008F7E80930201809102018F7D80930201C3
:1004E0000E943201898390E086FD6FC0898185FF7B
:1004F0004BC01092300280911C02882309F06CC01E
:100500000E9428028091180290911902880F991F69
:100510009093190280931802809118029091190209
:100520008160909319028093180281E090E090938B
:100530001B0280931A0280E7898387E0BE016F5F08
:100540007F4F41E00E9444018091020180618093CD
:100550000201809102018062809302010F90CF918D
:10056000DF91FF91EF91BF91AF919F918F917F911B
:100570006F915F914F913F912F910F900BBE0F9014
:100580000FBE0F901F90189584FFD5CF81EE60E0CD
:1005900070E040E050E020E00E947D0110923002C7
:1005A00080911C028823F9F40E942802809118028D
:1005B00090911902880F991F909319028093180245
:1005C00010921B0210921A02B6CF8E709070959501
:1005D00087950E94E60C8ACF8AE062E272E045E0ED
:1005E0000E9444018DCF8AE062E272E045E00E9401
:1005F0004401DACFCF92DF92EF92FF920F931F93D5
:10060000DF93CF930F92CDB7DEB77C016B0181E012
:1006100080933002809102018F7D8093020180E0FF
:100620008E010F5F1F4FB80141E00E94F8018981E0
:1006300080FD2DC08AE067E272E045E00E9444013F
:100640008091020188608093020180EAB70140E056
:1006500050E020E20E947D0180910201806280933F
:100660000201CD2891F4809130028823E1F7809136
:100670001A0290911B020F90CF91DF911F910F9161
:10068000FF90EF90DF90CF90089581E0F4CF8E7FC0
:10069000898380E0B80141E00E94440184E091E058
:1006A000FC013197F1F70197F1F7C4CFCF92DF92B8
:1006B000EF92FF920F931F93DF93CF930F92CDB7DB
:1006C000DEB77C018B016430710520F482E0E8160E
:1006D000F10450F00F90CF91DF911F910F91FF9097
:1006E000EF90DF90CF90089586E06E010894C11CD2
:1006F000D11CB60141E00E94F801602F660F89818C
:1007000086606823EF2841F4677F698386E0B6013D
:1007100041E00E944401DECF68606983F7CFAF9269
:10072000BF92CF92DF92EF92FF920F931F93DF93CE
:10073000CF930F92CDB7DEB78C01FB015A01863003
:10074000910508F046C0009709F44FC0982F965FB6
:100750000130110509F472C0A1E1CA2EC80E41E0B2
:10076000892FBF010E94440181E07E010894E11CB1
:10077000F11CB70141E00E94F80181E090E0002EF9
:1007800002C0880F991F0A94E2F7D82E89818D291B
:10079000898381E0B70141E00E944401AB28C9F59B
:1007A00019828C2DB70141E00E9444018981045EC9
:1007B0001D4FF801808382E0B70141E00E94F801FB
:1007C000D09489818D21898382E0B70141E00E9424
:1007D00044010F90CF91DF911F910F91FF90EF9007
:1007E000DF90CF90BF90AF900895808180932202D8
:1007F000818180932302828180932402838180936C
:10080000250284818093260245E09AE081E1C82E8A
:10081000A7CF80E289838C2DB70141E00E9444017B
:100820008981045E1D4FF801808382E0B70141E0B9
:100830000E94F80189818D298983C6CFB1E1CB2E31
:10084000C80E45E08DCFEF92FF920F931F93DF9379
:10085000CF930F92CDB7DEB710923002E1E0F1E016
:1008600080818861808392E0E92E91E0F92ED701A2
:100870008C918F7E8C938C91877F8C938C918F7DC4
:100880008C938081806280838081806480836C9877
:10089000EAE6F0E080818260808380818E7F8083C1
:1008A000EC9AE49A80EE9BEA0197F1F70E94D4005B
:1008B00083E089838E010F5F1F4FB80141E00E94E2
:1008C000440185E1898384E0B80141E00E9444014C
:1008D00088E6898385E0B80141E00E94440189E00F
:1008E000898386E0B80141E00E9444018FE089835A
:1008F00080E0B80141E00E94440180E7898387E0FD
:10090000B80141E00E94440181EE60E070E040E007
:1009100050E020E00E947D0182EE60E070E040E067
:1009200050E020E00E947D0180E49FE10197F1F713
:10093000F7018081806280838081806180830F9055
:10094000CF91DF911F910F91FF90EF900895FFCF0E
:10095000FF93FCB7FF93FFB7F894FF93EF93DF93F8
:10096000CF93BF93AF939F938F937F936F935F9337
:100970004F933F932F931F930F93FF92EF92DF922A
:10098000CF92BF92AF929F928F927F926F925F921F
:100990004F923F922F921F920F928DB79EB79093D6
:1009A000770480937604E0913102F0913202E050B6
:1009B000FF4F808191819EBF8DBF0F901F902F9020
:1009C0003F904F905F906F907F908F909F90AF90EF
:1009D000BF90CF90DF90EF90FF900F911F912F91DC
:1009E0003F914F915F916F917F918F919F91AF91C7
:1009F000BF91CF91DF91EF91FF91FFBFFF91FCBFBE
:100A0000FF910895FF93FCB7FF93FFB7F894FF930E
:100A1000EF93DF93CF93BF93AF939F938F937F9386
:100A20006F935F934F933F932F931F930F93FF9277
:100A3000EF92DF92CF92BF92AF929F928F927F926E
:100A40006F925F924F923F922F921F920F92E0917E
:100A50003102F09132028DB79EB7E050FF4F918383
:100A6000808380917604909177049EBF8DBF0F9014
:100A70001F902F903F904F905F906F907F908F903E
:100A80009F90AF90BF90CF90DF90EF90FF900F912D
:100A90001F912F913F914F915F916F917F918F9116
:100AA0009F91AF91BF91CF91DF91EF91FF91FFBFE8
:100AB000FF91FCBFFF910895FF93FCB7FF93FFB731
:100AC000F894F068FF93EF93DF93CF93BF93AF93C6
:100AD0009F938F937F936F935F934F933F932F9346
:100AE0001F930F93FF92EF92DF92CF92BF92AF923C
:100AF0009F928F927F926F925F924F923F922F922E
:100B00001F920F92E0913102F09132028DB79EB7A1
:100B1000E050FF4F91838083809176049091770419
:100B20009EBF8DBF81E090E090931B0E80931A0EC4
:100B3000E8E8F0E080819181805F984D9183808327
:100B400080913A0290913B02019690933B028093F0
:100B50003A02809184009091850090933D028093A9
:100B60003C0280917604909177049EBF8DBF0F90D8
:100B70001F902F903F904F905F906F907F908F903D
:100B80009F90AF90BF90CF90DF90EF90FF900F912C
:100B90001F912F913F914F915F916F917F918F9115
:100BA0009F91AF91BF91CF91DF91EF91FF91FFBFE7
:100BB000FF91FCBFFF9108951F931FB7F894909386
:100BC0001D0E80931C0E70931F0E60931E0E40939B
:100BD000200E2093210E82E090E090931B0E8093D4
:100BE0001A0E0E9402052091280E3091290E1FBF77
:100BF000C9011F910895DF93CF930F92CDB7DEB750
:100C00008FB78983F89484E090E090931B0E8093D3
:100C10001A0E0E94020589818FBF0F90CF91DF913C
:100C200008951F931FB7F89483E090E090931B0EF4
:100C300080931A0E0E9402051FBF1F9108958FB75F
:100C4000F8948FBFE0913102F0913202EB5FFE4FDA
:100C500080819181089580918400909185002091F8
:100C60003C0230913D02821B930B60ED77E00E94C5
:100C70003E0D20913A0230913B02C901880F991F25
:100C8000880F991F820F931F680F791FCB0108955A
:100C9000FF920F931F93FFB6F89490931D0E8093CD
:100CA0001C0E70931F0E60931E0E82E08093200E28
:100CB0005093230E4093220E3093250E2093240E42
:100CC0001093270E0093260E82E090E090931B0E67
:100CD00080931A0E0E9402058091280E9091290E91
:100CE000FFBE1F910F91FF9008951F931FB7F894B7
:100CF00090931D0E80931C0E70931F0E60931E0E1A
:100D000083E08093200E82E090E090931B0E80930E
:100D10001A0E0E9402058091280E9091290E1FBF85
:100D20001F9108951F931FB7F89490931D0E809301
:100D30001C0E70931F0E60931E0E81E08093200E98
:100D400082E090E090931B0E80931A0E0E940205A1
:100D50008091280E9091290E1FBF1F910895E1E008
:100D6000F1E0108280818064808380818062808352
:100D70008081806180838081886080830895982F3E
:100D80001092020180FF05C080910201806480936F
:100D90000201969590FF05C08091020180628093C8
:100DA0000201969590FF05C08091020180618093B9
:100DB0000201892F869580FF05C08091020188601D
:100DC0008093020108951F93F89480E884B91091EC
:100DD0002C021F5F80E895E20E9495006091350229
:100DE0007091360286E792E00E94A900E0E840E9AF
:100DF00051E0EBB960E02AEF30E0CA010197F1F76A
:100E000021503040D1F76F5F6436A9F715B860E024
:100E10002AEF30E0CA010197F1F721503040D1F7B5
:100E20006F5F6832A9F71123F1F070E0E5B960E077
:100E30002AEF30E0CA010197F1F721503040D1F795
:100E40006F5F6A30A9F715B860E02AEF30E0CA0199
:100E50000197F1F721503040D1F76F5F6A30A9F761
:100E60007F5F711718F360E02AEF30E0CA01019745
:100E7000F1F721503040D1F76F5F6431A9F7B9CF56
:100E80000F931F93CF93DF93EC018B01809133027B
:100E900090913402892BA1F1209791F1A091310218
:100EA000B0913202A95FBE4F8C91A750B140823001
:100EB00089F1AD5FBE4F83E090E011969C938E93D5
:100EC000179611961C930E931E921E92A850B14035
:100ED0008C819D81892B41F1EE81FF81E85FFE4F7E
:100EE000B183A083BF83AE838A819B8101969B835C
:100EF0008A830E94FB05DF91CF911F910F91089586
:100F00008EE080932C020E94E306A0913102B09102
:100F10003202CFCF8FE080932C020E94E306A09193
:100F20003102B0913202C5CFBD83AC83BF83AE83A3
:100F3000DBCF6F927F928F929F92AF92BF92CF92B0
:100F4000DF92EF92FF920F931F93CF93DF93EC0109
:100F50004B018091330290913402892B09F4CBC06C
:100F6000209709F4C8C08A819B81892B09F4CDC0E0
:100F7000AC81BD81109709F4CDC0FD01E85FFE4F43
:100F8000808191819D838C8311821082C090310277
:100F9000D09032020091300E1091310E40912E0E01
:100FA00050912F0E6091340E7091350EE090320EFC
:100FB000F090330EAA24BB24F2E06F2E712C87E050
:100FC00091E0C80ED91EFD01ED5FFE4F8081918139
:100FD0000397C1F0DA012C813D8121153105C9F15A
:100FE000F901E85FFE4F808191819D838C8311829E
:100FF0001082AD01D901FD01ED5FFE4F808191812D
:10100000039741F7A95FBE4F8C91A750B140833041
:1010100009F44DC08130F1F671826082A65FBE4F47
:10102000ED91FC911197918280821E921E92A850A0
:10103000B1404115510509F478C0085F1E4FF80111
:10104000B183A0838D01DA012C813D812115310509
:1010500039F61093310E0093300EB0932F0EA093FB
:101060002E0E7093350E6093340EF092330EE09294
:10107000320E1B821A82AB2859F01FB7F89486E013
:1010800090E090931B0E80931A0E0E9402051FBFE2
:10109000DF91CF911F910F91FF90EF90DF90CF9054
:1010A000BF90AF909F908F907F906F9008957182C6
:1010B0006082A65FBE4FED91FC911197AA50B1409E
:1010C00091828082F6018081833019F0E1E0AE2EBA
:1010D000B12CA85FBE4F11961C921E92A850B14031
:1010E000E114F104F1F0685F7E4FFB01B183A0834E
:1010F000BD01DA0170CF8EE080932C020E94E306DE
:101100008A819B81892B09F033CF80E180932C0267
:101110000E94E30610922C020E94E3061B821A82B0
:10112000B7CFBD017D01DA0156CF8D0154CF20919B
:10113000330230913402C9010196069748F08DE0E0
:1011400080932C020E94E3062091330230913402F6
:10115000F901EE0FFF1FEE0FFF1FEE0FFF1FE25C06
:10116000FD4F11821082D901AA0FBB1FAA0FBB1F0E
:10117000AA0FBB1FA05CBD4F1D921C92D901AA0FE4
:10118000BB1FAA0FBB1FAA0FBB1FAE5BBD4F1D929B
:101190001C92178216822F5F3F4F309334022093A8
:1011A0003302CF010895CF93DF9380912A0E90915F
:1011B0002B0E892B09F4E0C08091200E823009F4B7
:1011C00075C080913702909138020196099708F016
:1011D0007FC08091200E882309F055C0C8E0DDE073
:1011E000DE01A150BF4FFD01B897128280E880A3B5
:1011F00013A280911C0E90911D0E94A380911C0E41
:1012000090911D0E85A316A281E196E097A38C9381
:10121000C050DF4FF983E883239682E090E0899302
:10122000999380911E0E90911F0E899399938091AE
:10123000200E88838091210E259788838091220E2D
:101240009091230E2A96899399938091240E9091E0
:10125000250E899399938091260E9091270E99835C
:101260008883C051D1408091200E823009F46EC035
:10127000833009F44DC0813089F121E030E0C901AB
:10128000DF91CF910895C0912A0ED0912B0E209717
:1012900009F4A6CFFE01E85FFE4F80819181909313
:1012A0002B0E80932A0E118210829ACF2091240E49
:1012B0003091250E8091220E9091230E2817390728
:1012C00008F47FCF86E080932C020E94E30681CF52
:1012D00087E080932C020E94E3067BCFC85FDE4F3D
:1012E00019821882C850D14080912E0E90912F0EF5
:1012F000892B09F452C0E091300EF091310EE85F75
:10130000FE4FD183C083D093310EC093300EB5CF42
:10131000C85FDE4F19821882C850D1408091320ECA
:101320009091330E892B71F1E091340EF091350ECE
:10133000E85FFE4FD183C083D093350EC093340E47
:1013400021E030E0C901DF91CF910895809137020B
:1013500090913802FC01EE0FFF1FEA59FD4FD18337
:10136000C0830196909338028093370221E030E0E9
:10137000C901DF91CF91089520E030E0C901DF91EC
:10138000CF910895D093330EC093320ED093350E83
:10139000C093340E21E030E072CFD0932F0EC09373
:1013A0002E0ED093310EC093300E21E030E067CF87
:1013B0007F928F929F92AF92BF92CF92DF92EF92E5
:1013C000FF920F931F93CF93DF93809181008260F0
:1013D00080938100EBE7F5E0A6E3BEE01182108286
:1013E0001D921D92CF010F9696838583EE5EFE4F70
:1013F0003CE0E93FF30791F71682158208E714E015
:1014000010932B0E00932A0E86EF9BE090932D0EE7
:1014100080932C0E87EA94E090931D0E80931C0E0F
:101420001092200E8FE290E090931F0E80931E0E7C
:101430000E94D30887EE9CE090931D0E80931C0EB3
:1014400083E08093200E0E94D30810933202009311
:10145000310281E090E090937C0580937B05E091E0
:10146000320EF091330E309751F0E85FFE4F8081DD
:1014700091819093330E8093320E1182108280916D
:101480006F00826080936F0080918400909185004E
:10149000805F984D909389008093880082E086BB9E
:1014A000E0902D02F0902E02A0913102B091320214
:1014B00001E0C02ED12C11E1912EF2E0AF2EB12C23
:1014C000ECE08E2E7AE0772E29C08130910509F468
:1014D000B8C0029708F479C00E94D3089093290EEF
:1014E0008093280E8091280E9091290E892B09F463
:1014F0006CC08091200E833009F4C6C1A0913102E6
:10150000B0913202A95FBE4F8C91A750B14081309B
:1015100009F4AAC110921B0E10921A0EAD5FBE4FB5
:101520008D919C911197A350B140019709F452C03D
:101530002091320E3091330E2115310509F42BC163
:10154000F901E85FFE4F808191819093330E809383
:10155000320E118210823093320220933102E091D8
:101560003102F0913202ED5FFE4FC192D1922081A3
:10157000809135029091360232E08030930750F42A
:10158000FC01EA58FD4F205D2083019690933602BE
:10159000809335020E94A80480911A0E90911B0E30
:1015A00083309105D9F08430910508F48ECF8530D1
:1015B000910559F08530910508F4D0C0069709F4DB
:1015C000BEC080922C020E94E306A0913102B0912D
:1015D0003202A0CFAE15BF05E9F6AACFA091310225
:1015E000B0913202EA16FB0609F494CFAD5FBE4F0C
:1015F00011961C921E9214968C91A750B140823085
:1016000009F420C1A85FBE4F11961C921E92A850EB
:10161000B14080912A0E90912B0E892B09F448C17C
:10162000E0912C0EF0912D0EE85FFE4FB183A08368
:10163000B0932D0EA0932C0EA0913102B0913202E6
:1016400069CF6091370270913802AB016115710565
:1016500009F468C0809139028150809339028091E9
:101660003902882309F0FBC0A0913102B091320207
:10167000109741F0A95FBE4F8C91A750B1408230C6
:1016800009F444C0BA01C6E6D2E020E030E0E991B6
:10169000F991E05FFE4F8081918101979183808372
:1016A0002F5F3F4F2617370790F3A95FBE4F8C91EE
:1016B000A750B140813009F02DCFFD01ED5FFE4F05
:1016C00080819181019709F025CFB182A082A85F26
:1016D000BE4F11961C921E92A850B14080912E0EC2
:1016E00090912F0E892B09F448C1E091300EF091B2
:1016F000310EE85FFE4FB183A083B093310EA0930B
:10170000300EA0913102B091320204CF70922C02BF
:101710000E94E306609137027091380261157105ED
:1017200009F09DC0A0913102B0913202A95FBE4F75
:101730008C91A750B140813009F0ECCEBECFA09182
:101740003102B0913202A95FBE4F8C91A750B140D7
:10175000833009F4DFCE10923902DCCEA091310241
:10176000B0913202ED01CD5FDE4F88819981019702
:1017700009F0D0CEA95FBE4F8C91A750B140823006
:1017800009F4F0C0833009F4D3C0813009F4B5C046
:10179000B982A882BFCE40913702509138024115DC
:1017A000510509F492C0C6E6D2E000E010E020E066
:1017B00030E008C0D9010F5F1F4F229604171507AC
:1017C000F8F49D01A881B981A05FBE4F8D919C91D5
:1017D0001197A051B1401816190664F3232B59F341
:1017E00090922C020E94E306A881B98140913702B1
:1017F000509138020F5F1F4F22960417150708F308
:10180000109709F462C0B0933202A0933102FD0137
:10181000E05FFE4FA45FBE4F808191812D913C918E
:101820001197AC50B140820F931F918380838091B8
:101830003902882309F093CEA25FBE4F8C9180932A
:1018400039028DCEAE5FBE4FEC91A250B140F0E0B8
:10185000EE0FFF1FEA5CF14F11821082D3CEA091F0
:101860003102B09132020FCF8091200E823009F404
:101870007CC0AD5FBE4F8D919C911197A350B1403C
:10188000029709F047CE23CFA0913102B0913202E6
:10189000A95FBE4F8C91A750B140833009F43ACE76
:1018A000AD5FBE4F1196BC92AE92A350B1402ACE0E
:1018B000B0932B0EA0932A0EB0932D0EA0932C0E56
:1018C000A0913102B091320225CE20912E0E30919E
:1018D0002F0E2115310509F45DC0F901E85FFE4FB7
:1018E0008081918190932F0E80932E0E1182108211
:1018F000309332022093310232CEA85FBE4F119650
:101900001C921E92A850B14080912E0E90912F0EE5
:10191000892B09F444C0E091300EF091310EE85F5C
:10192000FE4FB183A083B093310EA093300E30CF21
:10193000A85FBE4F11961C921E92A850B140809194
:10194000320E9091330E892B99F1E091340EF09183
:10195000350EE85FFE4FB183A083B093350EA093A0
:10196000340E16CF1092390213CFAD5FBE4F1196D1
:10197000BC92AE92A350B140AACEB0932F0EA093CA
:101980002E0EB093310EA093300EA0913102B09183
:101990003202C0CDF0923202E0923102E0CDB0933B
:1019A0002F0EA0932E0EB093310EA093300EF0CEDA
:1019B000B093330EA093320EB093350EA093340E35
:1019C000E7CE0E94D80980E090E0089508950F9333
:1019D0001F93279A80910A01846080930A01809165
:1019E0000B018B7F80930B0128E833E140E951E044
:1019F000CA010197F1F721503040D1F780910B01D6
:101A0000846080930B0128E833E140E951E0CA018A
:101A10000197F1F721503040D1F70E94230480E074
:101A200090E060E072E041E050E00E948F0381E0CE
:101A300090E063E070E00E9456038EE29DE061E07A
:101A400070E044E150E02FE030E000E010E00E9460
:101A5000480680E090E01F910F91089585E092E0A4
:101A60000E94670188E49EE060E070E00E94FA0254
:101A700085B1805885B90E94FB05F4CFAA1BBB1B1A
:101A800051E107C0AA1FBB1FA617B70710F0A61B7E
:101A9000B70B881F991F5A95A9F780959095BC019F
:081AA000CD010895F894FFCF79
:101AA800AAAAAAAAAABBBBBBBBBBCCCCCCCCCCDD5C
:101AB800DDDDDDDD686A6C6EFF00010020200000BE
:101AC8000000E7E7E7E7E7E7E7E7E7E708080D00EB
:00000001FF
