:100000000C9472000C9493000C9493000C94930045
:100010000C9493000C94C8020C9493000C949300DD
:100020000C9493000C9493000C9493000C94930004
:100030000C9493000C9493000C9493000C949300F4
:100040000C9493000C94D8050C9493000C9493009A
:100050000C9493000C9493000C9493000C949300D4
:100060000C9493000C940D010C9493000C94930049
:100070000C9493000C9493000C9493000C949300B4
:100080000C9493000C9493000C9493000C949300A4
:100090000C9493000C9493000C9493000C94930094
:1000A0000C9493000C9493000C9493000C94930084
:1000B0000C9493000C9493000C9493000C94930074
:1000C0000C9493000C9493000C9493000C94930064
:1000D0000C9493000C9493000C9493000C94930054
:1000E0000C94930011241FBECFEFD1E2DEBFCDBF31
:1000F00000E00CBF12E0A0E0B2E0E4E2F6E200E0D3
:100100000BBF02C007900D92A038B107D9F71DE0D0
:10011000A0E8B2E001C01D92AC38B107E1F70E943F
:10012000300A0C9410130C94000087B1807F87B9BB
:10013000AAE7B0E08C9187608C93ECE7F0E08081D7
:10014000806480838081806280838C9180688C93BE
:100150008C9180648C93089590917C00282F277057
:10016000907F292B20937C0090917B008870977F53
:10017000982B90937B0080917A00806480937A0022
:1001800080917A0086FDFCCF809179000895982FA8
:10019000F8948091C00085FFFCCF9093C6007894BE
:1001A0000895FC018436910524F4EE57FD4F8081BB
:1001B000089580E00895FC019081992361F03196C3
:1001C000F8948091C00085FFFCCF9093C60078948E
:1001D00090819923A1F708950E94DB0080E090E0D0
:1001E000089510928102109280021092E6021092FD
:1001F000C50087E68093C40088E98093C1008EE043
:100200008093C200089580918002909181020895A8
:10021000109281021092800208951F920F920FB6E1
:100220000F920BB60F9211242F933F935F936F930E
:100230007F938F939F93AF93BF93EF93FF9380919F
:10024000C00087FFFCCFE0918002F0918102809195
:10025000C600EE57FD4F808380918002909181020D
:10026000019664E670E00E942610909381028093CC
:10027000800281E08093E602FF91EF91BF91AF9100
:100280009F918F917F916F915F913F912F910F90EF
:100290000BBE0F900FBE0F901F90189584B1807FFA
:1002A00084B984B1876084B9289A80E58CBD81E0E7
:1002B0008DBD28980895DC01442399F020E030E0BA
:1002C000FD01E20FF31F80818EBD0DB407FEFDCF4F
:1002D0008EB5FB01E20FF31F80832F5F3F4F241782
:1002E00078F30895482F662361F09C01F90180811D
:1002F0008EBD0DB407FEFDCF31968E2F841B861761
:10030000B0F308958EBD0DB407FEFDCF8EB50895F0
:1003100080910002909101020097E1F020E080FDC1
:100320002F5F969587950097D1F780E190E0821B2B
:10033000910924E630E0AC01429FC001439F900D3B
:10034000529F900D1124929582958F7089279F70EE
:100350008927089584E608950F931F9302E011E022
:10036000F80180818F7B80838FEF0E948201F801EA
:100370009081906490831F910F910895CF92DF92A6
:10038000EF92FF920F931F937B01C42E02E011E0C6
:10039000F80190819F7B90838F7180620E9482011F
:1003A000D82EC7016C2D0E947201F80180818064F3
:1003B00080838D2D1F910F91FF90EF90DF90CF9054
:1003C0000895FC01808180930F0281818093100247
:1003D00082818093110283818093120284818093B1
:1003E000130280E1BF0145E00E94BE010895EF9233
:1003F000FF921F93CF93DF937B01EA01122F90911D
:1004000002019F7B909302010E948201112339F027
:10041000209781F0C701BE01412F0E945B018091AE
:100420000201806480930201DF91CF911F91FF90C0
:10043000EF900895C701612F0E947201F0CF81EE05
:1004400060E070E040E050E020E00E94F70182EEC2
:1004500060E070E040E050E020E00E94F701089585
:100460000F931F93182F092F1092E702809102011A
:100470008F7D809302010E94AC0190E08E7090709D
:1004800095958795282FFC01EC5FFD4F8081813287
:1004900068F020E030E080910201806280930201E8
:1004A0001092E702C9011F910F9108952730B9F00A
:1004B000208181E6612F702F412F502F0E94F7017C
:1004C0000E94AC0190E08E70907095958795873072
:1004D00019F424E030E0DFCF23E030E0DCCF22E08D
:1004E00030E0D9CFEF92FF920F931F93582FF62E43
:1004F000E72E042F442351F0862F972F9C01F901FA
:100500009FEF91938E2F8F198017D8F3809102015E
:100510008F7B80930201852F8F710E948201182F9B
:1005200080E090E06F2D7E2D402F0E945B01809136
:100530000201806480930201812F1F910F91FF902F
:10054000EF9008950F931F93DF93CF930F92CDB742
:10055000DEB780E08E010F5F1F4FB80141E00E94BF
:100560007202898180FD0EC08160898380E0B801BC
:1005700041E00E94BE0184E091E0FC013197F1F777
:100580000197F1F70F90CF91DF911F910F9108958F
:100590001F920F920FB60F920BB60F9211242F934A
:1005A0003F934F935F936F937F938F939F93AF93FB
:1005B000BF93EF93FF93DF93CF930F92CDB7DEB747
:1005C000809102018F7E80930201809102018F7DD4
:1005D000809302010E94AC01898390E086FD6FC088
:1005E000898185FF4BC01092E70280910402882325
:1005F00009F06CC00E94A202809100029091010259
:10060000880F991F9093010280930002809100024D
:10061000909101028160909301028093000281E039
:1006200090E0909303028093020280E7898387E041
:10063000BE016F5F7F4F41E00E94BE0180910201C9
:1006400080618093020180910201806280930201A7
:100650000F90CF91DF91FF91EF91BF91AF919F915B
:100660008F917F916F915F914F913F912F910F905B
:100670000BBE0F900FBE0F901F90189584FFD5CF23
:1006800081EE60E070E040E050E020E00E94F70181
:100690001092E702809104028823F9F40E94A202DA
:1006A0008091000290910102880F991F909301029E
:1006B000809300021092030210920202B6CF8E7055
:1006C0009070959587950E9405108ACF8AE06AE020
:1006D00072E045E00E94BE018DCF8AE06AE072E0E0
:1006E00045E00E94BE01DACFCF92DF92EF92FF92F7
:1006F0000F931F93DF93CF930F92CDB7DEB77C019B
:100700006B0181E08093E702809102018F7D8093ED
:10071000020180E08E010F5F1F4FB80141E00E948F
:100720007202898180FD2DC08AE06FE072E045E0B1
:100730000E94BE018091020188608093020180EADC
:10074000B70140E050E020E20E94F70180910201F1
:10075000806280930201CD2891F48091E702882382
:10076000E1F780910202909103020F90CF91DF9107
:100770001F910F91FF90EF90DF90CF90089581E04F
:10078000F4CF8E7F898380E0B80141E00E94BE01F2
:1007900084E091E0FC013197F1F70197F1F7C4CFC4
:1007A000CF92DF92EF92FF920F931F93DF93CF933D
:1007B0000F92CDB7DEB77C018B016430710520F458
:1007C00082E0E816F10450F00F90CF91DF911F9175
:1007D0000F91FF90EF90DF90CF90089586E06E012B
:1007E0000894C11CD11CB60141E00E947202602F26
:1007F000660F898186606823EF2841F4677F6983EB
:1008000086E0B60141E00E94BE01DECF68606983E8
:10081000F7CFAF92BF92CF92DF92EF92FF920F93FA
:100820001F93DF93CF930F92CDB7DEB78C01FB01FF
:100830005A018630910508F046C0009709F44FC070
:10084000982F965F0130110509F472C0A1E1CA2EFC
:10085000C80E41E0892FBF010E94BE0181E07E01E8
:100860000894E11CF11CB70141E00E94720281E092
:1008700090E0002E02C0880F991F0A94E2F7D82E4C
:1008800089818D29898381E0B70141E00E94BE0101
:10089000AB28C9F519828C2DB70141E00E94BE0139
:1008A00089810C5F1D4FF801808382E0B70141E030
:1008B0000E947202D09489818D21898382E0B701E0
:1008C00041E00E94BE010F90CF91DF911F910F91E7
:1008D000FF90EF90DF90CF90BF90AF900895808110
:1008E00080930A02818180930B02828180930C02A3
:1008F000838180930D02848180930E0245E09AE00B
:1009000081E1C82EA7CF80E289838C2DB70141E019
:100910000E94BE0189810C5F1D4FF801808382E037
:10092000B70141E00E94720289818D298983C6CF77
:10093000B1E1CB2EC80E45E08DCFDF92EF92FF9252
:100940000F931F93DF93CF930F92CDB7DEB7109223
:10095000E702E1E0F1E080818861808322E0E22E1D
:1009600021E0F22ED7018C918F7E8C938C91877F22
:100970008C938C918F7D8C93808180628083808129
:10098000806480836C98EAE6F0E0808182608083F6
:1009900080818E7F8083EC9AE49A80EE9BEA0197B7
:1009A000F1F70E944E0183E089838E010F5F1F4F94
:1009B000B80141E00E94BE0185E1898384E0B8016D
:1009C00041E00E94BE0190E7D92ED98285E0B801AE
:1009D00041E00E94BE0189E0898386E0B80141E0E0
:1009E0000E94BE018FE0898380E0B80141E00E944F
:1009F000BE01D98287E0B80141E00E94BE0181EECC
:100A000060E070E040E050E020E00E94F70182EEFC
:100A100060E070E040E050E020E00E94F70180E4F8
:100A20009FE10197F1F7F7018081806280838081E7
:100A3000806180830F90CF91DF911F910F91FF9084
:100A4000EF90DF900895FFCFFF93FCB7FF93FFB7C0
:100A5000F894FF93EF93DF93CF93BF93AF939F935C
:100A60008F937F936F935F934F933F932F931F9336
:100A70000F93FF92EF92DF92CF92BF92AF929F922D
:100A80008F927F926F925F924F923F922F921F921E
:100A90000F928DB79EB79093F6028093F502E09186
:100AA000EA02F091EB02E050FF4F808191819EBFFE
:100AB0008DBF0F901F902F903F904F905F906F9041
:100AC0007F908F909F90AF90BF90CF90DF90EF90EE
:100AD000FF900F911F912F913F914F915F916F91D7
:100AE0007F918F919F91AF91BF91CF91DF91EF91C6
:100AF000FF91FFBFFF91FCBFFF910895FF93FCB7EB
:100B0000FF93FFB7F894FF93EF93DF93CF93BF93D7
:100B1000AF939F938F937F936F935F934F933F9385
:100B20002F931F930F93FF92EF92DF92CF92BF927A
:100B3000AF929F928F927F926F925F924F923F926D
:100B40002F921F920F92E091EA02F091EB028DB783
:100B50009EB7E050FF4F918380838091F502909182
:100B6000F6029EBF8DBF0F901F902F903F904F9029
:100B70005F906F907F908F909F90AF90BF90CF903D
:100B8000DF90EF90FF900F911F912F913F914F9128
:100B90005F916F917F918F919F91AF91BF91CF9115
:100BA000DF91EF91FF91FFBFFF91FCBFFF9108958F
:100BB000FF93FCB7FF93FFB7F894F068FF93EF93B0
:100BC000DF93CF93BF93AF939F938F937F936F9355
:100BD0005F934F933F932F931F930F93FF92EF9247
:100BE000DF92CF92BF92AF929F928F927F926F923D
:100BF0005F924F923F922F921F920F92E091EA02E2
:100C0000F091EB028DB79EB7E050FF4F9183808348
:100C10008091F5029091F6029EBF8DBF81E090E039
:100C200090939E0C80939D0CE8E8F0E08081918188
:100C3000805F984D918380838091F5029091F602B8
:100C40009EBF8DBF0F901F902F903F904F905F9051
:100C50006F907F908F909F90AF90BF90CF90DF90DC
:100C6000EF90FF900F911F912F913F914F915F91C6
:100C70006F917F918F919F91AF91BF91CF91DF91B4
:100C8000EF91FF91FFBFFF91FCBFFF9108950F937C
:100C90001F93CF93DF938C01EB01DC01ED91FC916D
:100CA00011973097E1F16E817F81A0E0B0E001C043
:100CB000FC018091F0029091F1022091F0023091BC
:100CC000F102AB01481B590B86819781821B930B64
:100CD00048175907B8F080859185DF01009741F7E3
:100CE000D8011296ED91FC911397D187C087139686
:100CF000DC93CE93129719861886DF91CF911F91BE
:100D00000F9108951097C9F01996DC93CE93189718
:100D1000F987E887DF91CF911F910F910895119680
:100D20007C936E9313967C936E9312971986188614
:100D3000DF91CF911F910F910895D801CD93DC934E
:100D4000E7CFCF93DF93C091B90CD091BA0C209725
:100D500009F4DFC08091A30C9091A40C019709F4D1
:100D600070C08091A30C9091A40C8F5F9F4F09F4E9
:100D70008BC08091BB0C9091BC0CC817D90709F4AB
:100D8000BFC0C45FDE4F88819981CC50D140909321
:100D9000BA0C8093B90CDE01A150BF4FFD01B8978A
:100DA000128280E880A313A280919F0C9091A00CE6
:100DB00094A380919F0C9091A00C85A316A288E526
:100DC00099E097A38C93C050DF4FF983E883269670
:100DD00082E090E0899399938091A10C9091A20C6C
:100DE000998388838091A30C9091A40C2697998372
:100DF0008883C250D1408091A30C9091A40C813083
:100E0000910509F446C08230910529F1892BB1F58D
:100E10008091C90C9091CA0C892B09F480C0E09193
:100E2000CB0CF091CC0CE45FFE4FD183C083D09308
:100E3000CC0CC093CB0C20E030E0C901DF91CF9106
:100E400008958091BD0C9091BE0C892B09F089CF3B
:100E500022E030E015C08091C10C9091C20C892B2A
:100E600009F468C0E091C30CF091C40CE45FFE4F3C
:100E7000D183C083D093C40CC093C30C20E030E076
:100E8000C901DF91CF910895C0913602D091370208
:100E900082CFE091BD0CF091BE0C309771F0809143
:100EA000BF0C9091C00CE817F90709F44EC080857B
:100EB00091859093BE0C8093BD0C8091AB0C90916A
:100EC000AC0C978386838091A70C9091A80C938398
:100ED00082838091A90C9091AA0C95838483D183FD
:100EE000C083CC5FDE4FF983E88385EC9CE0BF01D3
:100EF0000E94470620E030E0C901DF91CF910895BC
:100F00001092BC0C1092BB0C1092BA0C1092B90C3F
:100F100042CF21E030E0C901DF91CF910895D09315
:100F2000CA0CC093C90CD093CC0CC093CB0C20E05E
:100F300030E0A6CFD093C20CC093C10CD093C40CA8
:100F4000C093C30C20E030E09BCF1092C00C1092F5
:100F5000BF0C1092BE0C1092BD0CAFCF0F931F931D
:100F600080918100826080938100EBEFF3E0138237
:100F70001282CF010A969187808711821082E25FE8
:100F8000FE4F8CE0EB36F80791F711861086109231
:100F9000660B1092650B138212821182108225E774
:100FA0003CE0F901178216821582148213821282A4
:100FB00011821082CF010A9691878087FC018CE014
:100FC000E339F80779F711821082118610861782AB
:100FD0001682158214821382128207EF12E0109398
:100FE000BA0C0093B90C89E59AE09093BC0C8093FD
:100FF000BB0C3093BE0C2093BD0CF093C00CE0935F
:10100000BF0C1092C60C1092C50C1092C80C109216
:10101000C70C1092C20C1092C10C1092C40C10920A
:10102000C30C1092CA0C1092C90C1092CC0C1092E6
:10103000CB0C83E295E09093A00C80939F0C8FEFF4
:101040009FEF9093A40C8093A30C1092A20C10928B
:10105000A10C0E94A10680E59EE09093A00C8093D5
:101060009F0C1092A40C1092A30C1092A20C109240
:10107000A10C0E94A1061093EB020093EA0281E00A
:1010800090E09093FE038093FD03E091C90CF091F2
:10109000CA0C309779F08091CB0C9091CC0CE8176A
:1010A000F907E1F0E45FFE4F808191819093CA0CD3
:1010B0008093C90C80916F00826080936F00809153
:1010C000840090918500805F984D90938900809373
:1010D000880082E086BB1F910F9108951092CC0C7E
:1010E0001092CB0C1092CA0C1092C90CE3CFF8945A
:1010F00080E884B980913502882309F04DC0709151
:1011000035027F5FF0E840E951E0F5B960E02AEF91
:1011100030E0CA010197F1F721503040D1F76F5FFD
:101120006436A9F715B860E02AEF30E0CA010197EC
:10113000F1F721503040D1F76F5F6832A9F777237C
:10114000F1F0E0E0F5B960E02AEF30E0CA01019784
:10115000F1F721503040D1F76F5F6A30A9F715B829
:1011600060E02AEF30E0CA010197F1F721503040EA
:10117000D1F76F5F6A30A9F7EF5FE71718F360E008
:101180002AEF30E0CA010197F1F721503040D1F742
:101190006F5F6431A9F7B9CF709135027150B2CF4A
:1011A000E091C50CF091C60C309781F1A091C70C6D
:1011B000B091C80CEA17FB0711F126813781008432
:1011C000F185E02D868197812817390779F0809184
:1011D000F0029091F10240E02817390709F041E050
:1011E00081E04827242F30E0C901089586E08093EC
:1011F00035020E947708A091C50CB091C60C1097DB
:1012000029F016962D913C911797E1CF20E030E020
:10121000C90108958091E8029091E9020197B1F126
:101220008091C90C9091CA0C892B51F0E091EA028F
:10123000F091EB02EE5FFE4F80819181892B71F47A
:101240000E94D008892B71F0E091EA02F091EB0244
:10125000EE5FFE4F80819181029724F021E030E023
:10126000C90108958091C10C9091C20C892B71F035
:1012700020E030E0E091EA02F091EB02EE5FFE4FF9
:1012800080819181039754F7C901089520E030E0EF
:10129000C90108951F931FB7F89484E090E09093DC
:1012A0009E0C80939D0C0E947E051FBF1F91089588
:1012B0001F931FB7F89483E090E090939E0C809367
:1012C0009D0C0E947E051FBF1F910895E091EA02C8
:1012D000F091EB02E85FFE4F8081918108951F93AA
:1012E0001FB7F8949093A00C80939F0C7093A20C5E
:1012F0006093A10C5093A40C4093A30C82E090E067
:1013000090939E0C80939D0C0E947E052091AF0CC3
:101310003091B00C1FBFC9011F91089540E050E00B
:101320000E946F09089542E050E00E946F090895FD
:10133000AF92BF92CF92DF92EF92FF920F931F93E3
:10134000CF93DF936C015B01EA01790141155105EF
:1013500019F02417350728F084E0809335020E94A5
:101360007708D093A80CC093A70C1093AC0C0093F3
:10137000AB0CF092AA0CE092A90CC601B50141E0B9
:1013800050E00E946F09DF91CF911F910F91FF9064
:10139000EF90DF90CF90BF90AF9008951F931FB74D
:1013A000F89486E090E090939E0C80939D0C0E94B0
:1013B0007E051FBF8091B10C9091B20C1F910895D2
:1013C0001F931FB7F8949093B40C8093B30C709351
:1013D000B60C6093B50C87E090E090939E0C8093E0
:1013E0009D0C0E947E051FBF1F9108951F931FB77C
:1013F000F8949093B40C8093B30C7093B80C6093F2
:10140000B70C88E090E090939E0C80939D0C0E9416
:101410007E051FBF1F91089581E090E09093E9023F
:101420008093E8020895E091F002F091F10280913A
:101430008400909185002091F2023091F302821B8A
:10144000930B60ED77E00E941210CF01880F991F77
:10145000880F991F8E0F9F1F680F791FCB0108956A
:101460002F923F924F925F926F927F928F929F92B4
:10147000AF92BF92CF92DF92EF92FF920F931F93A2
:10148000CF93DF930E94AE07E0903602F0903702D0
:10149000A091EA02B091EB0231E0C32ED12C28E0FA
:1014A000822E02E010E092E0992E89E0582EF3E0BF
:1014B0006F2E712CEBE04E2E7AE0372E6CE0B62EBC
:1014C0005DE0A52E45E0242E1AC0C130D10509F4F7
:1014D000F5C1C130D10558F0C230D10509F475C14C
:1014E000239709F444C1909235020E947708A09195
:1014F000EA02B091EB0210929E0C10929D0C109794
:1015000009F45CC2AA5FBE4F8D919C911197A650C1
:10151000B140019709F4CCC0E091C90CF091CA0C1C
:10152000309709F4D7C08091CB0C9091CC0CE81780
:10153000F90709F43AC2E45FFE4F80819181EC50D3
:10154000F1409093CA0C8093C90CF093EB02E093A6
:10155000EA02E091EA02F091EB02EA5FFE4FD182EB
:10156000C0821092E9021092E8020E942405C09104
:101570009D0CD0919E0CC430D10509F4EBC1C5304F
:10158000D10508F4A2CFC630D10509F47CC1C6301C
:10159000D10508F4ACCFC730D10509F43BC1289779
:1015A00009F0A1CFC091B30CD091B40C209709F4ED
:1015B000EEC2A881B981109709F447C08A819B8146
:1015C0008A179B0709F4CEC0A45FBE4F8D919C91F2
:1015D0001197AC50B140998388838091B70C90915A
:1015E000B80CA65FBE4FED91FC911197918380835B
:1015F000149711961C930E9314978D919C911197AB
:10160000A250B1408130910509F4A7C08230910504
:1016100009F48FC0892B09F087C08091C90C909183
:10162000CA0C892B09F4CFC1E091CB0CF091CC0C02
:10163000E45FFE4FB183A083B093CC0CA093CB0C9E
:10164000A881B981109709F0B9CF0E940A09892BA6
:1016500009F44DCFA091EA02B091EB02AA5FBE4F10
:1016600011961C930E9314978D919C911197A250F3
:10167000B1408130910509F46FC28230910509F4BF
:101680004FC2892B09F037CF8091C90C9091CA0CB9
:10169000892B09F48AC2E091CB0CF091CC0CE45F69
:1016A000FE4FB183A083B093CC0CA093CB0C23CF7F
:1016B000AE15BF0509F055CF8091E8029091E9027F
:1016C000892B09F04ECFE091C90CF091CA0C3097EC
:1016D00009F029CF0E94D008892B09F407C2E091B4
:1016E000C50CF091C60C309771F08091C70C9091A9
:1016F000C80CE817F90709F46FC2808591859093AB
:10170000C60C8093C50CF093ED02E093EC0280814F
:1017100091819093EB028093EA028481958190936A
:10172000EF028093EE0215CFA09235020E94770857
:1017300040CF8091C10C9091C20C892B09F44CC10F
:10174000E091C30CF091C40CE45FFE4FB183A08321
:10175000B093C40CA093C30C2CCFB09235020E945E
:10176000770827CF1B821A821982188236CFA09160
:10177000EA02B091EB02EA16FB0609F4BCCEAA5FBE
:10178000BE4F11961C921E9214978D919C911197A9
:10179000A250B140019709F46EC18091B90C9091AB
:1017A000BA0C892B09F483C1E091BB0CF091BC0CFD
:1017B000E45FFE4FB183A083B093BC0CA093BB0C3D
:1017C000A091EA02B091EB0296CE0E94A1069093FE
:1017D000B00C8093AF0C8091AF0C9091B00C892B22
:1017E00009F403C18091AF0C9091B00C019709F4FA
:1017F000C0C18091AF0C9091B00C029709F077CEE8
:1018000083E0809335020E947708A091EA02B091AC
:10181000EB0271CEC091B30CD091B40C209709F4B7
:10182000BBC1A091EA02B091EB02AE5FBE4F8D91B9
:101830009C911197A250B140019709F484C1A65F11
:10184000BE4F8091B50C9091B60C11969C938E93DF
:10185000AA50B14088819981892B09F493C1EA810A
:10186000FB81E45FFE4FB183A083BB83AA83A09179
:10187000EA02B091EB02AA5FBE4F11967C926E9283
:10188000A650B14038CE2091F4022A3008F0EAC0C8
:10189000822F90E0880F991F880F991F880F991F3A
:1018A0008353934F9093B20C8093B10C2F5F20938E
:1018B000F402A091EA02B091EB021DCE8091F002F9
:1018C0009091F10201969093F1028093F002809141
:1018D0008400909185009093F3028093F202A0918E
:1018E000EA02B091EB02AE5FBE4F8D919C911197D1
:1018F000A250B140019709F4A0C0AE5FBE4F2D9138
:101900003C911197A250B1402230310509F0F3CD3E
:10191000FD01EA5FFE4F80819181019709F0EBCDD7
:10192000318320838091C10C9091C20C892B09F4E2
:1019300045C1E091C30CF091C40CE45FFE4FB1834C
:10194000A083B093C40CA093C30CA091EA02B09101
:10195000EB02D1CDA091EA02B091EB02AA5FBE4F9B
:1019600011961C930E9314978D919C911197A250F0
:10197000B1408130910509F4A3C08230910509F08E
:1019800080CE8091C10C9091C20C892B09F416C1B4
:10199000E091C30CF091C40CE45FFE4FB183A083CF
:1019A000B093C40CA093C30CA6CD1092CC0C109293
:1019B000CB0C1092CA0C1092C90CC7CD8092350284
:1019C0000E947708CECDB093CA0CA093C90CB093F7
:1019D000CC0CA093CB0CEDCDB093C20CA093C10C5A
:1019E000B093C40CA093C30CE4CD0E940A09892BC8
:1019F00009F4F8CEA091EA02B091EB02AA5FBE4FC3
:101A00001196DC93CE9314978D919C911197A250CF
:101A1000B1408230910509F483C0019709F06BCD84
:101A2000AC5FBE4F6D917C9185EC9CE00E944706B7
:101A3000A091EA02B091EB025ECD8091EE0290910E
:101A4000EF0201979093EF028093EE02892B09F049
:101A500054CF209235020E947708A091EA02B091FB
:101A6000EB024BCF509235020E947708A091EA0218
:101A7000B091EB0240CDAC5FBE4FED91FC91119760
:101A8000A450B140309709F488CE118210828DEBBA
:101A90009CE0BF010E944706A091EA02B091EB02D0
:101AA0008091B90C9091BA0C892B09F07DCEB0933E
:101AB000BA0CA093B90CB093BC0CA093BB0C1BCD7B
:101AC000E091EC02F091ED028681978122813381D1
:101AD000820F931F9783868385EC9CE0BF010E9451
:101AE0004706A091EA02B091EB0205CDE091C10C4E
:101AF000F091C20C309709F46AC08091C30C9091A8
:101B0000C40CE817F90709F480C0E45FFE4F808138
:101B10009181EC50F1409093C20C8093C10C15CD93
:101B20008091C10C9091C20C009709F45EC0A45F33
:101B3000BE4F11969C938E93AC50B140B093C20CA3
:101B4000A093C10CD8CC409235020E947708A09196
:101B5000EA02B091EB02CFCC6091EC027091ED0201
:101B600085EC9CE00E944706A091EA02B091EB024E
:101B7000C2CC909235020E947708A091EA02B091FF
:101B8000EB02B9CCB983A883BB83AA8370CE309211
:101B900035020E94770859CD309235020E947708AD
:101BA000A091EA02B091EB02A6CCB093CA0CA0932C
:101BB000C90CB093CC0CA093CB0C9DCCB093C20CB1
:101BC000A093C10CB093C40CA093C30C94CCF0921E
:101BD000EB02E092EA02BDCC1092C80C1092C70C46
:101BE0001092C60C1092C50C8ECDB093C40CA0936D
:101BF000C30CB093C20CA093C10CA45FBE4F11964E
:101C00001C921E92AC50B14076CC1092C40C109233
:101C1000C30C1092C20C1092C10C97CCFFCF109243
:101C20006C0D10926D0D10926F0D10926E0D109242
:101C3000700D1092710D1092730D81E08093740DF0
:101C400084E08093750D21E030E03093770D209390
:101C5000760D1092780D1092790D10927B0D82E026
:101C600080937C0D88E080937D0D30937F0D2093D1
:101C70007E0D1092800D1092810D1092830D83E0E5
:101C80008093840D8CE08093850D3093870D209395
:101C9000860D1092880D1092890D10928B0D08956B
:101CA0000F931F93279A269A259A249A80910A01C6
:101CB000846080930A0180910B018B7F80930B01DC
:101CC00028E833E140E951E0CA010197F1F72150DA
:101CD0003040D1F780910B01846080930B0128E89C
:101CE00033E140E951E0CA010197F1F7215030405A
:101CF000D1F70E949D0480E090E06AE772E041E045
:101D000050E00E94090480E090E063E070E00E94EF
:101D1000D0030E94CE0990932B0D80932A0D0E9430
:101D2000F1000E9495000E940F0E8DE59FE061E09A
:101D300070E044E150E02FE030E00AEF10E00E9454
:101D400098098CEA9EE060E070E00E94930980E0D0
:101D500090E01F910F910895CF92DF92EF92FF9242
:101D60000F931F93DF93CF93CDB7DEB7E4970FB6F2
:101D7000F894DEBF0FBECDBF7E010894E11CF11CBC
:101D800083E0C82ED12CCC0EDD1E08E312E080913A
:101D90002A0D90912B0DB7010E94E0092C9A8CE43A
:101DA0009DE00E9430028330D1F38DB79EB70E972D
:101DB0000FB6F8949EBF0FBE8DBFEDB7FEB731963C
:101DC000ADB7BEB71296DC92CE9211971383028301
:101DD0008091570D8483158280915B0D86831782D5
:101DE00080915A0D808711868091580D82871386C5
:101DF0008091590D848715860E9439108DB79EB742
:101E00000E960FB6F8949EBF0FBE8DBF80917F02D5
:101E1000843021F02C980E944A09B9CF8EE09EE0D0
:101E200060E070E00E948E09F5CFFF920F931F9340
:101E3000F82E162F042F85E0F89EC00111248C5E29
:101E40009D4F0E94E1011093220D0093230D1092EB
:101E5000240DF092250DAF2DB0E0AA0FBB1FAA0FE5
:101E6000BB1FAA0FBB1FFD01E259F24F8081809377
:101E7000260DA059B24F8C918093270DAFE2BDE0A3
:101E8000EAE7F2E085E001900D928150E1F7AFE2E0
:101E9000BDE0EDE1FDE08DE001900D928150E1F7B4
:101EA0008CE29DE060E070E00E94740385B1805890
:101EB00085B91F910F91FF9008956F927F928F9235
:101EC0009F92AF92BF92DF92EF92FF920F931F9378
:101ED000DF93CF93CDB7DEB764970FB6F894DEBF2C
:101EE0000FBECDBF00E04E010894811C911C6CE632
:101EF000662E62E0762E0DC0108216961C92802F00
:101F00006D2D412F20E00E94150F2D980E944A0947
:101F10000F5F0430C8F12D9A80916D0D0E94AC00C6
:101F2000D82E80916D0D8F5F0E94AC00182FEE248B
:101F3000FF2400E0C4010E94DB00F701EE0FFF1F49
:101F4000EE0FFF1FEE0FFF1FE059F24F808181302F
:101F5000B1F6D701AA0FBB1FAA0FBB1FAA0FBB1F49
:101F6000A459B24F16969C91169715968C91159779
:101F7000981710F69F5F16969C93802F6FE74FE798
:101F800020E00E94150FC1CF2D9AE02EFF245701AB
:101F9000AA0CBB1CAA0CBB1CAA0CBB1C8CE69DE0AB
:101FA000A80EB91ED50111968C910E94AC00D82EB6
:101FB000F50181818F5F0E94AC00182F013009F07C
:101FC000B9CF8DB79EB70A970FB6F8949EBF0FBED4
:101FD0008DBFEDB7FEB73196ADB7BEB712969C92E6
:101FE0008E92119773826282F582E482D682178282
:101FF000108711860E943910EDB7FEB73A960FB6DA
:10200000F894FEBF0FBEEDBF95CF85B190E4892750
:1020100085B980912A0D90912B0D61E070E00E94AE
:10202000F6090895AA1BBB1B51E107C0AA1FBB1FDD
:10203000A617B70710F0A61BB70B881F991F5A9554
:10204000A9F780959095BC01CD01089597FB092EC5
:1020500007260AD077FD04D0E5DF06D000201AF469
:10206000709561957F4F0895F6F7909581959F4FF4
:1020700008950F931F93DF93CF93CDB7DEB72E97BD
:102080000FB6F894DEBF0FBECDBF0E891F8986E064
:102090008C831A8309838FEF9FE79E838D839E0134
:1020A000265E3F4FCE010196688D798DA9010E9471
:1020B0006A102F813885020F131FF80110822E96A7
:1020C0000FB6F894DEBF0FBECDBFCF91DF911F9149
:1020D0000F9108952F923F924F925F926F927F924D
:1020E0008F929F92AF92BF92CF92DF92EF92FF9228
:1020F0000F931F93DF93CF93CDB7DEB72B970FB618
:10210000F894DEBF0FBECDBF3C012B015A01FC018C
:1021100017821682838181FD03C06FEF7FEFC6C1F6
:102120009AE0892E1E010894211C311CF3012381A1
:10213000F20123FD859123FF81912F01882309F46A
:10214000B2C1853239F423FD859123FF81912F019E
:10215000853229F490E0B3010E948612E7CF982FD0
:10216000FF24EE249924FFE1FF15D0F09B3269F0A3
:102170009C3228F4903259F0933291F40EC09D3283
:1021800049F0903369F441E024C052E0F52A84E03C
:10219000F82A28C098E0F92A25C0E0E1FE2A22C0EA
:1021A000F7FC29C0892F80538A3070F4F6FE05C0F1
:1021B000989C902C1124980E15C0E89CE02C1124BA
:1021C000E80EF0E2FF2A0EC09E3229F4F6FC6BC145
:1021D00040E4F42A07C09C3619F450E8F52A02C0FE
:1021E000983649F4F20123FD959123FF91912F0137
:1021F000992309F0B8CF892F8554833018F0805285
:10220000833038F444E050E0A40EB51E5FE35983F8
:102210000FC0933631F0933779F0933509F056C0FB
:1022200020C0F5018081898342E050E0A40EB51EF4
:10223000610101E010E012C0F501C080D180F6FC20
:1022400003C06FEF7FEF02C0692D70E042E050E005
:10225000A40EB51EC6010E947B128C015FE7F52219
:1022600014C0F501C080D180F6FC03C06FEF7FEF92
:1022700002C0692D70E042E050E0A40EB51EC60118
:102280000E9470128C0150E8F52AF3FE07C01AC0B4
:1022900080E290E0B3010E948612EA948E2D90E0D5
:1022A00008171907A8F30EC0F601F7FC8591F7FE91
:1022B00081916F0190E0B3010E948612E110EA94CF
:1022C000015010400115110579F7EAC0943611F05C
:1022D000993669F5F7FE08C0F50120813181428108
:1022E000538184E090E00AC0F501808191819C01D6
:1022F000442737FD4095542F82E090E0A80EB91E88
:102300009FE6F92257FF09C05095409530952195D9
:102310003F4F4F4F5F4FE0E8FE2ACA01B901A101CC
:102320002AE030E00E94B212D82ED21840C0953771
:1023300029F41F2D1F7E2AE030E01DC01F2D197FBC
:102340009F3661F0903720F4983509F0ACC00FC08B
:10235000903739F0983709F0A6C004C028E030E083
:102360000AC0106114FD146020E130E004C014FDC7
:10237000166020E132E017FF08C0F501608171812D
:102380008281938144E050E008C0F5018081918111
:10239000BC0180E090E042E050E0A40EB51EA10137
:1023A0000E94B212D82ED2188FE7F82EF122F6FE34
:1023B0000BC05EEFF522D91438F4F4FE07C0F2FC2E
:1023C00005C08FEEF82202C01D2D01C0192DF4FEAC
:1023D0000DC0FE01ED0DF11D8081803319F499EEE1
:1023E000F92208C01F5FF2FE05C003C08F2D86785A
:1023F00009F01F5F0F2DF3FC14C0F0FE0FC01E1577
:1024000010F09D2C0BC09D2C9E0C911A1E2D06C009
:1024100080E290E0B3010E9486121F5F1E15C0F398
:1024200004C01E1510F4E11A01C0EE2404FF0FC011
:1024300080E390E0B3010E94861202FF1DC001FDFF
:1024400003C088E790E00EC088E590E00BC0802FC5
:10245000867891F001FF02C08BE201C080E2F7FCB8
:102460008DE290E0B3010E94861206C080E390E006
:10247000B3010E9486129A94D914C0F3DA94F10140
:10248000ED0DF11D808190E0B3010E948612DD20E8
:10249000A9F706C080E290E0B3010E948612EA9498
:1024A000EE20C1F743CEF30166817781CB012B96F5
:1024B0000FB6F894DEBF0FBECDBFCF91DF911F9155
:1024C0000F91FF90EF90DF90CF90BF90AF909F90D3
:1024D0008F907F906F905F904F903F902F900895D6
:1024E000FC010590615070400110D8F780959095DF
:1024F0008E0F9F1F0895FC016150704001900110E4
:10250000D8F7809590958E0F9F1F08950F931F9376
:10251000CF93DF938C01EB018B8181FF1BC082FF86
:102520000DC02E813F818C819D812817390764F46D
:10253000E881F9810193F983E88306C0E885F9858C
:10254000802F1995892B31F48E819F8101969F836D
:102550008E8302C00FEF1FEFC801DF91CF911F9153
:102560000F910895FA01AA27283051F1203181F105
:10257000E8946F936E7F6E5F7F4F8F4F9F4FAF4F8B
:10258000B1E03ED0B4E03CD0670F781F891F9A1F9E
:10259000A11D680F791F8A1F911DA11D6A0F711D52
:1025A000811D911DA11D20D009F468943F912AE05E
:1025B000269F11243019305D3193DEF6CF01089546
:1025C000462F4770405D4193B3E00FD0C9F7F6CF77
:1025D000462F4F70405D4A3318F0495D31FD40523F
:1025E000419302D0A9F7EACFB4E0A69597958795D5
:1025F00077956795BA95C9F70097610571050895B4
:102600009B01AC010A2E069457954795379527955F
:10261000BA95C9F7620F731F841F951FA01D0895F7
:04262000F894FFCF5C
:10262400FF000100202000000000E7E7E7E7E7E7FC
:10263400E7E7E7E74A4A4A4A4A4B4B4B4B4B4C4C79
:102644004C4C4C4D4D4D4D4D686A6C6E4A4B4C4D47
:10265400FFFFFFFFFF01670B66726F6D3A20256471
:102664002C20656E656D793A2025642C2068697488
:102674003A2025642C207465616D3A2025642C2051
:1026840073746174653A2025640A0D0025643A2048
:102694002825642C2564290A0D00FFFFFFFFFF0194
:00000001FF
