:100000000C9472000C9493000C9493000C94930045
:100010000C9493000C94A6050C94CE000C949300C1
:100020000C9493000C9493000C9493000C94930004
:100030000C9493000C9493000C9493000C949300F4
:100040000C9493000C94B6080C9493000C949300B9
:100050000C9493000C9493000C9493000C949300D4
:100060000C9493000C94EB030C9493000C94930069
:100070000C9493000C9493000C9493000C949300B4
:100080000C9472010C9493000C9493000C949300C4
:100090000C941F020C9493000C9493000C94930006
:1000A0000C9493000C9493000C9493000C94930084
:1000B0000C9493000C9493000C9493000C94930074
:1000C0000C9493000C9493000C9493000C94930064
:1000D0000C9493000C9493000C9493000C94930054
:1000E0000C94930011241FBECFEFD1E2DEBFCDBF31
:1000F00000E00CBF12E0A0E0B2E0E4E3F6E200E0D2
:100100000BBF02C007900D92AA33B107D9F71DE0CB
:10011000AAE3B2E001C01D92A730B107E1F70E9447
:100120000E0D0C9418130C940000EAE0F1E08081AD
:1001300088628083E0E2F1E01082A1E2B1E01C92EB
:100140008081836080838C9188618C938081877F9C
:1001500080838C9181608C9385EA91E09093290152
:100160008093280182ED90E090932D0180932C01E3
:1001700010929000E1E9F0E010828081816080833C
:10018000E1E7F0E080818D7F80836D98EAE6F0E022
:1001900080818C608083ED9AE59A08951F920F927A
:1001A0000FB60F9211248F939F9380913B02882367
:1001B000B9F481E080933B0210923C0210923D0220
:1001C000C19A80919400909195008052914D9093A6
:1001D00099008093980080917100826080937100F3
:1001E0009F918F910F900FBE0F901F901895E59AD9
:1001F000ED9A0895ED98E1E7F0E080818D7F8083AE
:10020000C19A10923B020895E0E2F1E0808188609B
:10021000808380ED97E00197F1F70895E0E2F1E047
:100220008081877F808380ED97E00197F1F70895C3
:100230000F931F93182F0FB7F8940E94FA00809124
:100240002001886080932001809120018860809344
:10025000200120ED37E0C9010197F1F780912001DD
:10026000877F80932001C9010197F1F7412F50E06A
:1002700020E030E060ED77E00DC0809120018860E3
:1002800080932001CB010197F1F72F5F3F4F28307A
:100290003105B1F0CA01022E02C0959587950A94E6
:1002A000E2F780FDEACF80912001877F80932001D3
:1002B000CB010197F1F72F5F3F4F2830310551F700
:1002C00080912001877F8093200180ED97E0019746
:1002D000F1F7E59AED9A0FBF1F910F910895809164
:1002E0003A0208951F920F920FB60F920BB60F921B
:1002F00011242F933F934F935F936F937F938F932B
:100300009F93AF93BF93EF93FF9380913B0288231A
:10031000B1F165990EC030913C0220913D0281E01F
:1003200090E002C0880F991F3A95E2F7282B20939E
:100330003D0280913C028F5F80933C028091980047
:1003400090919900805C904E9093990080939800D2
:1003500080913C028830B0F4FF91EF91BF91AF9152
:100360009F918F917F916F915F914F913F912F91CD
:100370000F900BBE0F900FBE0F901F90189580919D
:100380003E02EACF10923B02809171008D7F8093F4
:100390007100C19AE59A80913D0280933A020E94D1
:1003A0009612DACF982F8091C80085FFFCCF9093EA
:1003B000CE0008959C014FB7F894809165008E7F20
:1003C000809365002130310569F121303105B0F4A9
:1003D00083E390E09093CD008093CC0080E4809301
:1003E000C80088E08093C90086E08093CA008091AD
:1003F000C8008D7F8093C8004FBF0895223031051B
:1004000019F02330310539F080E190E09093CD0070
:100410008093CC00E3CF88E090E09093CD00809370
:10042000CC00DCCF89E190E09093CD008093CC00AC
:10043000D5CF80915F02089510925F0208951F92B8
:100440000F920FB60F920BB60F9211248F939F93BA
:10045000EF93FF9380915F029091CE00EFE3F2E083
:10046000E80FF11D908380915F0290E001968F71FB
:10047000907080935F02FF91EF919F918F910F9009
:100480000BBE0F900FBE0F901F901895FC0180328D
:10049000910524F4E15CFD4F8081089580E008958A
:1004A000FF920F931F93182F062FF42E8BE80E94B4
:1004B000D201812F0E94D201802F0E94D2018F2D64
:1004C0000E94D2011F910F91FF900895EF92FF9229
:1004D0000F931F938C017B0189E80E94D201812F29
:1004E000992787FD9A950E94D201802F0E94D20100
:1004F0008F2D992787FD9A950E94D2018E2D0E94FB
:10050000D2011F910F91FF90EF9008958DEA0E9404
:10051000D20108950F931F93CF93DF93EC018B01CA
:100520008EE80E94D2018C2F0E94D201C230D105E8
:1005300069F0C330D10509F47FC02197B1F10E9461
:100540001C02DF91CF911F910F9108950E94190213
:100550008630E1F780E090E00E944602F801828751
:1005600081E090E00E944602F801838782E090E0FB
:100570000E944602F801858783E090E00E944602CF
:10058000F801848784E090E00E944602F8018787A2
:1005900085E090E00E944602F80186870E941C02D6
:1005A000DF91CF911F910F9108950E9419028A3017
:1005B000E1F780E090E00E944602F801808381E04C
:1005C00090E00E944602F801818382E090E00E9460
:1005D0004602F801828383E090E00E944602F8011F
:1005E000838384E090E00E944602F801848385E0E2
:1005F00090E00E944602F801858386E090E00E9428
:100600004602F801868387E090E00E944602F801E6
:10061000878388E090E00E944602F801808789E0A5
:1006200090E00E944602F80181870E941C02DF913F
:10063000CF911F910F9108950E9419028A30E1F71E
:1006400080E090E00E944602F801808B81E090E01B
:100650000E944602F801828B82E090E00E944602EE
:10066000F801818B83E090E00E944602F801848BC0
:1006700084E090E00E944602F801838B85E090E0E0
:100680000E944602F801858B86E090E00E944602B7
:10069000F801878B87E090E00E944602F801868B84
:1006A00088E090E00E944602F801818F89E090E0A6
:1006B0000E944602F801808F0E941C02DF91CF91B8
:1006C0001F910F910895519A599883E090E00E94EC
:1006D000DA0180E80E94D20128EC30E040E951E0E4
:1006E000CA010197F1F721503040D1F781E80E940B
:1006F000D20187E00E94D20128EE33E040E951E0C8
:10070000CA010197F1F721503040D1F780E090E025
:100710000E94DA0180E80E94D20128EC30E040E932
:1007200051E0CA010197F1F721503040D1F783E839
:100730000E94D20128EC30E040E951E0CA01019763
:10074000F1F721503040D1F70895982FF894809117
:10075000C00085FFFCCF9093C60078940895FC01FB
:100760008436910524F4EE59FD4F8081089580E090
:100770000895FC019081992361F03196F89480915D
:10078000C00085FFFCCF9093C60078949081992398
:10079000A1F708950E94B90380E090E008951092B7
:1007A0006102109260021092C6021092C50087E6A4
:1007B0008093C40088E98093C1008EE08093C200DA
:1007C00008958091600290916102089510926102F3
:1007D0001092600208951F920F920FB60F920BB6FF
:1007E0000F9211242F933F935F936F937F938F9377
:1007F0009F93AF93BF93EF93FF938091C00087FFC8
:10080000FCCFE0916002F09161028091C600EE5948
:10081000FD4F80838091600290916102019664E6B1
:1008200070E00E940513909361028093600281E062
:100830008093C602FF91EF91BF91AF919F918F91ED
:100840007F916F915F913F912F910F900BBE0F9011
:100850000FBE0F901F90189584B1807F84B984B12A
:10086000876084B9289A80E58CBD81E08DBD289889
:100870000895DC01442399F020E030E0FD01E20F0F
:10088000F31F80818EBD0DB407FEFDCF8EB5FB0139
:10089000E20FF31F80832F5F3F4F241778F30895F3
:1008A000482F662361F09C01F90180818EBD0DB453
:1008B00007FEFDCF31968E2F841B8617B0F3089567
:1008C0008EBD0DB407FEFDCF8EB508958091000258
:1008D000909101020097E1F020E080FD2F5F969556
:1008E00087950097D1F780E190E0821B910924E67B
:1008F00030E0AC01429FC001439F900D529F900D8C
:100900001124929582958F7089279F708927089569
:1009100084E608950F931F9302E011E0F8018081AF
:100920008F7B80838FEF0E946004F8019081906438
:1009300090831F910F910895CF92DF92EF92FF92D3
:100940000F931F937B01C42E02E011E0F801908108
:100950009F7B90838F7180620E946004D82EC701B4
:100960006C2D0E945004F8018081806480838D2D5D
:100970001F910F91FF90EF90DF90CF900895FC01B1
:10098000808180930F028181809310028281809305
:10099000110283818093120284818093130280E18B
:1009A000BF0145E00E949C040895EF92FF921F93BF
:1009B000CF93DF937B01EA01122F909102019F7B7D
:1009C000909302010E946004112339F0209781F076
:1009D000C701BE01412F0E94390480910201806449
:1009E00080930201DF91CF911F91FF90EF900895C6
:1009F000C701612F0E945004F0CF81EE60E070E0EB
:100A000040E050E020E00E94D50482EE60E070E01B
:100A100040E050E020E00E94D50408950F931F931A
:100A2000182F092F1092C702809102018F7D8093A9
:100A300002010E948A0490E08E70907095958795CF
:100A4000282FFC01EC5FFD4F8081813268F020E0AF
:100A500030E0809102018062809302011092C7020F
:100A6000C9011F910F9108952730B9F0208181E6C7
:100A7000612F702F412F502F0E94D5040E948A04AD
:100A800090E08E70907095958795873019F424E0EA
:100A900030E0DFCF23E030E0DCCF22E030E0D9CF20
:100AA000EF92FF920F931F93582FF62EE72E042FED
:100AB000442351F0862F972F9C01F9019FEF9193CA
:100AC0008E2F8F198017D8F3809102018F7B80932E
:100AD0000201852F8F710E946004182F80E090E042
:100AE0006F2D7E2D402F0E94390480910201806479
:100AF00080930201812F1F910F91FF90EF90089535
:100B00000F931F93DF93CF930F92CDB7DEB780E0A3
:100B10008E010F5F1F4FB80141E00E94500589818F
:100B200080FD0EC08160898380E0B80141E00E94B1
:100B30009C0484E091E0FC013197F1F70197F1F713
:100B40000F90CF91DF911F910F9108951F920F92F7
:100B50000FB60F920BB60F9211242F933F934F9322
:100B60005F936F937F938F939F93AF93BF93EF9315
:100B7000FF93DF93CF930F92CDB7DEB78091020141
:100B80008F7E80930201809102018F7D809302010C
:100B90000E948A04898390E086FD6FC0898185FF69
:100BA0004BC01092C70280910402882309F06CC0E8
:100BB0000E9480058091000290910102880F991F88
:100BC00090930102809300028091000290910102B3
:100BD0008160909301028093000281E090E0909305
:100BE00003028093020280E7898387E0BE016F5F82
:100BF0007F4F41E00E949C048091020180618093BC
:100C00000201809102018062809302010F90CF91D6
:100C1000DF91FF91EF91BF91AF919F918F917F9164
:100C20006F915F914F913F912F910F900BBE0F905D
:100C30000FBE0F901F90189584FFD5CF81EE60E016
:100C400070E040E050E020E00E94D5041092C7021E
:100C5000809104028823F9F40E94800580910002AB
:100C600090910102880F991F9093010280930002D6
:100C70001092030210920202B6CF8E70907095957A
:100C800087950E94C5128ACF8AE06AE072E045E04B
:100C90000E949C048DCF8AE06AE072E045E00E94E9
:100CA0009C04DACFCF92DF92EF92FF920F931F93C3
:100CB000DF93CF930F92CDB7DEB77C016B0181E05C
:100CC0008093C702809102018F7D8093020180E0B2
:100CD0008E010F5F1F4FB80141E00E9450058981CE
:100CE00080FD2DC08AE06FE072E045E00E949C0428
:100CF0008091020188608093020180EAB70140E0A0
:100D000050E020E20E94D50480910201806280932D
:100D10000201CD2891F48091C7028823E1F78091E8
:100D20000202909103020F90CF91DF911F910F91DA
:100D3000FF90EF90DF90CF90089581E0F4CF8E7F09
:100D4000898380E0B80141E00E949C0484E091E046
:100D5000FC013197F1F70197F1F7C4CFCF92DF9201
:100D6000EF92FF920F931F93DF93CF930F92CDB724
:100D7000DEB77C018B016430710520F482E0E81657
:100D8000F10450F00F90CF91DF911F910F91FF90E0
:100D9000EF90DF90CF90089586E06E010894C11C1B
:100DA000D11CB60141E00E945005602F660F898179
:100DB00086606823EF2841F4677F698386E0B60187
:100DC00041E00E949C04DECF68606983F7CFAF9258
:100DD000BF92CF92DF92EF92FF920F931F93DF9318
:100DE000CF930F92CDB7DEB78C01FB015A0186304D
:100DF000910508F046C0009709F44FC0982F965F00
:100E00000130110509F472C0A1E1CA2EC80E41E0FB
:100E1000892FBF010E949C0481E07E010894E11C9F
:100E2000F11CB70141E00E94500581E090E0002EE6
:100E300002C0880F991F0A94E2F7D82E89818D2964
:100E4000898381E0B70141E00E949C04AB28C9F589
:100E500019828C2DB70141E00E949C0489810C5FAE
:100E60001D4FF801808382E0B70141E00E945005E8
:100E7000D09489818D21898382E0B70141E00E946D
:100E80009C040F90CF91DF911F910F91FF90EF90F5
:100E9000DF90CF90BF90AF900895808180930A0239
:100EA000818180930B02828180930C0283818093E5
:100EB0000D02848180930E0245E09AE081E1C82E04
:100EC000A7CF80E289838C2DB70141E00E949C046A
:100ED00089810C5F1D4FF801808382E0B70141E0FA
:100EE0000E94500589818D298983C6CFB1E1CB2E1F
:100EF000C80E45E08DCFDF92EF92FF920F931F93C4
:100F0000DF93CF930F92CDB7DEB71092C702E1E027
:100F1000F1E080818861808322E0E22E21E0F22EE0
:100F2000D7018C918F7E8C938C91877F8C938C9141
:100F30008F7D8C93808180628083808180648083B8
:100F40006C98EAE6F0E080818260808380818E7F09
:100F50008083EC9AE49A80EE9BEA0197F1F70E9475
:100F60002C0483E089838E010F5F1F4FB80141E09D
:100F70000E949C0485E1898384E0B80141E00E94DD
:100F80009C0490E7D92ED98285E0B80141E00E9407
:100F90009C0489E0898386E0B80141E00E949C04BA
:100FA0008FE0898380E0B80141E00E949C04D982EF
:100FB00087E0B80141E00E949C0481EE60E070E0AF
:100FC00040E050E020E00E94D50482EE60E070E056
:100FD00040E050E020E00E94D50480E49FE10197CA
:100FE000F1F7F70180818062808380818061808356
:100FF0000F90CF91DF911F910F91FF90EF90DF90B5
:101000000895FFCFFF93FCB7FF93FFB7F894FF93CA
:10101000EF93DF93CF93BF93AF939F938F937F9380
:101020006F935F934F933F932F931F930F93FF9271
:10103000EF92DF92CF92BF92AF929F928F927F9268
:101040006F925F924F923F922F921F920F928DB7A5
:101050009EB79093D6028093D502E091CA02F09198
:10106000CB02E050FF4F808191819EBF8DBF0F90DA
:101070001F902F903F904F905F906F907F908F9038
:101080009F90AF90BF90CF90DF90EF90FF900F9127
:101090001F912F913F914F915F916F917F918F9110
:1010A0009F91AF91BF91CF91DF91EF91FF91FFBFE2
:1010B000FF91FCBFFF910895FF93FCB7FF93FFB72B
:1010C000F894FF93EF93DF93CF93BF93AF939F93E6
:1010D0008F937F936F935F934F933F932F931F93C0
:1010E0000F93FF92EF92DF92CF92BF92AF929F92B7
:1010F0008F927F926F925F924F923F922F921F92A8
:101100000F92E091CA02F091CB028DB79EB7E050EA
:10111000FF4F918380838091D5029091D6029EBF2C
:101120008DBF0F901F902F903F904F905F906F90CA
:101130007F908F909F90AF90BF90CF90DF90EF9077
:10114000FF900F911F912F913F914F915F916F9160
:101150007F918F919F91AF91BF91CF91DF91EF914F
:10116000FF91FFBFFF91FCBFFF910895FF93FCB774
:10117000FF93FFB7F894F068FF93EF93DF93CF935B
:10118000BF93AF939F938F937F936F935F934F938F
:101190003F932F931F930F93FF92EF92DF92CF9283
:1011A000BF92AF929F928F927F926F925F924F9277
:1011B0003F922F921F920F92E091CA02F091CB02C0
:1011C0008DB79EB7E050FF4F918380838091D50209
:1011D0009091D6029EBF8DBF81E090E090937E0CEF
:1011E00080937D0CE8E8F0E080819181805F984DEC
:1011F000918380838091D5029091D6029EBF8DBF4E
:101200000F901F902F903F904F905F906F907F9026
:101210008F909F90AF90BF90CF90DF90EF90FF9016
:101220000F911F912F913F914F915F916F917F91FE
:101230008F919F91AF91BF91CF91DF91EF91FF91EE
:10124000FFBFFF91FCBFFF9108950F931F93CF93B2
:10125000DF938C01EB01DC01ED91FC91119730974C
:10126000E1F16E817F81A0E0B0E001C0FC018091DE
:10127000D0029091D1022091D0023091D102AB01E5
:10128000481B590B86819781821B930B481759077E
:10129000B8F080859185DF01009741F7D80112965B
:1012A000ED91FC911397D187C0871396DC93CE9371
:1012B000129719861886DF91CF911F910F9108958B
:1012C0001097C9F01996DC93CE931897F987E887A1
:1012D000DF91CF911F910F91089511967C936E939A
:1012E00013967C936E93129719861886DF91CF918F
:1012F0001F910F910895D801CD93DC93E7CFCF9341
:10130000DF93C091990CD0919A0C209709F4DFC01B
:101310008091830C9091840C019709F470C08091A6
:10132000830C9091840C8F5F9F4F09F48BC0809148
:101330009B0C90919C0CC817D90709F4BFC0C45FDF
:10134000DE4F88819981CC50D14090939A0C809344
:10135000990CDE01A150BF4FFD01B897128280E8C1
:1013600080A313A280917F0C9091800C94A3809114
:101370007F0C9091800C85A316A286E39CE097A336
:101380008C93C050DF4FF983E883269682E090E08B
:10139000899399938091810C9091820C9983888391
:1013A0008091830C9091840C269799838883C250F6
:1013B000D1408091830C9091840C8130910509F487
:1013C00046C08230910529F1892BB1F58091A90C95
:1013D0009091AA0C892B09F480C0E091AB0CF0919C
:1013E000AC0CE45FFE4FD183C083D093AC0CC093B0
:1013F000AB0C20E030E0C901DF91CF9108958091DE
:101400009D0C90919E0C892B09F089CF22E030E051
:1014100015C08091A10C9091A20C892B09F468C091
:10142000E091A30CF091A40CE45FFE4FD183C08344
:10143000D093A40CC093A30C20E030E0C901DF914D
:10144000CF910895C0913602D091370282CFE091BA
:101450009D0CF0919E0C309771F080919F0C9091B3
:10146000A00CE817F90709F44EC080859185909388
:101470009E0C80939D0C80918B0C90918C0C97838B
:1014800086838091870C9091880C938382838091CE
:10149000890C90918A0C95838483D183C083CC5F1F
:1014A000DE4FF983E88385EA9CE0BF010E942509AD
:1014B00020E030E0C901DF91CF91089510929C0C9B
:1014C00010929B0C10929A0C1092990C42CF21E032
:1014D00030E0C901DF91CF910895D093AA0CC09359
:1014E000A90CD093AC0CC093AB0C20E030E0A6CF9D
:1014F000D093A20CC093A10CD093A40CC093A30CC6
:1015000020E030E09BCF1092A00C10929F0C109224
:101510009E0C10929D0CAFCF0F931F938091810072
:10152000826080938100EBEDF3E013821282CF01A1
:101530000A969187808711821082E25FFE4F8CE0CD
:10154000EB34F80791F7118610861092460B109233
:10155000450B138212821182108225E53CE0F901CD
:1015600017821682158214821382128211821082CF
:10157000CF010A9691878087FC018CE0E337F8075A
:1015800079F71182108211861086178216821582D1
:1015900014821382128207ED12E010939A0C0093CA
:1015A000990C89E39AE090939C0C80939B0C309368
:1015B0009E0C20939D0CF093A00CE0939F0C109236
:1015C000A60C1092A50C1092A80C1092A70C1092C9
:1015D000A20C1092A10C1092A40C1092A30C1092C9
:1015E000AA0C1092A90C1092AC0C1092AB0C81E0DA
:1015F00098E09093800C80937F0C8FEF9FEF9093F7
:10160000840C8093830C1092820C1092810C0E94A7
:101610007F098AE291E19093800C80937F0C109275
:10162000840C1092830C1092820C1092810C0E94F8
:101630007F091093CB020093CA0281E090E090935F
:10164000DE038093DD03E091A90CF091AA0C3097A2
:1016500079F08091AB0C9091AC0CE817F907E1F0B0
:10166000E45FFE4F808191819093AA0C8093A90C36
:1016700080916F00826080936F00809184009091D0
:101680008500805F984D909389008093880082E068
:1016900086BB1F910F9108951092AC0C1092AB0C69
:1016A0001092AA0C1092A90CE3CFF89480E884B9A8
:1016B00080913502882309F04DC0709135027F5F1B
:1016C000F0E840E951E0F5B960E02AEF30E0CA0106
:1016D0000197F1F721503040D1F76F5F6436A9F7D9
:1016E00015B860E02AEF30E0CA010197F1F7215008
:1016F0003040D1F76F5F6832A9F77723F1F0E0E06F
:10170000F5B960E02AEF30E0CA010197F1F7215006
:101710003040D1F76F5F6A30A9F715B860E02AEF63
:1017200030E0CA010197F1F721503040D1F76F5FE7
:101730006A30A9F7EF5FE71718F360E02AEF30E0AF
:10174000CA010197F1F721503040D1F76F5F643142
:10175000A9F7B9CF709135027150B2CFE091A50CC5
:10176000F091A60C309781F1A091A70CB091A80C34
:10177000EA17FB0711F1268137810084F185E02DFE
:10178000868197812817390779F08091D00290914E
:10179000D10240E02817390709F041E081E04827ED
:1017A000242F30E0C901089586E0809335020E941D
:1017B000550BA091A50CB091A60C109729F0169688
:1017C0002D913C911797E1CF20E030E0C9010895B9
:1017D0008091C8029091C9020197B1F18091A90C42
:1017E0009091AA0C892B51F0E091CA02F091CB02A2
:1017F000EE5FFE4F80819181892B71F40E94AE0BC8
:10180000892B71F0E091CA02F091CB02EE5FFE4F9E
:1018100080819181029724F021E030E0C901089590
:101820008091A10C9091A20C892B71F020E030E006
:10183000E091CA02F091CB02EE5FFE4F8081918170
:10184000039754F7C901089520E030E0C9010895D5
:101850001F931FB7F89484E090E090937E0C8093E0
:101860007D0C0E945C081FBF1F9108951F931FB736
:10187000F89483E090E090937E0C80937D0C0E941E
:101880005C081FBF1F910895E091CA02F091CB023E
:10189000E85FFE4F8081918108951F931FB7F894F0
:1018A0009093800C80937F0C7093820C6093810CDA
:1018B0005093840C4093830C82E090E090937E0CD4
:1018C00080937D0C0E945C0820918F0C3091900CCD
:1018D0001FBFC9011F91089540E050E00E944D0CC8
:1018E000089542E050E00E944D0C0895AF92BF92DF
:1018F000CF92DF92EF92FF920F931F93CF93DF93DC
:101900006C015B01EA0179014115510519F02417B9
:10191000350728F084E0809335020E94550BD09360
:10192000880CC093870C10938C0C00938B0CF09256
:101930008A0CE092890CC601B50141E050E00E949A
:101940004D0CDF91CF911F910F91FF90EF90DF90A1
:10195000CF90BF90AF9008951F931FB7F89486E083
:1019600090E090937E0C80937D0C0E945C081FBFDA
:101970008091910C9091920C1F9108951F931FB725
:10198000F8949093940C8093930C7093960C6093BE
:10199000950C87E090E090937E0C80937D0C0E94E4
:1019A0005C081FBF1F9108951F931FB7F894909371
:1019B000940C8093930C7093980C6093970C88E030
:1019C00090E090937E0C80937D0C0E945C081FBF7A
:1019D0001F91089581E090E09093C9028093C8021E
:1019E0000895E091D002F091D1028091840090910D
:1019F00085002091D2023091D302821B930B60EDBF
:101A000077E00E94F112CF01880F991F880F991F6C
:101A10008E0F9F1F680F791FCB0108952F923F9261
:101A20004F925F926F927F928F929F92AF92BF92EE
:101A3000CF92DF92EF92FF920F931F93CF93DF939A
:101A40000E948C0AE0903602F0903702A091CA0200
:101A5000B091CB0231E0C32ED12C28E0822E02E0DF
:101A600010E092E0992E89E0582EF3E06F2E712C51
:101A7000EBE04E2E7AE0372E6CE0B62E5DE0A52E20
:101A800045E0242E1AC0C130D10509F4F5C1C1309A
:101A9000D10558F0C230D10509F475C1239709F476
:101AA00044C1909235020E94550BA091CA02B09198
:101AB000CB0210927E0C10927D0C109709F45CC240
:101AC000AA5FBE4F8D919C911197A650B14001978E
:101AD00009F4CCC0E091A90CF091AA0C309709F45C
:101AE000D7C08091AB0C9091AC0CE817F90709F4C2
:101AF0003AC2E45FFE4F80819181EC50F1409093B7
:101B0000AA0C8093A90CF093CB02E093CA02E09157
:101B1000CA02F091CB02EA5FFE4FD182C0821092DE
:101B2000C9021092C8020E940208C0917D0CD09197
:101B30007E0CC430D10509F4EBC1C530D10508F4E1
:101B4000A2CFC630D10509F47CC1C630D10508F456
:101B5000ACCFC730D10509F43BC1289709F0A1CF1C
:101B6000C091930CD091940C209709F4EEC2A881F7
:101B7000B981109709F447C08A819B818A179B0716
:101B800009F4CEC0A45FBE4F8D919C911197AC50CB
:101B9000B140998388838091970C9091980CA65FAF
:101BA000BE4FED91FC91119791838083149711960C
:101BB0001C930E9314978D919C911197A250B14054
:101BC0008130910509F4A7C08230910509F48FC0D6
:101BD000892B09F087C08091A90C9091AA0C892BC0
:101BE00009F4CFC1E091AB0CF091AC0CE45FFE4F77
:101BF000B183A083B093AC0CA093AB0CA881B98146
:101C0000109709F0B9CF0E94E80B892B09F44DCF4A
:101C1000A091CA02B091CB02AA5FBE4F11961C934D
:101C20000E9314978D919C911197A250B1408130E1
:101C3000910509F46FC28230910509F44FC2892BD6
:101C400009F037CF8091A90C9091AA0C892B09F447
:101C50008AC2E091AB0CF091AC0CE45FFE4FB18313
:101C6000A083B093AC0CA093AB0C23CFAE15BF05F3
:101C700009F055CF8091C8029091C902892B09F0D3
:101C80004ECFE091A90CF091AA0C309709F029CF22
:101C90000E94AE0B892B09F407C2E091A50CF091CC
:101CA000A60C309771F08091A70C9091A80CE817C2
:101CB000F90709F46FC2808591859093A60C8093F3
:101CC000A50CF093CD02E093CC028081918190939A
:101CD000CB028093CA02848195819093CF02809336
:101CE000CE0215CFA09235020E94550B40CF8091B5
:101CF000A10C9091A20C892B09F44CC1E091A30C8A
:101D0000F091A40CE45FFE4FB183A083B093A40CC8
:101D1000A093A30C2CCFB09235020E94550B27CF75
:101D20001B821A821982188236CFA091CA02B09102
:101D3000CB02EA16FB0609F4BCCEAA5FBE4F119691
:101D40001C921E9214978D919C911197A250B140B4
:101D5000019709F46EC18091990C90919A0C892B8E
:101D600009F483C1E0919B0CF0919C0CE45FFE4F61
:101D7000B183A083B0939C0CA0939B0CA091CA024A
:101D8000B091CB0296CE0E947F099093900C8093E5
:101D90008F0C80918F0C9091900C892B09F403C1CA
:101DA00080918F0C9091900C019709F4C0C18091A3
:101DB0008F0C9091900C029709F077CE83E080937E
:101DC00035020E94550BA091CA02B091CB0271CE90
:101DD000C091930CD091940C209709F4BBC1A091B1
:101DE000CA02B091CB02AE5FBE4F8D919C9111970C
:101DF000A250B140019709F484C1A65FBE4F809103
:101E0000950C9091960C11969C938E93AA50B1408C
:101E100088819981892B09F493C1EA81FB81E45F70
:101E2000FE4FB183A083BB83AA83A091CA02B09165
:101E3000CB02AA5FBE4F11967C926E92A650B14023
:101E400038CE2091D4022A3008F0EAC0822F90E0E8
:101E5000880F991F880F991F880F991F8355934FDB
:101E60009093920C8093910C2F5F2093D402A091B9
:101E7000CA02B091CB021DCE8091D0029091D102C6
:101E800001969093D1028093D0028091840090912A
:101E900085009093D3028093D202A091CA02B091A0
:101EA000CB02AE5FBE4F8D919C911197A250B14075
:101EB000019709F4A0C0AE5FBE4F2D913C911197E0
:101EC000A250B1402230310509F0F3CDFD01EA5FA7
:101ED000FE4F80819181019709F0EBCD3183208302
:101EE0008091A10C9091A20C892B09F445C1E0913D
:101EF000A30CF091A40CE45FFE4FB183A083B093D8
:101F0000A40CA093A30CA091CA02B091CB02D1CD96
:101F1000A091CA02B091CB02AA5FBE4F11961C934A
:101F20000E9314978D919C911197A250B1408130DE
:101F3000910509F4A3C08230910509F080CE80910B
:101F4000A10C9091A20C892B09F416C1E091A30C6D
:101F5000F091A40CE45FFE4FB183A083B093A40C76
:101F6000A093A30CA6CD1092AC0C1092AB0C1092C7
:101F7000AA0C1092A90CC7CD809235020E94550B75
:101F8000CECDB093AA0CA093A90CB093AC0CA093A7
:101F9000AB0CEDCDB093A20CA093A10CB093A40C0C
:101FA000A093A30CE4CD0E94E80B892B09F4F8CE92
:101FB000A091CA02B091CB02AA5FBE4F1196DC93EA
:101FC000CE9314978D919C911197A250B14082307D
:101FD000910509F483C0019709F06BCDAC5FBE4F4A
:101FE0006D917C9185EA9CE00E942509A091CA022E
:101FF000B091CB025ECD8091CE029091CF0201973D
:102000009093CF028093CE02892B09F054CF209277
:1020100035020E94550BA091CA02B091CB024BCF62
:10202000509235020E94550BA091CA02B091CB028A
:1020300040CDAC5FBE4FED91FC911197A450B140E3
:10204000309709F488CE118210828DE99CE0BF019F
:102050000E942509A091CA02B091CB028091990CEF
:1020600090919A0C892B09F07DCEB0939A0CA09395
:10207000990CB0939C0CA0939B0C1BCDE091CC02CF
:10208000F091CD028681978122813381820F931F47
:102090009783868385EA9CE0BF010E942509A09171
:1020A000CA02B091CB0205CDE091A10CF091A20C37
:1020B000309709F46AC08091A30C9091A40CE817A2
:1020C000F90709F480C0E45FFE4F80819181EC50F4
:1020D000F1409093A20C8093A10C15CD8091A10C9E
:1020E0009091A20C009709F45EC0A45FBE4F1196B8
:1020F0009C938E93AC50B140B093A20CA093A10CD2
:10210000D8CC409235020E94550BA091CA02B091E2
:10211000CB02CFCC6091CC027091CD0285EA9CE0DD
:102120000E942509A091CA02B091CB02C2CC909224
:1021300035020E94550BA091CA02B091CB02B9CCD6
:10214000B983A883BB83AA8370CE309235020E94E4
:10215000550B59CD309235020E94550BA091CA0201
:10216000B091CB02A6CCB093AA0CA093A90CB093CB
:10217000AC0CA093AB0C9DCCB093A20CA093A10C83
:10218000B093A40CA093A30C94CCF092CB02E09259
:10219000CA02BDCC1092A80C1092A70C1092A60CEB
:1021A0001092A50C8ECDB093A40CA093A30CB09369
:1021B000A20CA093A10CA45FBE4F11961C921E927C
:1021C000AC50B14076CC1092A40C1092A30C10929B
:1021D000A20C1092A10C97CCFC0181858093010D7B
:1021E00092859093020D882339F4429A419899235D
:1021F00049F0913049F008958130C9F7419A4298E9
:102200009923B9F7409A08954098089580910A015A
:10221000846080930A0180910B018B7F80930B0176
:1022200028E833E140E951E0CA010197F1F7215074
:102230003040D1F780910B01846080930B0128E836
:1022400033E140E951E0CA010197F1F721503040F4
:10225000D1F708950E9406110E947B070E94950005
:102260006091380285E0689FB00111246C5E7D4F5B
:1022700080E090E041E050E00E94E70680E090E0DE
:1022800063E070E00E94AE060E94AC0C9093FF0CDD
:102290008093FE0C0E94AC0C9093060D8093050D6C
:1022A00082ED92E160E070E00E946C0C84E292E1C9
:1022B00060E070E00E94710C88E791E160E070E0FE
:1022C0000E94710C80913802ECE2F2E0E80FF11DFF
:1022D00080818093000D1092010D1092020D1092DA
:1022E000030D1092040D0E94360C80E090E00895DA
:1022F0000F931F93DF93CF930F920F92CDB7DEB75B
:102300008E010F5F1F4F8091050D9091060DB80152
:102310000E94BE0C89818093040DF5CFDF93CF938B
:10232000CDB7DEB7A0970FB6F894DEBF0FBECDBF16
:102330008091380290E0FC01EE0FFF1FEE0FFF1FAF
:10234000E80FF91FEC5EFD4F80818C8381818D83C6
:1023500082818E8383818F83848188878091000D21
:102360008C878091010D8D878091020D8E879091D1
:10237000040D1F86992311F081E08F87988B85B11A
:1023800090E2892785B91092030D1092040D1982ED
:10239000CE01019661E070E00E945206A0960FB651
:1023A000F894DEBF0FBECDBFCF91DF910895FC0141
:1023B00085816CE10E94E51292E3899FA0011124BE
:1023C000485C504086810E94E51224E030E0281BE2
:1023D000310982E390E0289FF001299FF00D389F9A
:1023E000F00D1124309779F066277727641B750B61
:1023F000CF010E9466028091FD0C853091F08F5FC5
:102400008093FD0C089514161506A4F4E8ECF0E092
:102410006FEF7FEFCF010E9466028091FD0C853047
:1024200071F78091000D0E94180180E08F5F80930A
:10243000FD0C0895452B19F460E070E0D9CFE8EC6D
:10244000F0E061E070E0D4CFAF92BF92CF92DF9224
:10245000EF92FF920F931F93DF93CF93CDB7DEB729
:10246000A2970FB6F894DEBF0FBECDBF5E010894F1
:10247000A11CB11C43E0E42EF12CEC0EFD1E36E055
:10248000C32ED12CCC0EDD1E8091FE0C9091FF0C42
:10249000B5010E94BE0C03C00330110599F4C701B9
:1024A0000E940E058C0103970297B0F78B81882359
:1024B00099F7C6010E94D711C6010E94EC100330A3
:1024C000110569F30E948E11DFCFEF92FF920F93F7
:1024D0001F93CF93DF937C01FC019081892F80585B
:1024E0008230E8F09338D9F09438C9F09E38B9F0CA
:1024F000892F0E94D201F7018181882381F0870111
:10250000C0E0D0E0F80182810E94D20121960F5FE5
:102510001F4FF701818190E0C817D9079CF3DF9125
:10252000CF911F910F91FF90EF9008950F931F93FC
:10253000CF93DF9385B190E4892785B90E946F011D
:10254000082F10E0CCE2D2E0888190E0801791075C
:1025500051F0219682E0C033D807B1F7DF91CF91D7
:102560001F910F910895E0913802F0E0E45DFD4F76
:10257000808190E08017910761F38091050D909123
:10258000060DB8010E94D40CE4CF85B190E18927F3
:1025900085B98091FE0C9091FF0C60E070E00E9484
:1025A000D40C08950E94630380E392E00E94BF046C
:1025B000249A259A269A2C982D982E98389A399AEA
:1025C0003A9A4098419842980895991B79E004C03E
:1025D000991F961708F0961B881F7A95C9F7809562
:1025E0000895AA1BBB1B51E107C0AA1FBB1FA6175A
:1025F000B70710F0A61BB70B881F991F5A95A9F7AC
:1026000080959095BC01CD01089597FB092E072672
:102610000AD077FD04D0E5DF06D000201AF47095CB
:1026200061957F4F0895F6F7909581959F4F089596
:04263000F894FFCF4C
:10263400FF000100202000000000E7E7E7E7E7E7EC
:10264400E7E7E7E74A4A4A4A4A4B4B4B4B4B4C4C69
:102654004C4C4C4D4D4D4D4D686A6C6E4A4B4C4D37
:0A266400FFFFFFFFFF01470B01001D
:00000001FF
