:100000000C9472000C9493000C9493000C94930045
:100010000C9493000C94A6050C94CE000C949300C1
:100020000C9493000C9493000C9493000C94930004
:100030000C9493000C9493000C9493000C949300F4
:100040000C9493000C94B6080C9493000C949300B9
:100050000C9493000C9493000C9493000C949300D4
:100060000C9493000C94EB030C9493000C94930069
:100070000C9493000C9493000C9493000C949300B4
:100080000C9472010C9493000C9493000C949300C4
:100090000C941F020C9493000C9493000C94930006
:1000A0000C9493000C9493000C9493000C94930084
:1000B0000C9493000C9493000C9493000C94930074
:1000C0000C9493000C9493000C9493000C94930064
:1000D0000C9493000C9493000C9493000C94930054
:1000E0000C94930011241FBECFEFD1E2DEBFCDBF31
:1000F00000E00CBF12E0A0E0B2E0E4E4F6E200E0D1
:100100000BBF02C007900D92A833B107D9F71DE0CD
:10011000A8E3B2E001C01D92A630B107E1F70E944A
:100120000E0D0C9420130C940000EAE0F1E08081A5
:1001300088628083E0E2F1E01082A1E2B1E01C92EB
:100140008081836080838C9188618C938081877F9C
:1001500080838C9181608C9385EA91E09093290152
:100160008093280182ED90E090932D0180932C01E3
:1001700010929000E1E9F0E010828081816080833C
:10018000E1E7F0E080818D7F80836D98EAE6F0E022
:1001900080818C608083ED9AE59A08951F920F927A
:1001A0000FB60F9211248F939F9380913902882369
:1001B000B9F481E08093390210923A0210923B0226
:1001C000C19A80919400909195008052914D9093A6
:1001D00099008093980080917100826080937100F3
:1001E0009F918F910F900FBE0F901F901895E59AD9
:1001F000ED9A0895ED98E1E7F0E080818D7F8083AE
:10020000C19A109239020895E0E2F1E0808188609D
:10021000808380ED97E00197F1F70895E0E2F1E047
:100220008081877F808380ED97E00197F1F70895C3
:100230000F931F93182F0FB7F8940E94FA00809124
:100240002001886080932001809120018860809344
:10025000200120ED37E0C9010197F1F780912001DD
:10026000877F80932001C9010197F1F7412F50E06A
:1002700020E030E060ED77E00DC0809120018860E3
:1002800080932001CB010197F1F72F5F3F4F28307A
:100290003105B1F0CA01022E02C0959587950A94E6
:1002A000E2F780FDEACF80912001877F80932001D3
:1002B000CB010197F1F72F5F3F4F2830310551F700
:1002C00080912001877F8093200180ED97E0019746
:1002D000F1F7E59AED9A0FBF1F910F910895809164
:1002E000380208951F920F920FB60F920BB60F921D
:1002F00011242F933F934F935F936F937F938F932B
:100300009F93AF93BF93EF93FF938091390288231C
:10031000B1F165990EC030913A0220913B0281E023
:1003200090E002C0880F991F3A95E2F7282B20939E
:100330003B0280913A028F5F80933A02809198004D
:1003400090919900805C904E9093990080939800D2
:1003500080913A028830B0F4FF91EF91BF91AF9154
:100360009F918F917F916F915F914F913F912F91CD
:100370000F900BBE0F900FBE0F901F90189580919D
:100380003C02EACF10923902809171008D7F8093F8
:100390007100C19AE59A80913B02809338020E94D5
:1003A0009E12DACF982F8091C80085FFFCCF9093E2
:1003B000CE0008959C014FB7F894809165008E7F20
:1003C000809365002130310569F121303105B0F4A9
:1003D00083E390E09093CD008093CC0080E4809301
:1003E000C80088E08093C90086E08093CA008091AD
:1003F000C8008D7F8093C8004FBF0895223031051B
:1004000019F02330310539F080E190E09093CD0070
:100410008093CC00E3CF88E090E09093CD00809370
:10042000CC00DCCF89E190E09093CD008093CC00AC
:10043000D5CF80915D02089510925D0208951F92BC
:100440000F920FB60F920BB60F9211248F939F93BA
:10045000EF93FF9380915D029091CE00EDE3F2E087
:10046000E80FF11D908380915D0290E001968F71FD
:10047000907080935D02FF91EF919F918F910F900B
:100480000BBE0F900FBE0F901F901895FC0180328D
:10049000910524F4E35CFD4F8081089580E0089588
:1004A000FF920F931F93182F062FF42E8BE80E94B4
:1004B000D201812F0E94D201802F0E94D2018F2D64
:1004C0000E94D2011F910F91FF900895EF92FF9229
:1004D0000F931F938C017B0189E80E94D201812F29
:1004E000992787FD9A950E94D201802F0E94D20100
:1004F0008F2D992787FD9A950E94D2018E2D0E94FB
:10050000D2011F910F91FF90EF9008958DEA0E9404
:10051000D20108950F931F93CF93DF93EC018B01CA
:100520008EE80E94D2018C2F0E94D201C230D105E8
:1005300069F0C330D10509F47FC02197B1F10E9461
:100540001C02DF91CF911F910F9108950E94190213
:100550008630E1F780E090E00E944602F801828751
:1005600081E090E00E944602F801838782E090E0FB
:100570000E944602F801858783E090E00E944602CF
:10058000F801848784E090E00E944602F8018787A2
:1005900085E090E00E944602F80186870E941C02D6
:1005A000DF91CF911F910F9108950E9419028A3017
:1005B000E1F780E090E00E944602F801808381E04C
:1005C00090E00E944602F801818382E090E00E9460
:1005D0004602F801828383E090E00E944602F8011F
:1005E000838384E090E00E944602F801848385E0E2
:1005F00090E00E944602F801858386E090E00E9428
:100600004602F801868387E090E00E944602F801E6
:10061000878388E090E00E944602F801808789E0A5
:1006200090E00E944602F80181870E941C02DF913F
:10063000CF911F910F9108950E9419028A30E1F71E
:1006400080E090E00E944602F801808B81E090E01B
:100650000E944602F801828B82E090E00E944602EE
:10066000F801818B83E090E00E944602F801848BC0
:1006700084E090E00E944602F801838B85E090E0E0
:100680000E944602F801858B86E090E00E944602B7
:10069000F801878B87E090E00E944602F801868B84
:1006A00088E090E00E944602F801818F89E090E0A6
:1006B0000E944602F801808F0E941C02DF91CF91B8
:1006C0001F910F910895519A599883E090E00E94EC
:1006D000DA0180E80E94D20128EC30E040E951E0E4
:1006E000CA010197F1F721503040D1F781E80E940B
:1006F000D20187E00E94D20128EE33E040E951E0C8
:10070000CA010197F1F721503040D1F780E090E025
:100710000E94DA0180E80E94D20128EC30E040E932
:1007200051E0CA010197F1F721503040D1F783E839
:100730000E94D20128EC30E040E951E0CA01019763
:10074000F1F721503040D1F70895982FF894809117
:10075000C00085FFFCCF9093C60078940895FC01FB
:100760008436910524F4E05AFD4F8081089580E09D
:100770000895FC019081992361F03196F89480915D
:10078000C00085FFFCCF9093C60078949081992398
:10079000A1F708950E94B90380E090E008951092B7
:1007A0005F0210925E021092C4021092C50087E6AA
:1007B0008093C40088E98093C1008EE08093C200DA
:1007C000089580915E0290915F02089510925F02F9
:1007D00010925E0208951F920F920FB60F920BB601
:1007E0000F9211242F933F935F936F937F938F9377
:1007F0009F93AF93BF93EF93FF938091C00087FFC8
:10080000FCCFE0915E02F0915F028091C600E05A59
:10081000FD4F808380915E0290915F02019664E6B5
:1008200070E00E940D1390935F0280935E0281E05E
:100830008093C402FF91EF91BF91AF919F918F91EF
:100840007F916F915F913F912F910F900BBE0F9011
:100850000FBE0F901F90189584B1807F84B984B12A
:10086000876084B9289A80E58CBD81E08DBD289889
:100870000895DC01442399F020E030E0FD01E20F0F
:10088000F31F80818EBD0DB407FEFDCF8EB5FB0139
:10089000E20FF31F80832F5F3F4F241778F30895F3
:1008A000482F662361F09C01F90180818EBD0DB453
:1008B00007FEFDCF31968E2F841B8617B0F3089567
:1008C0008EBD0DB407FEFDCF8EB508958091000258
:1008D000909101020097E1F020E080FD2F5F969556
:1008E00087950097D1F780E190E0821B910924E67B
:1008F00030E0AC01429FC001439F900D529F900D8C
:100900001124929582958F7089279F708927089569
:1009100084E608950F931F9302E011E0F8018081AF
:100920008F7B80838FEF0E946004F8019081906438
:1009300090831F910F910895CF92DF92EF92FF92D3
:100940000F931F937B01C42E02E011E0F801908108
:100950009F7B90838F7180620E946004D82EC701B4
:100960006C2D0E945004F8018081806480838D2D5D
:100970001F910F91FF90EF90DF90CF900895FC01B1
:10098000808180930F028181809310028281809305
:10099000110283818093120284818093130280E18B
:1009A000BF0145E00E949C040895EF92FF921F93BF
:1009B000CF93DF937B01EA01122F909102019F7B7D
:1009C000909302010E946004112339F0209781F076
:1009D000C701BE01412F0E94390480910201806449
:1009E00080930201DF91CF911F91FF90EF900895C6
:1009F000C701612F0E945004F0CF81EE60E070E0EB
:100A000040E050E020E00E94D50482EE60E070E01B
:100A100040E050E020E00E94D50408950F931F931A
:100A2000182F092F1092C502809102018F7D8093AB
:100A300002010E948A0490E08E70907095958795CF
:100A4000282FFC01EC5FFD4F8081813268F020E0AF
:100A500030E0809102018062809302011092C50211
:100A6000C9011F910F9108952730B9F0208181E6C7
:100A7000612F702F412F502F0E94D5040E948A04AD
:100A800090E08E70907095958795873019F424E0EA
:100A900030E0DFCF23E030E0DCCF22E030E0D9CF20
:100AA000EF92FF920F931F93582FF62EE72E042FED
:100AB000442351F0862F972F9C01F9019FEF9193CA
:100AC0008E2F8F198017D8F3809102018F7B80932E
:100AD0000201852F8F710E946004182F80E090E042
:100AE0006F2D7E2D402F0E94390480910201806479
:100AF00080930201812F1F910F91FF90EF90089535
:100B00000F931F93DF93CF930F92CDB7DEB780E0A3
:100B10008E010F5F1F4FB80141E00E94500589818F
:100B200080FD0EC08160898380E0B80141E00E94B1
:100B30009C0484E091E0FC013197F1F70197F1F713
:100B40000F90CF91DF911F910F9108951F920F92F7
:100B50000FB60F920BB60F9211242F933F934F9322
:100B60005F936F937F938F939F93AF93BF93EF9315
:100B7000FF93DF93CF930F92CDB7DEB78091020141
:100B80008F7E80930201809102018F7D809302010C
:100B90000E948A04898390E086FD6FC0898185FF69
:100BA0004BC01092C50280910402882309F06CC0EA
:100BB0000E9480058091000290910102880F991F88
:100BC00090930102809300028091000290910102B3
:100BD0008160909301028093000281E090E0909305
:100BE00003028093020280E7898387E0BE016F5F82
:100BF0007F4F41E00E949C048091020180618093BC
:100C00000201809102018062809302010F90CF91D6
:100C1000DF91FF91EF91BF91AF919F918F917F9164
:100C20006F915F914F913F912F910F900BBE0F905D
:100C30000FBE0F901F90189584FFD5CF81EE60E016
:100C400070E040E050E020E00E94D5041092C50220
:100C5000809104028823F9F40E94800580910002AB
:100C600090910102880F991F9093010280930002D6
:100C70001092030210920202B6CF8E70907095957A
:100C800087950E94CD128ACF8AE06AE072E045E043
:100C90000E949C048DCF8AE06AE072E045E00E94E9
:100CA0009C04DACFCF92DF92EF92FF920F931F93C3
:100CB000DF93CF930F92CDB7DEB77C016B0181E05C
:100CC0008093C502809102018F7D8093020180E0B4
:100CD0008E010F5F1F4FB80141E00E9450058981CE
:100CE00080FD2DC08AE06FE072E045E00E949C0428
:100CF0008091020188608093020180EAB70140E0A0
:100D000050E020E20E94D50480910201806280932D
:100D10000201CD2891F48091C5028823E1F78091EA
:100D20000202909103020F90CF91DF911F910F91DA
:100D3000FF90EF90DF90CF90089581E0F4CF8E7F09
:100D4000898380E0B80141E00E949C0484E091E046
:100D5000FC013197F1F70197F1F7C4CFCF92DF9201
:100D6000EF92FF920F931F93DF93CF930F92CDB724
:100D7000DEB77C018B016430710520F482E0E81657
:100D8000F10450F00F90CF91DF911F910F91FF90E0
:100D9000EF90DF90CF90089586E06E010894C11C1B
:100DA000D11CB60141E00E945005602F660F898179
:100DB00086606823EF2841F4677F698386E0B60187
:100DC00041E00E949C04DECF68606983F7CFAF9258
:100DD000BF92CF92DF92EF92FF920F931F93DF9318
:100DE000CF930F92CDB7DEB78C01FB015A0186304D
:100DF000910508F046C0009709F44FC0982F965F00
:100E00000130110509F472C0A1E1CA2EC80E41E0FB
:100E1000892FBF010E949C0481E07E010894E11C9F
:100E2000F11CB70141E00E94500581E090E0002EE6
:100E300002C0880F991F0A94E2F7D82E89818D2964
:100E4000898381E0B70141E00E949C04AB28C9F589
:100E500019828C2DB70141E00E949C0489810C5FAE
:100E60001D4FF801808382E0B70141E00E945005E8
:100E7000D09489818D21898382E0B70141E00E946D
:100E80009C040F90CF91DF911F910F91FF90EF90F5
:100E9000DF90CF90BF90AF900895808180930A0239
:100EA000818180930B02828180930C0283818093E5
:100EB0000D02848180930E0245E09AE081E1C82E04
:100EC000A7CF80E289838C2DB70141E00E949C046A
:100ED00089810C5F1D4FF801808382E0B70141E0FA
:100EE0000E94500589818D298983C6CFB1E1CB2E1F
:100EF000C80E45E08DCFDF92EF92FF920F931F93C4
:100F0000DF93CF930F92CDB7DEB71092C502E1E029
:100F1000F1E080818861808322E0E22E21E0F22EE0
:100F2000D7018C918F7E8C938C91877F8C938C9141
:100F30008F7D8C93808180628083808180648083B8
:100F40006C98EAE6F0E080818260808380818E7F09
:100F50008083EC9AE49A80EE9BEA0197F1F70E9475
:100F60002C0483E089838E010F5F1F4FB80141E09D
:100F70000E949C0485E1898384E0B80141E00E94DD
:100F80009C0490E7D92ED98285E0B80141E00E9407
:100F90009C0489E0898386E0B80141E00E949C04BA
:100FA0008FE0898380E0B80141E00E949C04D982EF
:100FB00087E0B80141E00E949C0481EE60E070E0AF
:100FC00040E050E020E00E94D50482EE60E070E056
:100FD00040E050E020E00E94D50480E49FE10197CA
:100FE000F1F7F70180818062808380818061808356
:100FF0000F90CF91DF911F910F91FF90EF90DF90B5
:101000000895FFCFFF93FCB7FF93FFB7F894FF93CA
:10101000EF93DF93CF93BF93AF939F938F937F9380
:101020006F935F934F933F932F931F930F93FF9271
:10103000EF92DF92CF92BF92AF929F928F927F9268
:101040006F925F924F923F922F921F920F928DB7A5
:101050009EB79093D4028093D302E091C802F0919E
:10106000C902E050FF4F808191819EBF8DBF0F90DC
:101070001F902F903F904F905F906F907F908F9038
:101080009F90AF90BF90CF90DF90EF90FF900F9127
:101090001F912F913F914F915F916F917F918F9110
:1010A0009F91AF91BF91CF91DF91EF91FF91FFBFE2
:1010B000FF91FCBFFF910895FF93FCB7FF93FFB72B
:1010C000F894FF93EF93DF93CF93BF93AF939F93E6
:1010D0008F937F936F935F934F933F932F931F93C0
:1010E0000F93FF92EF92DF92CF92BF92AF929F92B7
:1010F0008F927F926F925F924F923F922F921F92A8
:101100000F92E091C802F091C9028DB79EB7E050EE
:10111000FF4F918380838091D3029091D4029EBF30
:101120008DBF0F901F902F903F904F905F906F90CA
:101130007F908F909F90AF90BF90CF90DF90EF9077
:10114000FF900F911F912F913F914F915F916F9160
:101150007F918F919F91AF91BF91CF91DF91EF914F
:10116000FF91FFBFFF91FCBFFF910895FF93FCB774
:10117000FF93FFB7F894F068FF93EF93DF93CF935B
:10118000BF93AF939F938F937F936F935F934F938F
:101190003F932F931F930F93FF92EF92DF92CF9283
:1011A000BF92AF929F928F927F926F925F924F9277
:1011B0003F922F921F920F92E091C802F091C902C4
:1011C0008DB79EB7E050FF4F918380838091D3020B
:1011D0009091D4029EBF8DBF81E090E090937C0CF3
:1011E00080937B0CE8E8F0E080819181805F984DEE
:1011F000918380838091D3029091D4029EBF8DBF52
:101200000F901F902F903F904F905F906F907F9026
:101210008F909F90AF90BF90CF90DF90EF90FF9016
:101220000F911F912F913F914F915F916F917F91FE
:101230008F919F91AF91BF91CF91DF91EF91FF91EE
:10124000FFBFFF91FCBFFF9108950F931F93CF93B2
:10125000DF938C01EB01DC01ED91FC91119730974C
:10126000E1F16E817F81A0E0B0E001C0FC018091DE
:10127000CE029091CF022091CE023091CF02AB01ED
:10128000481B590B86819781821B930B481759077E
:10129000B8F080859185DF01009741F7D80112965B
:1012A000ED91FC911397D187C0871396DC93CE9371
:1012B000129719861886DF91CF911F910F9108958B
:1012C0001097C9F01996DC93CE931897F987E887A1
:1012D000DF91CF911F910F91089511967C936E939A
:1012E00013967C936E93129719861886DF91CF918F
:1012F0001F910F910895D801CD93DC93E7CFCF9341
:10130000DF93C091970CD091980C209709F4DFC01F
:101310008091810C9091820C019709F470C08091AA
:10132000810C9091820C8F5F9F4F09F48BC080914C
:10133000990C90919A0CC817D90709F4BFC0C45FE3
:10134000DE4F88819981CC50D1409093980C809346
:10135000970CDE01A150BF4FFD01B897128280E8C3
:1013600080A313A280917D0C90917E0C94A3809118
:101370007D0C90917E0C85A316A286E39CE097A33A
:101380008C93C050DF4FF983E883269682E090E08B
:101390008993999380917F0C9091800C9983888395
:1013A0008091810C9091820C269799838883C250FA
:1013B000D1408091810C9091820C8130910509F48B
:1013C00046C08230910529F1892BB1F58091A70C97
:1013D0009091A80C892B09F480C0E091A90CF091A0
:1013E000AA0CE45FFE4FD183C083D093AA0CC093B4
:1013F000A90C20E030E0C901DF91CF9108958091E0
:101400009B0C90919C0C892B09F089CF22E030E055
:1014100015C080919F0C9091A00C892B09F468C095
:10142000E091A10CF091A20CE45FFE4FD183C08348
:10143000D093A20CC093A10C20E030E0C901DF9151
:10144000CF910895C0913602D091370282CFE091BA
:101450009B0CF0919C0C309771F080919D0C9091B9
:101460009E0CE817F90709F44EC08085918590938A
:101470009C0C80939B0C8091890C90918A0C978393
:1014800086838091850C9091860C938382838091D2
:10149000870C9091880C95838483D183C083CC5F23
:1014A000DE4FF983E88383EA9CE0BF010E942509AF
:1014B00020E030E0C901DF91CF91089510929A0C9D
:1014C0001092990C1092980C1092970C42CF21E038
:1014D00030E0C901DF91CF910895D093A80CC0935B
:1014E000A70CD093AA0CC093A90C20E030E0A6CFA3
:1014F000D093A00CC0939F0CD093A20CC093A10CCE
:1015000020E030E09BCF10929E0C10929D0C109228
:101510009C0C10929B0CAFCF0F931F938091810076
:10152000826080938100E9EDF3E013821282CF01A3
:101530000A969187808711821082E25FFE4F8CE0CD
:10154000E934F80791F7118610861092440B109237
:10155000430B138212821182108223E53CE0F901D1
:1015600017821682158214821382128211821082CF
:10157000CF010A9691878087FC018CE0E137F8075C
:1015800079F71182108211861086178216821582D1
:1015900014821382128205ED12E01093980C0093CE
:1015A000970C87E39AE090939A0C8093990C309370
:1015B0009C0C20939B0CF0939E0CE0939D0C10923E
:1015C000A40C1092A30C1092A60C1092A50C1092D1
:1015D000A00C10929F0C1092A20C1092A10C1092D1
:1015E000A80C1092A70C1092AA0C1092A90C81E0E2
:1015F00098E090937E0C80937D0C8FEF9FEF9093FB
:10160000820C8093810C1092800C10927F0C0E94AF
:101610007F098AE291E190937E0C80937D0C109279
:10162000820C1092810C1092800C10927F0C0E9400
:101630007F091093C9020093C80281E090E0909363
:10164000DC038093DB03E091A70CF091A80C3097AA
:1016500079F08091A90C9091AA0CE817F907E1F0B4
:10166000E45FFE4F808191819093A80C8093A70C3A
:1016700080916F00826080936F00809184009091D0
:101680008500805F984D909389008093880082E068
:1016900086BB1F910F9108951092AA0C1092A90C6D
:1016A0001092A80C1092A70CE3CFF89480E884B9AC
:1016B00080913502882309F04DC0709135027F5F1B
:1016C000F0E840E951E0F5B960E02AEF30E0CA0106
:1016D0000197F1F721503040D1F76F5F6436A9F7D9
:1016E00015B860E02AEF30E0CA010197F1F7215008
:1016F0003040D1F76F5F6832A9F77723F1F0E0E06F
:10170000F5B960E02AEF30E0CA010197F1F7215006
:101710003040D1F76F5F6A30A9F715B860E02AEF63
:1017200030E0CA010197F1F721503040D1F76F5FE7
:101730006A30A9F7EF5FE71718F360E02AEF30E0AF
:10174000CA010197F1F721503040D1F76F5F643142
:10175000A9F7B9CF709135027150B2CFE091A30CC7
:10176000F091A40C309781F1A091A50CB091A60C3A
:10177000EA17FB0711F1268137810084F185E02DFE
:10178000868197812817390779F08091CE02909150
:10179000CF0240E02817390709F041E081E04827EF
:1017A000242F30E0C901089586E0809335020E941D
:1017B000550BA091A30CB091A40C109729F016968C
:1017C0002D913C911797E1CF20E030E0C9010895B9
:1017D0008091C6029091C7020197B1F18091A70C48
:1017E0009091A80C892B51F0E091C802F091C902A8
:1017F000EE5FFE4F80819181892B71F40E94AE0BC8
:10180000892B71F0E091C802F091C902EE5FFE4FA2
:1018100080819181029724F021E030E0C901089590
:1018200080919F0C9091A00C892B71F020E030E00A
:10183000E091C802F091C902EE5FFE4F8081918174
:10184000039754F7C901089520E030E0C9010895D5
:101850001F931FB7F89484E090E090937C0C8093E2
:101860007B0C0E945C081FBF1F9108951F931FB738
:10187000F89483E090E090937C0C80937B0C0E9422
:101880005C081FBF1F910895E091C802F091C90242
:10189000E85FFE4F8081918108951F931FB7F894F0
:1018A00090937E0C80937D0C7093800C60937F0CE2
:1018B0005093820C4093810C82E090E090937C0CDA
:1018C00080937B0C0E945C0820918D0C30918E0CD3
:1018D0001FBFC9011F91089540E050E00E944D0CC8
:1018E000089542E050E00E944D0C0895AF92BF92DF
:1018F000CF92DF92EF92FF920F931F93CF93DF93DC
:101900006C015B01EA0179014115510519F02417B9
:10191000350728F084E0809335020E94550BD09360
:10192000860CC093850C10938A0C0093890CF0925E
:10193000880CE092870CC601B50141E050E00E949E
:101940004D0CDF91CF911F910F91FF90EF90DF90A1
:10195000CF90BF90AF9008951F931FB7F89486E083
:1019600090E090937C0C80937B0C0E945C081FBFDE
:1019700080918F0C9091900C1F9108951F931FB729
:10198000F8949093920C8093910C7093940C6093C4
:10199000930C87E090E090937C0C80937B0C0E94EA
:1019A0005C081FBF1F9108951F931FB7F894909371
:1019B000920C8093910C7093960C6093950C88E038
:1019C00090E090937C0C80937B0C0E945C081FBF7E
:1019D0001F91089581E090E09093C7028093C60222
:1019E0000895E091CE02F091CF0280918400909111
:1019F00085002091D0023091D102821B930B60EDC3
:101A000077E00E94F912CF01880F991F880F991F64
:101A10008E0F9F1F680F791FCB0108952F923F9261
:101A20004F925F926F927F928F929F92AF92BF92EE
:101A3000CF92DF92EF92FF920F931F93CF93DF939A
:101A40000E948C0AE0903602F0903702A091C80202
:101A5000B091C90231E0C32ED12C28E0822E02E0E1
:101A600010E092E0992E89E0582EF3E06F2E712C51
:101A7000EBE04E2E7AE0372E6CE0B62E5DE0A52E20
:101A800045E0242E1AC0C130D10509F4F5C1C1309A
:101A9000D10558F0C230D10509F475C1239709F476
:101AA00044C1909235020E94550BA091C802B0919A
:101AB000C90210927C0C10927B0C109709F45CC246
:101AC000AA5FBE4F8D919C911197A650B14001978E
:101AD00009F4CCC0E091A70CF091A80C309709F460
:101AE000D7C08091A90C9091AA0CE817F90709F4C6
:101AF0003AC2E45FFE4F80819181EC50F1409093B7
:101B0000A80C8093A70CF093C902E093C802E0915F
:101B1000C802F091C902EA5FFE4FD182C0821092E2
:101B2000C7021092C6020E940208C0917B0CD0919D
:101B30007C0CC430D10509F4EBC1C530D10508F4E3
:101B4000A2CFC630D10509F47CC1C630D10508F456
:101B5000ACCFC730D10509F43BC1289709F0A1CF1C
:101B6000C091910CD091920C209709F4EEC2A881FB
:101B7000B981109709F447C08A819B818A179B0716
:101B800009F4CEC0A45FBE4F8D919C911197AC50CB
:101B9000B140998388838091950C9091960CA65FB3
:101BA000BE4FED91FC91119791838083149711960C
:101BB0001C930E9314978D919C911197A250B14054
:101BC0008130910509F4A7C08230910509F48FC0D6
:101BD000892B09F087C08091A70C9091A80C892BC4
:101BE00009F4CFC1E091A90CF091AA0CE45FFE4F7B
:101BF000B183A083B093AA0CA093A90CA881B9814A
:101C0000109709F0B9CF0E94E80B892B09F44DCF4A
:101C1000A091C802B091C902AA5FBE4F11961C9351
:101C20000E9314978D919C911197A250B1408130E1
:101C3000910509F46FC28230910509F44FC2892BD6
:101C400009F037CF8091A70C9091A80C892B09F44B
:101C50008AC2E091A90CF091AA0CE45FFE4FB18317
:101C6000A083B093AA0CA093A90C23CFAE15BF05F7
:101C700009F055CF8091C6029091C702892B09F0D7
:101C80004ECFE091A70CF091A80C309709F029CF26
:101C90000E94AE0B892B09F407C2E091A30CF091CE
:101CA000A40C309771F08091A50C9091A60CE817C8
:101CB000F90709F46FC2808591859093A40C8093F5
:101CC000A30CF093CB02E093CA02808191819093A0
:101CD000C9028093C802848195819093CD0280933C
:101CE000CC0215CFA09235020E94550B40CF8091B7
:101CF0009F0C9091A00C892B09F44CC1E091A10C90
:101D0000F091A20CE45FFE4FB183A083B093A20CCC
:101D1000A093A10C2CCFB09235020E94550B27CF77
:101D20001B821A821982188236CFA091C802B09104
:101D3000C902EA16FB0609F4BCCEAA5FBE4F119693
:101D40001C921E9214978D919C911197A250B140B4
:101D5000019709F46EC18091970C9091980C892B92
:101D600009F483C1E091990CF0919A0CE45FFE4F65
:101D7000B183A083B0939A0CA093990CA091C80250
:101D8000B091C90296CE0E947F0990938E0C8093E9
:101D90008D0C80918D0C90918E0C892B09F403C1D0
:101DA00080918D0C90918E0C019709F4C0C18091A7
:101DB0008D0C90918E0C029709F077CE83E0809382
:101DC00035020E94550BA091C802B091C90271CE94
:101DD000C091910CD091920C209709F4BBC1A091B5
:101DE000C802B091C902AE5FBE4F8D919C91119710
:101DF000A250B140019709F484C1A65FBE4F809103
:101E0000930C9091940C11969C938E93AA50B14090
:101E100088819981892B09F493C1EA81FB81E45F70
:101E2000FE4FB183A083BB83AA83A091C802B09167
:101E3000C902AA5FBE4F11967C926E92A650B14025
:101E400038CE2091D2022A3008F0EAC0822F90E0EA
:101E5000880F991F880F991F880F991F8555934FD9
:101E60009093900C80938F0C2F5F2093D202A091BF
:101E7000C802B091C9021DCE8091CE029091CF02CE
:101E800001969093CF028093CE028091840090912E
:101E900085009093D1028093D002A091C802B091A6
:101EA000C902AE5FBE4F8D919C911197A250B14077
:101EB000019709F4A0C0AE5FBE4F2D913C911197E0
:101EC000A250B1402230310509F0F3CDFD01EA5FA7
:101ED000FE4F80819181019709F0EBCD3183208302
:101EE00080919F0C9091A00C892B09F445C1E09141
:101EF000A10CF091A20CE45FFE4FB183A083B093DC
:101F0000A20CA093A10CA091C802B091C902D1CD9E
:101F1000A091C802B091C902AA5FBE4F11961C934E
:101F20000E9314978D919C911197A250B1408130DE
:101F3000910509F4A3C08230910509F080CE80910B
:101F40009F0C9091A00C892B09F416C1E091A10C73
:101F5000F091A20CE45FFE4FB183A083B093A20C7A
:101F6000A093A10CA6CD1092AA0C1092A90C1092CD
:101F7000A80C1092A70CC7CD809235020E94550B79
:101F8000CECDB093A80CA093A70CB093AA0CA093AD
:101F9000A90CEDCDB093A00CA0939F0CB093A20C14
:101FA000A093A10CE4CD0E94E80B892B09F4F8CE94
:101FB000A091C802B091C902AA5FBE4F1196DC93EE
:101FC000CE9314978D919C911197A250B14082307D
:101FD000910509F483C0019709F06BCDAC5FBE4F4A
:101FE0006D917C9183EA9CE00E942509A091C80232
:101FF000B091C9025ECD8091CC029091CD02019743
:102000009093CD028093CC02892B09F054CF20927B
:1020100035020E94550BA091C802B091C9024BCF66
:10202000509235020E94550BA091C802B091C9028E
:1020300040CDAC5FBE4FED91FC911197A450B140E3
:10204000309709F488CE118210828BE99CE0BF01A1
:102050000E942509A091C802B091C9028091970CF5
:102060009091980C892B09F07DCEB093980CA09399
:10207000970CB0939A0CA093990C1BCDE091CA02D7
:10208000F091CB028681978122813381820F931F49
:102090009783868383EA9CE0BF010E942509A09173
:1020A000C802B091C90205CDE0919F0CF091A00C3F
:1020B000309709F46AC08091A10C9091A20CE817A6
:1020C000F90709F480C0E45FFE4F80819181EC50F4
:1020D000F1409093A00C80939F0C15CD80919F0CA4
:1020E0009091A00C009709F45EC0A45FBE4F1196BA
:1020F0009C938E93AC50B140B093A00CA0939F0CD6
:10210000D8CC409235020E94550BA091C802B091E4
:10211000C902CFCC6091CA027091CB0283EA9CE0E5
:102120000E942509A091C802B091C902C2CC909228
:1021300035020E94550BA091C802B091C902B9CCDA
:10214000B983A883BB83AA8370CE309235020E94E4
:10215000550B59CD309235020E94550BA091C80203
:10216000B091C902A6CCB093A80CA093A70CB093D1
:10217000AA0CA093A90C9DCCB093A00CA0939F0C8B
:10218000B093A20CA093A10C94CCF092C902E0925F
:10219000C802BDCC1092A60C1092A50C1092A40CF3
:1021A0001092A30C8ECDB093A20CA093A10CB0936F
:1021B000A00CA0939F0CA45FBE4F11961C921E9280
:1021C000AC50B14076CC1092A20C1092A10C10929F
:1021D000A00C10929F0C97CCFC0181858093000D80
:1021E00092859093010D882339F4429A419899235E
:1021F00049F0913049F008958130C9F7419A4298E9
:102200009923B9F7409A08954098089580910A015A
:10221000846080930A0180910B018B7F80930B0176
:1022200028E833E140E951E0CA010197F1F7215074
:102230003040D1F780910B01846080930B0128E836
:1022400033E140E951E0CA010197F1F721503040F4
:10225000D1F708950E9406110E947B070E94950005
:102260006091FB0C85E0689FB00111246C5E7D4F8E
:1022700080E090E041E050E00E94E70680E090E0DE
:1022800063E070E00E94AE060E94AC0C9093FE0CDE
:102290008093FD0C0E94AC0C9093050D8093040D6F
:1022A0008AED92E160E070E00E946C0C8CE292E1B9
:1022B00060E070E00E94710C88E791E160E070E0FE
:1022C0000E94710C8091FB0CECE2F2E0E80FF11D32
:1022D00080818093FF0C1092000D1092010D1092DE
:1022E000020D1092030D0E94360C80E090E00895DC
:1022F0000F931F93DF93CF930F920F92CDB7DEB75B
:102300008E010F5F1F4F8091040D9091050DB80154
:102310000E94BE0C89818093030DF5CFDF93CF938C
:10232000CDB7DEB7A0970FB6F894DEBF0FBECDBF16
:102330008091FB0C90E0FC01EE0FFF1FEE0FFF1FE2
:10234000E80FF91FEC5EFD4F80818C8381818D83C6
:1023500082818E8383818F83848188878091FF0C23
:102360008C878091000D8D878091010D8E879091D3
:10237000030D1F86992311F081E08F87988B85B11B
:1023800090E2892785B91092020D1092030D1982EF
:10239000CE01019661E070E00E945206A0960FB651
:1023A000F894DEBF0FBECDBFCF91DF910895FC0141
:1023B00085816CE10E94ED129CE7899FA0011124A8
:1023C000405F514086810E94ED1224E030E0281BDE
:1023D00031098CE790E0289FD001299FB00D389FEC
:1023E000B00D1124109739F4141615066CF541E060
:1023F00050E0ACE2B1E08185882319F48285813018
:1024000079F066277727641B750BCD010E94660261
:102410008091FC0C853079F08F5F8093FC0C0895DF
:10242000A6E9B0E06FEF7FEFCD010E9466028091D8
:10243000FC0C853089F78091FF0C0E94180180E028
:102440008F5F8093FC0C089541155105A1F24FEF69
:102450005FEFACE2B1E0CFCFAF92BF92CF92DF920D
:10246000EF92FF920F931F93DF93CF93CDB7DEB719
:10247000A2970FB6F894DEBF0FBECDBF5E010894E1
:10248000A11CB11C43E0E42EF12CEC0EFD1E36E045
:10249000C32ED12CCC0EDD1E8091FD0C9091FE0C34
:1024A000B5010E94BE0C03C00330110599F4C701A9
:1024B0000E940E058C0103970297B0F78B81882349
:1024C00099F7C6010E94D711C6010E94EC10033093
:1024D000110569F30E948E11DFCFEF92FF920F93E7
:1024E0001F93CF93DF937C01FC019081892F80584B
:1024F0008230E8F09338D9F09438C9F09E38B9F0BA
:10250000892F0E94D201F7018181882381F0870100
:10251000C0E0D0E0F80182810E94D20121960F5FD5
:102520001F4FF701818190E0C817D9079CF3DF9115
:10253000CF911F910F91FF90EF9008950F931F93EC
:10254000CF93DF9385B190E4892785B90E946F010D
:10255000082F10E0CCE2D2E0888190E0801791074C
:1025600051F0219682E0C033D807B1F7DF91CF91C7
:102570001F910F910895E091FB0CF0E0E45DFD4F99
:10258000808190E08017910761F38091040D909114
:10259000050DB8010E94D40CE4CF85B190E18927E4
:1025A00085B98091FD0C9091FE0C60E070E00E9476
:1025B000D40C08950E94630380E392E00E94BF045C
:1025C000249A259A269A2C982D982E98389A399ADA
:1025D0003A9A4098419842980895991B79E004C02E
:1025E000991F961708F0961B881F7A95C9F7809552
:1025F0000895AA1BBB1B51E107C0AA1FBB1FA6174A
:10260000B70710F0A61BB70B881F991F5A95A9F79B
:1026100080959095BC01CD01089597FB092E072662
:102620000AD077FD04D0E5DF06D000201AF47095BB
:1026300061957F4F0895F6F7909581959F4F089586
:04264000F894FFCF3C
:10264400FF000100202000000000E7E7E7E7E7E7DC
:10265400E7E7E7E74A4A4A4A4A4B4B4B4B4B4C4C59
:102664004C4C4C4D4D4D4D4D686A6C6E4A4B4C4D27
:08267400FFFFFFFFFF01450B12
:00000001FF
